:100000000C94AD080C94CA080C94CA080C9457318F
:100010000C94CA080C94CA080C94CA080C94CA0818
:100020000C94CA080C94CA080C94DE2D0C94C62EAD
:100030000C94F9150C94CA080C94CA080C94CA08BC
:100040000C94CA080C94CA080C94CA080C94CA08E8
:100050000C94CA080C94BA2D0C94CA080C94CA08C3
:100060000C94CA080C94CA080C94CA080C94CA08C8
:100070000C94CA080C94CA080C94CA080C94CA08B8
:100080000C94CA080C94CA080C94CA080C94CA08A8
:100090000C94CA080C94CA080C94CA080C94CA0898
:1000A0000C94CA080C94CA080C94CA0805010902E9
:1000B000A10185020901A1000509190129081500FE
:1000C0002501950875018102050109300931158165
:1000D000257F95027508810609381581257F9501D0
:1000E00075088106050C0A38021581257F95017572
:1000F000088106C0C005010980A101850319012AF4
:10010000B700150126B700950175108100C0050CD8
:100110000901A101850419012AA002150126A002E6
:10012000950175108100C005010906A1018506052C
:100130000719E029E71500250195087501810205D9
:1001400007190029EF1500250195F07501810205B9
:10015000081901290595057501910295017503910D
:1001600001C00660FF0961A1010962150026FF00B8
:100170009520750881020963150026FF00952075FA
:10018000089102C005010906A101050719E029E748
:1001900015002501950875018102950175088101F9
:1001A0000507190029FF150026FF0095067508812F
:1001B000000508190129051500250195057501910E
:1001C00002950175039101C009025B00030100A0C3
:1001D000FA090400000103010100092111010001D5
:1001E00022440007058103080001090401000203FD
:1001F00000000009211101000122220007058203ED
:100200002000010705030320000109040200010387
:1002100000000009211101000122B6000705840336
:100220002000011201000200000008D8042DEB009C
:1002300001010200010E034C0069006C00790035D9
:10024000003800000010036C0069006C0069007544
:10025000006D00730000000403090429001E001F44
:10026000002000210022002B0014001A00080015B5
:10027000001700E00004001600070009000A00E172
:10028000001D001B000600190005000000E200E34D
:100290000021522C003300350027002600250024C1
:1002A0000023002D00130012000C0018001C003465
:1002B0000039000F000E000D000B00E5003800377C
:1002C000003600100011000000E7002A002252282A
:1002D00000AE000100AC00AB00AD00A80001003A88
:1002E000003B003C003D003E003F0035001E021F69
:1002F00002200221022202010001000100D400D5E7
:10030000004C000000010001000100D10046000186
:10031000000100010001000100010045004400430C
:100320000042004100400035022702260225022437
:10033000022302310230022F022E022D00D30000D0
:1003400000010001000100D20000000100010001D5
:100350000001000100010035001E001F00200021E7
:100360000022003A003B003C003D003E003F0040C0
:10037000004100420043004400450000000100012C
:100380000001000100000001000100010001000166
:1003900000010000002700260025002400230000A3
:1003A0000000004F00520051005000310030002F7B
:1003B000002E002D002E02000001000100010001AE
:1003C00000A8000000000000000000000000000085
:1003D000000000000000000000000000000000001D
:1003E000000000000000000000000000000000000D
:1003F0000000000000010001000100D9001370009E
:1004000000000000000000000000000000000000EC
:1004100000CD000000000000000000D000CE00CFA2
:1004200000000000000000000000000000000000CC
:1004300000010001000100DA0000003C7EFFFFFF28
:10044000FF7E3C3C7EFFFFFFFF42003C7EFFFFFF44
:10045000C300003C7EFFFFC38100003C7EFFC381E0
:100460000000003C7EC381810000003C428181008D
:1004700000000000000000000000000000000081FB
:1004800081423C0000008181C37E3C00000081C3AA
:10049000FF7E3C000081C3FFFF7E3C0000C3FFFFE6
:1004A000FF7E3C0042FFFFFFFF7E3C00000000E0BB
:1004B000100808C8B08080808080808040403C1454
:1004C000040890180408B0408000000000000001FB
:1004D00002C4A4FC00000000800000000000000036
:1004E000000080C858282A100F00000000000000FB
:1004F0000E090404040402030201010202040810AC
:10050000262B320405060000000000000000E01069
:1005100010F00000000000000000808080782808B3
:10052000102030081020408000000000000003046C
:10053000081011F901010101010100000000000093
:1005400000000110B05055201F0000000000000006
:100550000000000001020C10202837021E20201885
:100560000C141E010000000000000000000000004C
:1005700080402010909090A0C08080807008140867
:1005800090101008A4788000000000000000000017
:100590000708FC01000000008000000100000000CE
:1005A00000000818EA100F00000000000000000022
:1005B0000000031C20203C0F111F03061820203CC4
:1005C0000C121E01000000000000000000000000EE
:1005D000008040202020408000000000E010281013
:1005E0002020201048F00000000000000000000063
:1005F0001F20F802010101010101010300000000B8
:1006000001001030D5201F00000000000000000095
:1006100000003F20300C020509121E021C140810B5
:10062000202C32010000000000000000000000004B
:10063000000000000000000000E01C02050224048D
:100640000402A91EE00000000000000000000000FD
:1006500000E010086810080403000000000000001B
:100660000206827C03000000000000000000000081
:10067000000102040C1010202020283E1C20203EE7
:100680000F111F000000000000000000000000002B
:10069000000000000000000000E01C02050224042D
:1006A0000402A91EE000000000000000000000009D
:1006B000E09008186010080403000000000000002B
:1006C000020E827C03000000000000000000000019
:1006D000000102040C1010202020283E1C20203E87
:1006E0000F111F00000000000000000000000000CB
:1006F00000804040404080000000000000C04040BA
:100700008000804080000000000000000000001E0B
:1007100021F00402020202030202040404030100A5
:100720000009018080AB04F8000000000000000018
:1007300000031C20203C0F111F020618202038083F
:100740001018040402020100000000000000000074
:1007500000804040408000000000000000E0A02039
:100760004080C02040800000000000000000003EEB
:1007700041F004020202030202020404020100002A
:10078000000400404055827C000000000000000092
:10079000003F20300C020509121E0418100810201A
:1007A000283406020101000000000000C02010D023
:1007B00030000000000000008080403C14040890DD
:1007C000180408B040800000000000000304081076
:1007D00011F9010101010101000000000000008089
:1007E000C848282A100F0000000000000000000088
:1007F000000001020C102028370202040810262BEA
:10080000320405060000000000000000E01010F0B7
:100810000000000000000000808040402C1404080C
:1008200090180408B0408000000000000304081085
:1008300011F90101010101010000000000000000A8
:1008400080C048282A100F204A091000000000002C
:10085000000001020C102028370202040810262B89
:1008600032040506000000000000000A00573A00AC
:100870004F4646004F4E000A004E3A003F003300FC
:100880003200310030004C3A0000AE00AF000000F2
:100890000000003E5B4F5B3E003E6B4F6B3E001C1A
:1008A0003E7C3E1C00183C7E3C18001C577D571CAB
:1008B000001C5E7F5E1C0000183C180000FFE7C3B0
:1008C000E7FF00001824180000FFE7DBE7FF003017
:1008D000483A060E00262979292600407F0505079B
:1008E00000407F05253F005A3CE73C5A007F3E1CF4
:1008F0001C0800081C1C3E7F0014227F2214005F8D
:100900005F005F5F0006097F017F00006689956ACE
:100910000060606060600094A2FFA2940008047E02
:1009200004080010207E20100008082A1C08000877
:100930001C2A0808001E10101010000C1E0C1E0CA3
:100940000030383E383000060E3E0E060000000033
:1009500000000000005F0000000007000700001416
:100960007F147F1400242A7F2A1200231308646254
:1009700000364956205000000807030000001C22E2
:100980004100000041221C00002A1C7F1C2A000894
:10099000083E0808000080703000000808080808B9
:1009A000000000606000002010080402003E514971
:1009B000453E0000427F40000072494949460021FF
:1009C00041494D33001814127F1000274545453921
:1009D000003C4A4949310041211109070036494983
:1009E000493600464949291E000000140000000055
:1009F00040340000000008142241001414141414A0
:100A0000000041221408000201590906003E415D20
:100A1000594E007C1211127C007F49494936003E34
:100A200041414122007F4141413E007F49494941C6
:100A3000007F09090901003E41415173007F080808
:100A4000087F0000417F4100002040413F01007FBE
:100A500008142241007F40404040007F021C027F7A
:100A6000007F0408107F003E4141413E007F09099C
:100A70000906003E4151215E007F091929460026E2
:100A8000494949320003017F0103003F4040403F94
:100A9000001F2040201F003F4038403F00631408E3
:100AA0001463000304780403006159494D430000B6
:100AB0007F41414100020408102000004141417F74
:100AC00000040201020400404040404000000307CF
:100AD0000800002054547840007F284444380038EF
:100AE0004444442800384444287F0038545454185F
:100AF0000000087E0902001824241C78007F0804E6
:100B000004780000447D4000002040403D00007F0C
:100B1000102844000000417F4000007C04780478E5
:100B2000007C08040478003844444438007C1824CD
:100B3000241800182424187C007C080404080048A9
:100B4000545454240004043F4424003C4040207C7E
:100B5000001C2040201C003C4030403C0044281039
:100B60002844004C9090907C004464544C44000015
:100B70000836410000000077000000004136080000
:100B8000000201020402003C2623263C0000000073
:100B9000000080808080000000000080E070180C61
:100BA0001830E080000010F8901030783010B8FC59
:100BB0003810000000000000F8FCF8000000000001
:100BC00000000000000000001C9C1C00000000F859
:100BD000FCF80000000000001CFCF8C00000000051
:100BE000000080E0F87C1C000000F0FCFCFC1C1CF9
:100BF0001C1C1C1C1C1C000000000000C0F0F8386D
:100C00001C1C1C1C1C1C3CF8F0E000E0F0F0F0E0A8
:100C1000ECEEF7F37020007C7C7C7E007E7E7E7F95
:100C20007F7F000080C0E07E5B4F5BFEC00000C0A5
:100C300000DCD7DEDEDED7DC00C0000000000000F4
:100C400000000000000000000000000000000000A4
:100C500000000FBCE0818181838382870C183060A3
:100C6000C000001FFE90B9FFBB91983C1811133FC4
:100C70001100000000000000FFFFFF000000000066
:100C80000000000000000000FFFFFF00000000FF68
:100C9000FFFF0000000000000000030F7FF8E0806D
:100CA000F0FC3F0F0100000000003F3F3F1C1C1CF8
:100CB0001C1C3C78F8F0E08000000000C3E7FF7ED9
:100CC0003C3878787070F8FFDF87000F1F3F7F7F18
:100CD0007F7F7F3F1E0C001F1F1F3F003F3F3F7F56
:100CE0007F7F00307B7F7830202030787F3B00038F
:100CF000000F7F0F0F0F7F0F0003000000000000A8
:100D000000000000000000000000000000183C246B
:100D1000666341C18180808080808081C14162386A
:100D20006C4CC68181808080808081C14362361C8A
:100D30001800000000000000FFFFFFC0C0C0C0C0DE
:100D4000C0C0C0C0800000007FFF7F000000007FA7
:100D5000FFFFC080000000E0E0C0C0C0E0F97F1FDE
:100D60000700000000000000000070F0E0E0C0C0DC
:100D7000C0C0E0F0F87F3F0F0000000F3F7FF9E0B8
:100D8000E0C0C0C0C0C0E0F97F3F1F00000000000D
:100D90000000000000000000000000000000000053
:100DA0000000000000000000000000000000000043
:100DB0000000000000000000000000000000000033
:100DC0000000000000000000000000000000DA0247
:100DD00081FFD9F1DB20A4A62EAF00A0C0D3000074
:100DE000A1C8D30000AED580A81F408D14200000FC
:100DF00000000000000000000000000000000000F3
:100E000000000000000000000000000000000000E2
:100E10000000007E0F00D4FFFFFFC7000000780035
:100E2000000000000000002A2B2800000000000045
:100E30000000000000000000000029000000002C5D
:100E40001E3420212224342627252E362D373827FC
:100E50001E1F202122232425263333362E37381F08
:100E60000405060708090A0B0C0D0E0F10111213CA
:100E70001415161718191A1B1C1D2F3130232D3568
:100E80000405060708090A0B0C0D0E0F10111213AA
:100E90001415161718191A1B1C1D2F3130354C410B
:100EA00040603E3F232060414340404080404160DD
:100EB0003E3F2320604040414140804040613D3FF3
:100EC0002721604040404040804043613C3F272113
:100ED000604143434240804040603C3F272363449D
:100EE00040414141814040603C3F272363424241B1
:100EF0004141808040404040602020202020202030
:100F0000202060404084EC6C3CF8FE3F6BDBB93045
:100F100040000080C3EE7CB8FCFE6FDB9BB230006B
:100F20000000C0EE7F3DF8FC7E57DBDB8A0000004E
:100F3000C0E67F3BF9FCFCB6B33361000000000063
:100F40000080EEFFFBF9FCDEB6B62400000000C016
:100F5000EEFEFFFBFDEEB6B69200404041010101FE
:100F60002120000004040404444440400000080818
:100F7000000101010040400000000040400101016B
:100F80002020000000040404044040000000000889
:100F9000000001010000400000000040400101018C
:100FA0002020000000040404044040000000000869
:100FB00000000101000040000000404042420311D7
:100FC0001120200000080C0C0405414121200000E4
:100FD000080A0A0B41414141001010008084C402FC
:100FE000068444C080802020100812918142400075
:100FF000001012222224048480088080828203212F
:10100000211010000004040C0809414222200000B5
:10101000080A0A0B414342420000000000000000A1
:1010200000000000000000000000000000000000C0
:1010300000000000000000000000000000000000B0
:1010400000000000000000000000000000000000A0
:1010500000000000000000000040404040404040D0
:101060004040404040404040404040404040404080
:101070004040404040404040402060404040404070
:101080004020604040404040402060404040404060
:101090004020604040404040402060404020604050
:1010A0004020604040206040402060404020604040
:1010B00040206040402060404040201020404040A0
:1010C0004040201020404040404020102040404000
:1010D00040402010204040404040402010285040D8
:1010E00040404020102850404040402010285040B0
:1010F0004040402010285040404040402010307078
:1011000060404040201030706040404020103070FF
:10111000604040402010307060000000000000007F
:1011200000000000000000000000000000000000BF
:1011300000000000000000000000000000000000AF
:10114000000000000000000000000000000000009F
:101150000000000000000000000011241FBECFEFBF
:10116000DAE0DEBFCDBF27E0A4E0B2E001C01D920F
:10117000A63CB207E1F712E0A0E0B1E0EEE2F9E64A
:1011800002C005900D92A430B107D9F70E947227D2
:101190000C9459340C940000982F92959F7061F430
:1011A00020E0982F892F8695869511F02E5F982F35
:1011B000892F8695820F089524E0F4CF8093E3066B
:1011C0000895982F9670963021F488608093E406F5
:1011D0000895877FFBCF21E001C0220F8A95EAF7AF
:1011E0008091E406822B0E94E108089521E030E01E
:1011F000A90101C0440F8A95EAF7842F8095909148
:10120000E40689230E94E1080895292F9A3090F579
:10121000863080F590E036E0239F800D911D1124EB
:1012200051E081FD54E080FD550F82FD529523E091
:10123000969587952A95E1F7FC01EE0FFF1FE80FC1
:10124000F91FE757F94F20E030E070E04191DF01EE
:10125000CB01022E02C0969587950A94E2F78695F7
:10126000880B8427852384278E932F5F3F4F23305D
:10127000310561F70895292F9A3070F5863060F5B1
:1012800090E036E0239F800D911D1124682F677038
:1012900023E0969587952A95E1F7FC01EE0FFF1F55
:1012A000E80FF91FE757F94F40E050E080E0219147
:1012B00030E0062E02C0369527950A94E2F7217099
:1012C000042E01C0220F0A94EAF7822B4F5F5F4F72
:1012D0004330510561F7089580E008959091E40648
:1012E00021E030E0F90101C0EE0F8A95EAF7D9015B
:1012F00001C0AA0F6A95EAF7EA2B01C0220F4A95AE
:10130000EAF7892F8E23E81305C0892F822B0E94CC
:10131000E10808952095822F8923F9CFE091EA060C
:101320009091E906E91302C080E008952E2F30E085
:1013300057E0E59FF0011124E551F94F5181561313
:1013400006C05081581303C05581541304C0F901DD
:10135000E395E770E7CF81E008958091EA06209158
:10136000E906281301C0089501968770FACF90917D
:10137000E506809589238093E506282F277069F478
:10138000891759F09091E70692FF07C086958695D8
:1013900086950E94F6081092E50608958091E00671
:1013A0009091E806892B9091E1069115C9F0892B5F
:1013B00090915A01913021F49091E60697FD11C069
:1013C00096E028E032E040E09150F90150812F5F33
:1013D0003F4F51114F5F9111F7CF41111092E1062C
:1013E00008959EE120E132E0EECF982F9095809114
:1013F000E00689238093E0060895803E9105D1F1AF
:10140000C8F48133910509F481C048F4893291050B
:1014100009F471C08A32910509F47FC008958933B7
:101420009105E1F082389105C9F08533910509F401
:101430005DC00895843E9105D1F148F4823E910546
:1014400031F1833E910541F181EE90E00895863EB1
:101450009105C1F1873E9105F1F108952091E606CD
:10146000237009F064C02091E70623FF14C089E2CD
:1014700090E008952091E60620FD45C03091E706F2
:1014800030FF09C024FD24C083EE90E00895209130
:10149000E60622FDF7CF08952091E60622FD44C01E
:1014A0003091E70630FD43C024FFF5CF11C02091F5
:1014B000E70621FFF0CF8091E60684FD09C087EEA4
:1014C00090E008952091E60623FFE5CF24FFF7CFB3
:1014D00080E090E008952091E60623FD2BC0309136
:1014E000E70631FFE1CF84EE90E008952091E60613
:1014F00025FFD1CFBCCF2091E60625FD1EC020914F
:10150000E70623FFC8CF89E390E008952091E6061F
:1015100026FFC1CF8AE290E008952091E60626FFDB
:10152000BACF81E390E0089582EE90E0089580EED6
:1015300090E0089586EE90E0089585E390E00895A8
:101540009091E60692FF10C041E0282F24712430CC
:1015500009F040E031E0282F2871283009F030E010
:10156000431711F02CE0822793FF10C041E0282F91
:101570002471243109F040E031E0282F287128310E
:1015800009F030E0431711F02CE082273091E70694
:1015900030FF10C051E0282F2171213009F050E0B8
:1015A00041E0282F2871283009F040E0541711F04D
:1015B00029E0822731FF10C041E0282F217121311D
:1015C00009F040E031E0282F2871283109F030E09F
:1015D000431711F029E0822794FD877E08950F9329
:1015E0001F93CF93DF930E94FD09EC01923508F021
:1015F0004EC0903508F0C3C0803E910520F58D3C6B
:10160000910508F09AC0883A910570F4853A9105E1
:1016100008F090C081309105A1F10497813A9105BD
:1016200080F1C0E0D0E02DC0885A91094B97C8F7EF
:10163000C85AD0E0CC0FDD1FC956DE4F0990D881C3
:10164000C02DD4641EC09034A8F4D03208F0ACC0D1
:10165000C83ED105B0F0CE0191509F3110F78D2FCB
:101660000E94A00A082F8C2F90E00E94FD09EC0137
:10167000D02B07C090E00E94FD09DF70C82FD92B46
:10168000D06ACE01DF91CF911F910F9108958038DC
:1016900042E59407C8F5803652E5950708F054C036
:1016A000C03482E5D807D0F4C03292E5D90708F0FB
:1016B00046C08C2F8695869520E2829FC00111241A
:1016C000C37021E030E0A90102C0440F551FCA9544
:1016D000E2F7EA01C82BD92BDD68D3CF8C2F869592
:1016E0008695877050E2859FC0011124C37021E068
:1016F00030E0A90102C0440F551FCA95E2F7EA0184
:10170000C82BD92BDC68BDCF803C52E5950740F44F
:101710008F71C03AD24568F5D82FC4EFD06AB1CFE7
:10172000805C9245809708F07CCFDC2FDF71C0EFA2
:10173000D06AA7CFA497D064A4CFD065A2CFCF7131
:10174000DC2FC1EFD06A9DCF86958695877020E209
:10175000829FC0011124C37021E030E0A90102C0C2
:10176000440F551FCA95E2F7EA01C82BD92BDA6856
:1017700088CF0E94A00AD82FC0E0D06282CF8F719C
:101780000E94A00A93E0CC0FDD1F9A95E1F7DF706D
:10179000282F30E084FF04C050E1859F9001112480
:1017A000C22FD32BD0696DCF8D2F8F710E94A00ACD
:1017B000082F8C2F90E00E94FD09EC01D02BDDCF8B
:1017C00080E00895F894E82FE295EF70F0E041A1F1
:1017D0008F7021E030E0B90101C0660F8A95EAF709
:1017E000862F962F9095942391A392A1892B82A363
:1017F0007894089581E08093090608952091D40596
:1018000036E0839FC0011124269F800D911D112475
:10181000923014F080E090E082539C4F8093CC0390
:101820009093CD030895FB01E253FC4F90819817EC
:10183000B9F0808385E0769567958A95E1F721E098
:1018400030E002C0220F331F6A95E2F78091CA038D
:101850009091CB03822B932B8093CA039093CB035D
:1018600008950F931F93CF93DF938B0190E2899F8D
:10187000E0011124C40FD11DFE01E75AFF4E8491EF
:101880000E94130CFE01E75AF04F8491B801605E8C
:101890007F4F0E94130CDF91CF911F910F910895FC
:1018A0002091D4058217A0F5362F369536953695BA
:1018B000320390011124820F932F911D923044F531
:1018C000FC01E253FC4F5081677021E030E0D90108
:1018D00001C0AA0F6A95EAF76A2F4115D1F0652B6E
:1018E0006517B1F0608325E0969587952A95E1F715
:1018F00021E002C0220F331F8A95E2F78091CA03CC
:101900009091CB03822B932B8093CA039093CB03AC
:10191000089560956523E4CFAFE0B0E0E2E9FCE034
:101920000C949C32E82EF12C9DE0899F80011124BB
:10193000065D184F8CE0E816F10424F02F96E6E0DF
:101940000C94B8328DE0F801DE01119601900D92F1
:101950008A95E1F7F80180858115D9F0F481FE8739
:10196000F801F681FF8740E0F801628180810E94E2
:10197000500C40E06F858E850E94500C19861A86A7
:101980001B868DE0FE013196D80101900D928A955B
:10199000E1F7FFEFEF1AFF0A035F1F4FCBCFA2E083
:1019A000B0E0E5EDFCE00C949C32A091CC03B0914A
:1019B000CD039D012E5C3340620F731F613002E046
:1019C000700710F060E072E04091CA035091CB03C1
:1019D0007C012617370740F04093CA035093CB038E
:1019E0002296E6E00C94B832F70184919D91981705
:1019F000A9F08D0101501109F8018083C901E5E0CA
:101A000096958795EA95E1F701E010E002C0000F96
:101A1000111F8A95E2F7C801402B592B2F5F3F4FCA
:101A20001FEFE11AF10AD5CFCF93DF93C82F6CE0F7
:101A300083E00E94FE0B8EE0C89FE00111246EE05F
:101A400070E0CE018B5F904F0E94CF0C6DE080E084
:101A50000E94FE0B62E170E083EF9EE00E94CF0CDB
:101A60006DE083E00E94FE0B6EE070E0CE018156D7
:101A7000914F0E94CF0CDF91CF9108959091340641
:101A8000292F30E070913506A9014395437050E04D
:101A90007417150689F02E5C394F60FB87F9F90140
:101AA00084839F5F937090933406809132068F5F9A
:101AB0008093320681E0089580E0089590E06115FA
:101AC000E1F089539C4FFC0180818F3FA9F0E82F02
:101AD000E295EF70F0E041A18F7021E030E0B901B4
:101AE00001C0660F8A95EAF7862F962F909594236A
:101AF00091A392A1892B82A3089588539C4FE3CF91
:101B000090E06115A9F089539C4FFC0120812F3F83
:101B100091F0E22FE295EF70E05EF0E0808190E0DE
:101B20002F7002C0959587952A95E2F781700895E8
:101B300088539C4FEACF80E00895FC01680F791F1D
:101B40008FEF41E39191892728E030E0982F990F9A
:101B500087FF09C0892F842721503040B9F7E61745
:101B6000F70781F70895892FF7CF282F35EB230347
:101B7000C001112497FF04C080589109892F08954E
:101B800080589F4FFBCF8091A30680FD14C081FD3C
:101B900014C082FD16C08091A206811581F08E319D
:101BA00080F420E5829FC00111246EE170E00E9464
:101BB000D332862F089584E1089588E2089588E05D
:101BC000089580E508958091A30680FD17C081FDEA
:101BD00017C082FD19C08091A106811599F0883245
:101BE00098F428E0829FC001112468E270E00E940E
:101BF000D3326115710551F0862F089562E0FCCF54
:101C000064E0FACF61E0F8CF68E0F6CF81E00895B4
:101C100080915706811561F0E0917F06F091800672
:101C2000309729F00190F081E02D0995089580E02A
:101C30000895A3E0B0E0EFE1FEE00C94A032209123
:101C400047023091480228173907A1F080934702D4
:101C500090934802E0917F06F0918006309751F012
:101C600023E029838A839B830084F185E02DCE01C4
:101C7000019609952396E2E00C94BC32A3E0B0E013
:101C8000E4E4FEE00C94A03220914502309146023B
:101C900028173907A1F08093450290934602E091FE
:101CA0007F06F0918006309751F024E029838A83E3
:101CB0009B830084F185E02DCE0101960995239642
:101CC000E2E00C94BC3290915A01913021F4909151
:101CD000E60697FD0CC0E8E0F2E09191891302C09E
:101CE000DF011E9292E0EE30F907B9F70895E82F70
:101CF000E695E695E695803FC8F7F0E0E25FFD4F98
:101D00009DEF81FD97EF80FF959582FD92958281F1
:101D10008923828308958091590108952FB7F894FB
:101D2000609141027091420280914302909144027D
:101D30002FBF089580915706811519F00E948E0ECD
:101D400008950E948E0E2091590630915A064091B6
:101D50005B0650915C06620F731F841F951F0895E8
:101D600087E797E7809300089093010888E19AE05D
:101D70000FB6F894A895809360000FBE9093600012
:101D8000FFCFFC0120913702309138022617370728
:101D900048F06115710529F49091E8009E779093C1
:101DA000E8009B0190E02115310541F4911106C036
:101DB0008091E80082FF32C080E008958091FB05A9
:101DC0008115C1F18530C1F18091E80083FD30C0FB
:101DD0008091E80082FDECCF8091E80080FFE3CFA6
:101DE0008091F3004091F200582F2115310519F030
:101DF0004830510558F091E04830510509F090E025
:101E00004091E8004E774093E800CDCF81918093D8
:101E1000F100215031094F5F5F4FE7CF8091FB0503
:101E2000811541F0853041F08091E80083FFC0CFFB
:101E300081E0089582E0089583E00895982F9093BB
:101E4000E900891771F07091EC002091ED0050913C
:101E5000F00021FD09C09F5F973089F78093E9006A
:101E60000895762F242F50E03091EB003E7F309381
:101E7000EB003091ED003D7F3093ED003091EB00B1
:101E800031603093EB007093EC002093ED005093A1
:101E9000F0002091EE0027FDDECF08958091310201
:101EA00087FF13C08091E80082FF06C08091E800A0
:101EB0008B778093E80008958091FB058111F2CF24
:101EC00008958091FB058115D9F38091E80080FF8A
:101ED000F8CF8091E8008E77ECCF2091E40030912C
:101EE000E50095E6A9012091EC00822F817020FF8A
:101EF00006C08091E80080FF06C080E00895209130
:101F0000E80022FD1AC08091FB05811589F085301B
:101F100089F08091EB0085FD0FC02091E4003091A5
:101F2000E50042175307F9F29150E1F684E0089575
:101F300082E0089583E0089581E00895A0E0B0E094
:101F4000E4EAFFE00C949A32C8EDD0E088818F7EFD
:101F50008883E7EDF0E080818160808384E082BF48
:101F600081E08093300288818E7F888302EE10E0CA
:101F7000E2EE10821092DA006801CA94E1EE10825B
:101F800088818F77888388818068888388818F7D26
:101F9000888319BC1092FB0510922F021092D7056E
:101FA00010922E027601EA94E0EE80818B7F80838E
:101FB00088818160888342E060E080E00E941E0F9B
:101FC000F60180818E7F8083E2EE80818160808354
:101FD000808188608083E0EE80818E7F808388812D
:101FE00080618883CDB7DEB7E8E00C94B632E8EDC7
:101FF000F0E080818E7F80831092E2001092DA0000
:102000001092E100A0EEB0E08C9181608C93808111
:102010008F77808319BCA7ED8C918E7F8C93808104
:102020008F7E8083109230020895A8E0B0E0EBE14B
:10203000F0E10C949E3289839A836B837C834D8379
:102040005E8380913A060AE010E08A3010F001E0E9
:1020500010E021E02F8318866B817C8189819A8131
:10206000ED81FE81099581111BC02F8138852F5F7D
:102070003F4F2F8338870217130794F0C901889FB9
:102080009001899F300D300D112480E090E045E3F0
:102090004A95F1F70000019682179307C1F7DCCF4C
:1020A0002896E4E00C94BA320F931F93CF93DF93FA
:1020B000EB018A019091FB05943061F58093E90072
:1020C0008FEF9091E80095FD06C095ED9A95F1F798
:1020D00000008150B1F78091E80085FF1BC00E948D
:1020E0006D0F811112C08091E80085FD06C08091BE
:1020F000E8008E778093E800F2CF88818093F1002A
:102100000150104011F02196EECF8091E8008E77BB
:102110008093E800DF91CF911F910F910895CF93A5
:10212000DF93EC0148E050E0BC0181E00E945410D4
:1021300088E0FE01A9E3B2E001900D928A95E1F7F3
:10214000DF91CF91089540E250E0BC0184E00E940D
:102150005410089546E050E0BC0184E00E94541001
:10216000089543E050E0BC0184E00E9454100895BB
:102170009091E70692FB222720F9281779F080FB3F
:1021800092F99093E7066091E6067091E70684E085
:1021900090E00E94E03382E00E94B7090895A3E036
:1021A000B0E0E5EDF0E10C94A03229838430F8F43E
:1021B0006A30E8F44630D8F4E42FF0E0EE0FFF1F69
:1021C0004CE0649FE00DF11D112458E7859FE00D60
:1021D000F11D1124EA83FB83632FCF0188960E94AF
:1021E000C23369818A819B8189960E94C23323967A
:1021F000E2E00C94BC32AF92BF92CF92DF92FF929A
:102200000F931F93CF93DF93A12CB12C00E06501B6
:1022100010E013C0FE01259135914F2D612F802FC5
:102220000E94CF102296F39486E0F812F3CF86E056
:10223000C80ED11C1F5F1A3039F0E601CC0FDD1F2C
:10224000C55ADD4FF12CE6CF0F5F8CE3A80EB11C11
:102250000430E9F6DF91CF911F910F91FF90DF904D
:10226000CF90BF90AF900895CF93DF93C8E0D2E0B6
:1022700060E0CE010E94C2332196C11584E0D807E8
:10228000B9F7DF91CF910895CF93C82F66E28111FE
:1022900001C06FEF84E290E00E94C23361E0C1119F
:1022A00001C06FEF85E290E00E94C23369E0C11186
:1022B00001C06FEF86E290E00E94C233CF91089593
:1022C00080E00E94441160E087E290E00E94C23307
:1022D0000E94FB100E94341181E00E944411089575
:1022E0000F931F93CF93DF93843008F56A30F8F48F
:1022F0004630E8F4C42FD0E0CC0FDD1F9CE0699F8E
:10230000C00DD11D112498E7899FC00DD11D112446
:10231000CE0188960E94A433082FCE0189960E9490
:10232000A433902FDF91CF911F910F91089580E0FA
:1023300090E0F8CF462F7A3040F4663030F48430A5
:1023400020F4672F0E947011089580E090E00895B6
:10235000A4E0B0E0EEEAF1E10C949D3289839A8327
:102360000091E4068091E306082B83E08B831C82B6
:1023700010E0C8010B8002C0959587950A94E2F79A
:1023800080FD0DC08B819C8101978B839C8301967E
:1023900081F7F12C8F2D2496E5E00C94B932FB8067
:1023A00069817A818F2D0E949A110E94EF0A01970C
:1023B00049F3F0CFA3E0B0E0E0EEF1E10C94A032FD
:1023C000FC012581408151814A835B832115A1F065
:1023D000611591F0CA010E94A8118983682F8A8132
:1023E0009B810E9405096A817B8189810E949A11E3
:1023F0002396E2E00C94BC328A819B810E943B09C7
:102400008983F1CFA2E0B0E0E8E0F2E10C94A032E1
:1024100089839A830E94A81169817A810E949A1106
:102420000E94EF0A2296E2E00C94BC32FC01248167
:102430002115A1F0808191810E940212282F92958E
:102440009F70963099F060F4925F9F70923030F4F4
:10245000203FB1F038F481E0283E38F080E0089564
:102460009A5FF3CF81E0243FC9F7089591E0213FBF
:1024700009F090E081E0283E08F080E0892B089583
:1024800081E00895A6E0B0E0E8E4F2E10C94A03227
:1024900089839A83FC010190F081E02DEB83FC831A
:1024A000CF010E94A4332B813C812F5F3F4FE981F4
:1024B000FA81208331832696E2E00C94BC3284E2D8
:1024C00090E00E94A433863269F485E290E00E9495
:1024D000A433813039F486E290E00E94A43391E085
:1024E000893009F090E0892F8170089580915A0118
:1024F000813059F58091E60687FF27C00E94CE09FA
:1025000080930F0240E250E06FE576E08EE092E0CB
:102510000E948E33892BC1F080E2EEE0F2E0AFE55D
:10252000B6E001900D928A95E1F7E0917F06F09177
:102530008006309749F086E080930E020480F58192
:10254000E02D8EE092E0099508950E94CE098093D7
:10255000060248E050E061E876E086E092E00E9402
:102560008E33892B89F388E0E6E0F2E0A1E8B6E05B
:1025700001900D928A95E1F7E0917F06F091800637
:10258000309711F30280F381E02D86E092E0DBCFFB
:10259000811539F09091E006982B9093E0060E9407
:1025A00076120895811521F00E94F5090E94761295
:1025B00008954F925F926F927F92BF92CF92DF9277
:1025C000EF92FF920F931F93CF93DF9300D000D031
:1025D00000D0CDB7DEB76E834A835B832C833D8307
:1025E0006801082F880F110BC8010E94FA31B82E1C
:1025F000811509F47BC093E0000F111F9A95E1F754
:10260000F801E85EFE4F8381482F50E0811141E0E0
:10261000085E1E4FF80164817581685E794FCE01B6
:1026200001960E949B33EA81FB8140805180628049
:1026300073800E948E0E64197509860997096436A5
:1026400071058105910540F4B701C6010E949D0DF9
:102650009981891709F44AC0FE810F2FFF0F110BD2
:10266000C8010E94FA31B82E811116C0B12C8B2DF1
:102670000F900F900F900F900F900F90DF91CF91D0
:102680001F910F91FF90EF90DF90CF90BF907F90C0
:102690006F905F904F90089583E0000F111F8A950F
:1026A000E1F7F801E85EFE4F8381482F50E0E8161D
:1026B000F10408F4A701085E1E4FF80164817581DA
:1026C000685E794F8C819D810E949B33B701C60162
:1026D0000E949D0D99818913C9CF0E948E0EEA81B7
:1026E000FB816083718382839383C1CFA701B6018D
:1026F0008C819D810E949B33BACFA7E0B0E0E3E8D4
:10270000F3E10C949C326E837F8385E0E82EF12CFC
:1027100009E116E09E012F5F3F4F44E156E061E082
:1027200080E00E94D912811549F095E0FE013196B2
:10273000AFE0B6E001900D929A95E1F795E0EFE0F9
:10274000F6E0AE81BF8101900D929A95E1F7279650
:10275000E6E00C94B832A8E0B0E0E1EBF3E10C94D1
:102760009C327D010FE116E09E012F5F3F4F4BE051
:1027700056E063E082E00E94D912082F811589F1AA
:1027800090911E0680910A06981759F110E09091D9
:102790002206809121068917F1F0E92FF0E0E45E2E
:1027A000F94F878187FB662760F99F5F937090934D
:1027B0002206909120069F5F909320068F770E94BB
:1027C0003E0D182F8111E3CF84E090E00E94FA3192
:1027D000012F082302C01111F7CF80911E068093AC
:1027E0000A06802F2896E6E00C94B832CF92DF924A
:1027F000EF92FF921F93CF93DF9300D000D00F9200
:10280000CDB7DEB7182F6C837D8349832A833B8342
:10281000FB01C080D180E280F3800E948E0E6C1993
:102820007D098E099F09643671058105910518F4AB
:10283000F981F11521F1E12EF12EFF0CFF0888E05E
:102840001802F0011124E85EFE4F81819281885EBA
:10285000994F2081422F50E0211141E06A817B8114
:102860000E949B33C7010E94FA31811549F00E94F2
:102870008E0EEC81FD81608371838283938381E07E
:102880000F900F900F900F900F90DF91CF911F91AD
:10289000FF90EF90DF90CF900895A1E0B0E0E3E5E6
:1028A000F4E10C94A03280912D06898341E090914F
:1028B0002B06981301C040E09E012F5F3F4F61E05F
:1028C00076E086E00E94F6132196E2E00C94BC329A
:1028D000A1E0B0E0EEE6F4E10C94A0328091FC05BA
:1028E000898320912C0690E041E02817190609F40D
:1028F00040E09E012F5F3F4F6DEF75E087E00E9443
:10290000F6132196E2E00C94BC32CF92DF92EF9264
:10291000FF92CF93DF9300D000D0CDB7DEB7C09049
:102920000506D0900606E0900706F09008060E9483
:102930008E0E6C197D098E099F09FF24F39464366D
:1029400071058105910570F10E949A0EDC01CB01A1
:102950000296A11DB11D89839A83AB83BC838091AC
:10296000410190914201885E994F20914001422F90
:1029700050E0253008F044E0BE016F5F7F4F0E94B9
:102980009B3385E090E00E94FA31F82E811551F0DA
:102990000E948E0E609305067093060680930706CC
:1029A000909308068F2D0F900F900F900F90DF914E
:1029B000CF91FF90EF90DF90CF900895AB0124E688
:1029C00030E0BC0188E70E94F82F9C0181E0232BB6
:1029D00009F080E008958091CF058115F9F00E94FB
:1029E0008E0EDC01CB01805D9A48AF4FBF4F8093C4
:1029F000D0059093D105A093D205B093D3058091D3
:102A0000FC0581110BC062E070E08BE898E00E9449
:102A1000DE14811519F081E08093FC050895809102
:102A2000CF05811569F08091FC05811549F062E0C0
:102A300070E089E898E00E94DE1481111092FC0594
:102A40000895CF93DF93682F81E06A3019F06D30DD
:102A500031F480E00E949F15DF91CF91089580911D
:102A6000CC039091CD0326E0FC01A1ECB3E00190F2
:102A70000D922A95E1F7603E08F456C026E0FC016D
:102A800011922A95E9F7C091CC03D091CD0346E08D
:102A900050E0BE0181EC93E00E948E339E012E5CDB
:102AA0003340892B41F1C90145E0969587954A95B8
:102AB000E1F741E050E0BA0102C0660F771F8A9546
:102AC000E2F7CB016091CA037091CB03862B972B61
:102AD000B9016B5F7F4FE5E076956795EA95E1F781
:102AE00002C0440F551F6A95E2F7842B952B809303
:102AF000CA039093CB032A5F3F4F4091D405642FC4
:102B000070E0C9010E947C32481B463010F4240F4B
:102B1000311D323010F020E030E022533C4F209342
:102B2000CC033093CD0398CFF6E06F9FB001112412
:102B30006357774F46E050E00E945033A4CFCF93C5
:102B4000382FE091CC03F091CD03EE5CF34020915F
:102B5000D405622F70E0CF010E947C32281B822FA7
:102B6000311569F066E00E94C732C82FC11102C05A
:102B7000CF910895C15080E20E942115F7CF8E0FAA
:102B80009F2F911D923010F080E090E082539C4F77
:102B90008093CC039093CD03EBCFCF93DF93EC01E5
:102BA000FE018491811103C0DF91CF9108950E94AD
:102BB00021152196F5CF0E94CD1581E00E949F1529
:102BC00008950F931F93CF93DF93EC01FC010190C5
:102BD0000020E9F78F0101501109C017D10728F033
:102BE000DF91CF911F910F91089589910E94211536
:102BF000F4CF1F921FB61F9211248F939F93AF9310
:102C0000BF938091D605811113C0809141029091AC
:102C10004202A0914302B09144024196A11DB11D10
:102C20008093410290934202A0934302B0934402E6
:102C3000BF91AF919F918F911F901FBE1F901895CC
:102C40002FB7F8948091410290914202A0914302E3
:102C5000B09144022FBF0895A2E0B0E0E2E3F6E1B4
:102C60000C94A03289839A830E94201629813A818C
:102C7000821B930B2296E2E00C94BC32A0E1B0E000
:102C8000E4E4F6E10C949A32FE0131968AE0DF0129
:102C90001D928A95E9F78CE8E82E81E0F82E8F01E5
:102CA000E88BC12EF70181917F018F3F09F43FC06E
:102CB000F894E82FE295EF70F0E021A18F7041E0E9
:102CC00001C0440F8A95EAF7842F922F942B91A389
:102CD00092A18095892382A3789400C0E1E9F1E074
:102CE00031E0D12C21912F3F79F0A22FA295AF7026
:102CF000A05EB0E08C9190E02F7002C09595879512
:102D00002A95E2F780FF95C080E0D82A330F87E943
:102D100091E08E179F0731F7F70182918F3F11F0F5
:102D20000E94E20B90EA9A95F1F7D801DC920F5FCE
:102D30001F4FB1E9EB16B1E0FB0609F0B3CF4AE053
:102D400050E068897C2D8DE496E00E948E330097D8
:102D500049F02AE0E889FC2DADE4B6E001900D923F
:102D60002A95E1F700914C0610E00E5B194F892B74
:102D700009F461C081E0809341060E94201680938F
:102D80003F069093400680915706811509F4ADC027
:102D90007E01EBE0EE0EF11C85E0D7011D928A95D5
:102DA000E9F780913A068A3008F069C04DE753E1AF
:102DB000B701C8010E941510811509F484C04BEABF
:102DC00053E1B701C8010E941510811509F47BC0B9
:102DD00045E854E1B701C8010E941510811509F4B6
:102DE00072C04DE454E1B701C8010E94151081156D
:102DF00009F469C048E654E1B701C8010E94151002
:102E0000811509F460C010923A0680913E0690E068
:102E100045E050E0B7018E5B994F0E948E3321E070
:102E200020933D06892B09F041C06096E8E00C94A0
:102E3000B632832F6ACF80914106811509F4A3CF62
:102E4000E0903F06F09040060E9420168E199F09E0
:102E5000059708F498CF45E050E06DE476E0C801AE
:102E60000E948E33892B41F085E0EDE4F6E0D80135
:102E700001900D928A95E1F71092410684CFC0909F
:102E80003B06D0903C060E9420168C199D09843F79
:102E9000914008F08BCF80913D06811531F285E09D
:102EA000F70111928A95E9F710923D06A0913E062E
:102EB000B0E0AE5BB94F85E0FE013B9601900D920C
:102EC0008A95E1F7B2CF80913A068F3F39F40E949C
:102ED000201680933B0690933C06DDCF8F5F809356
:102EE0003A068A3008F491CFF2CF85E0F801A9E1E3
:102EF000B6E001900D928A95E1F765E070E089E116
:102F000096E00E949D0D8093180688E0E2E3F6E0CB
:102F1000AFE1B6E001900D928A95E1F768E070E0CC
:102F20008FE196E00E949D0D80931E06C0902706BB
:102F3000D0902806E0902906F0902A0680912E066F
:102F400090912F06A0913006B0913106C816D9068F
:102F5000EA06FB06C1F0C0922E06D0922F06E09240
:102F60003006F09231060E948E0E87017601E61A35
:102F7000F70A080B190BE0925906F0925A060093D3
:102F80005B0610935C0680912B0680932D06809142
:102F90002C06811519F00E94EB1447CF0E940F15E3
:102FA00044CFA9E0B0E0E7EDF7E10C9490328091D6
:102FB000CF05811509F4A2C10091BF031091C00390
:102FC0000E942016801B910BC29708F4B3C00E9488
:102FD00020168093BF039093C00360E080E00E94BE
:102FE000FE0B8091FC05811509F4A4C0C090F20588
:102FF000D090F305E090F405F090F5058091C903B9
:10300000811509F4BBC10E948E0E6C197D098E09D1
:103010009F09603375478105910508F08BC086E8EC
:1030200098E00E94CD158091E4060E94CC08823081
:1030300009F470C108F066C1811169C184E898E0A3
:103040000E94DB1589E798E00E94CD158091E60685
:1030500087FF66C184E798E00E94CD1587E798E076
:103060000E94CD158DE698E00E94CD1580912D0629
:103070004AE0BE016F5F7F4F90E00E945933CE015E
:1030800001960E94E1158BE698E00E94CD150E9402
:10309000080E80939E03C0909A03D0909B03E0900B
:1030A0009C03F0909D030E948E0E6C197D098E0981
:1030B0009F09693C710581059105E0F10E948E0E22
:1030C00060939A0370939B0380939C0390939D035A
:1030D00080912D0680939803109299038091DD06CC
:1030E000811104C080915C0181111DC16FE080E0FD
:1030F0000E94FE0B8DE591E00E94E1156CE080E0FE
:103100000E94FE0B81E080935C018091970390E028
:103110008395817090E0809397038A95807690E004
:1031200020919E0321FF0CC160E670E08555984F09
:103130000E94CF0C8091CA039091CB03892B09F494
:10314000C4C08091CF05811509F4BFC08091CE0520
:103150008111BBC00E94EB148091CA039091CB03F4
:10316000009709F4B2C080FBEE24E0F8F12C10E0E7
:1031700080FD0FC041E050E01F5F7A01012E02C0C8
:10318000EE0CFF1C0A94E2F7970128233923232B26
:1031900099F38091D50580FF64C3912F990F990F02
:1031A000990F37E0390F80E023E090930701809377
:1031B0000A013093080120930B0124E630E047E038
:1031C00050E065E071E088E70E94A32F892B09F0A9
:1031D0007CC030E2139FA00111248091D50580FFAF
:1031E00051C3EFE9F3E080E2DF011D928A95E9F730
:1031F000E6E7F1E0EF83F88702E711E03AE7A32E74
:1032000031E0B32EAF81B8858D91AF83B887F801D7
:1032100061918F01640F752F711DE82FF0E0E15669
:10322000FC4F80E090E027E0622E681A77247394C8
:10323000082E01C0770C0A94EAF7DB01A253BC4FB9
:103240006D01912CD6012D916D01372C3222262D46
:103250002919277030E0B32D022E01C0BB0F0A944C
:10326000EAF78B2E319521953109277001C03694EC
:103270002A95EAF783282081822A8082939428E085
:103280009212E0CF019631968830910561F62F8138
:103290003885A216B30609F0B5CF04E610E020E2A7
:1032A00030E04FE953E060E488E70E945330892B17
:1032B00061F4E094F0948091CA039091CB03E822EA
:1032C000F922E092CA03F092CB038091FC058115AC
:1032D000A9F00E948E0E0091D0051091D105209189
:1032E000D2053091D305601B710B820B930B6F3F9E
:1032F0007F4F8F4F9F4710F40E940F152996E2E1F0
:103300000C94AC32833049F08CE798E099CE82E897
:1033100098E096CE80E898E093CE8EE798E090CE45
:1033200080E798E099CE6CE080E00E94FE0B8DE58E
:1033300091E00E94E1156DE080E00E94FE0BE5CE79
:103340002091DE06211529F060E670E08551994F45
:10335000EFCE209198033091990360E670E02B3016
:1033600031051CF4855D994FE3CE293231051CF4FB
:1033700085599A4FDDCE85559B4FDACE0E948E0E31
:103380006C197D098E099F09603375478105910588
:1033900008F0D0CEC0909303D0909403E0909503B2
:1033A000F09096030E948E0E6C197D098E099F097C
:1033B0006F3171058105910508F4BCCE0E948E0E17
:1033C0006093930370939403809395039093960373
:1033D00000912D0610E000939103109292038091CA
:1033E0009003811107C081E090914902911180E022
:1033F00080934902F090DF06F11004C004311105FA
:103400000CF0A0C080E00E94140DF11018C0809153
:103410004A0281110CC0EAE2F7E086EC97E01086E0
:103420003D968E179F07D9F781E080934A02C80125
:103430000996439708F09CC080E00E948C0C809114
:10344000900364E10E94C732911175C180918B0392
:10345000811509F42BC1BBE44B2EB2E05B2E87E053
:10346000682E712C812C912C13012694620167E047
:10347000A62EB12CD6011496BC91BF83B11509F4C8
:1034800047C0F601E080F180028113810E9442333F
:1034900064E670E00E94D3324896C19790F540E010
:1034A000602F8E2D0E94500CC5010797E816F90673
:1034B00009F061C17501F6E0EF1AF108C401880F47
:1034C000991F0817190709F05EC10F5F1F4F0E946F
:1034D0004233B1010E94D332019708F05BC131E061
:1034E000E31AF1080E944233B1010E94D3320197DE
:1034F00008F056C10150110941E0602F8E2D0E9445
:10350000500CD601ED92FD920D931D93EF81EC933B
:10351000F5E0CF0ED11C28E0A20EB11C37E2A316B5
:10352000B10409F0A7CF84E1480E511C94E0890E44
:10353000911CA8E06A0E711CB0E48B16910409F08E
:1035400095CFF9C080914902980124513109243165
:10355000310520F48F5F0E94140D59CF9801285235
:1035600031092431310510F48E5FF5CF8C5FF3CF34
:10357000C8016AE070E00E94D3326F8378876D30B3
:1035800071051CF08CE08F8318860AE217E0212C6D
:10359000312CD801CD90DD90ED90FD908D909D90D7
:1035A0004D905D901196AD90BD906D907D90B1E184
:1035B000AB16B10444F140E06E2D8C2D0E94500CEE
:1035C00040E0642D882D0E94500CA12CB12C19864E
:1035D000D801CD92DD92ED92FD928D929D924D9209
:1035E0005D92E985ED93AD92BD926D927D92FFEF74
:1035F0002F1A3F0A035F1F4F2F813885221633068B
:1036000044F28F811ACFF801F085F987F11123C0B8
:103610000E94423360E170E00E94D3326C010E944C
:10362000423360E570E00E94D3327C0146012FEF07
:10363000821A920A2C013FEF431A530A8FEFA81AFD
:10364000B80A0E9442336CE070E00E94D3323C0121
:1036500091E09987BDCF6114710421F540E06E2D92
:103660008C2D0E94500C40E0642D882D0E94500C3F
:10367000AFEFCA1ADA0ABFEFEB1AFB0AEFEF8E1AA6
:103680009E0AFFEF4F1A5F0A2FEFA21AB20A41E01B
:103690006E2D8C2D0E94500C41E0642D882D0E94CF
:1036A000500C96CF31E0631A710892CFFBE48F2E55
:1036B000F2E09F2EC12CD12CAAE04A2E512C84017D
:1036C000E12CF12C0E944233B2010E94D3323C0122
:1036D0000E944233B2010E94D332262D282B28307B
:1036E00008F046C06E0C7F1C5601AA0CBB1CA80E2D
:1036F000B91E41E06A2D862D0E94500CD8016D92B2
:103700007D92AD92BD9281E08C93F8E0EF0EF11CBA
:103710000B5F1F4F20E2E216F104A1F634E0C30E66
:10372000D11C84E1880E911C90E4C916D10439F6AD
:1037300081E080938B03F09090038F2D64E10E94D1
:10374000C732911591F180918E038F5F843608F016
:103750006CC080938E0310928F03811509F469C0A9
:1037600081E08F0D843108F080E080939003E2CCFB
:10377000F8011482CACFEA14FB0409F09FCE21E0BD
:10378000E21AF1089BCE0615170509F0A0CE0150EC
:1037900011099DCE09F0A6CE8FEFE81AF80AA2CE45
:1037A00009F0AACE0F5F1F4FA7CE409104014150F0
:1037B000403208F04FE14093040180918C038F5F09
:1037C000833008F080E080938C03E42E00EC11E05D
:1037D00053E0D52ED80E8091DF06B801811107C0C5
:1037E0008091910390919203853191059CF480E042
:1037F0000E94310C0F5F1F4F003EE1E01E0709F4ED
:10380000A2CF81E08E0D41EE4E0D803208F4482F9C
:10381000E82EE1CF8932910514F481E0E9CFCD970C
:1038200014F482E0E5CF8D2DE3CF10928E03109239
:103830008F0380918D0311E0180F1E3008F010E007
:1038400010938D0364E084E00E94FE0BF8E01F9F5C
:10385000C001112468E070E0855C9B4F0E94CF0C92
:103860007FCF20E2129FC0011124880F892F881F6B
:10387000990B9195282F912F9295990F90763FE172
:10388000390F93CC42535C4F04E610E020E230E065
:103890000ACD0E9420169C019091A6068091A70651
:1038A000982B21F02093F8053093F9059091A80604
:1038B0008091A906982B21F02093F6053093F70507
:1038C000E0917F06F0918006309749F082E0809386
:1038D000A4060680F781E02D84EA96E00995089514
:1038E000611509F44AC0E3E3E80FE33150F4F0E076
:1038F000E55AFB4C0C94E7320E94C30D81958093EE
:10390000A7060E94491C08950E94C30DF8CF0E948B
:10391000C30D81958093A606F4CF0E94C30DFACF04
:103920000E94E30D8093A806ECCF0E94E30D8195E1
:10393000F9CF0E94E30D81958093A906E2CF0E9402
:10394000E30DFACF815D990B21E001C0220F8A952A
:10395000EAF78091A506822B8093A506D2CF8091AD
:10396000A30681608093A306CCCF8091A3068260DA
:10397000F9CF8091A3068460F5CF4091A6068D3CD7
:1039800059F48091A70687FF0DC01092A706411534
:1039900059F41092A20608C08E3C81F48091A706CB
:1039A00018169CF3411581F08091A8069091A90604
:1039B000892B09F0A6CF1092A106A3CF8F3C41F42A
:1039C00047FFF0CF1092A6068091A7068115E0CFA1
:1039D000803D19F41416B4F3E5CF9091A806893D03
:1039E00029F41916FCF61092A806DCCF8A3D19F4CA
:1039F00097FFD8CFF8CF9091A9068B3D29F497FF78
:103A0000D1CF1092A906CECF8C3D19F41916CCF364
:103A1000C9CF9FE2980F983088F4815D990B21E01F
:103A200030E0B90101C0660F8A95EAF7862F8095CC
:103A30009091A50689238093A506B4CF8D3D31F4DE
:103A40008091A3068E7F8093A306ACCF8E3D21F498
:103A50008091A3068D7FF7CF8F3D09F0A3CF809192
:103A6000A3068B7FF0CFCF93C82F811509F464C0D4
:103A70008CEF8C0F813A08F061C080915A0181303F
:103A800041F1E8E0F2E08EE092E02081C217C1F15E
:103A900031968E179F07C9F780915A018130B1F195
:103AA000A8E0B2E0EFEF80E09C91C91709F442C0B2
:103AB0001196EF3F19F4911101C0E82F8F5F863006
:103AC00099F7EF3FB9F1FE2FFF0FFF0BEA5FFD4FB4
:103AD00030C08091E60687FFD4CFEC2FE695E695BF
:103AE000E695F0E0E25FFD4F828190E04C2F477059
:103AF00021E001C0220F4A95EAF78223892B31F099
:103B00008C2F0E94630E0E947612C6CF8091E6062B
:103B100087FFC6CFEC2FE695E695E695F0E0E25FED
:103B2000FD4FC77081E001C0880FCA95EAF7C281D6
:103B3000C82BC2830E947612CF91089580E28C0F29
:103B4000883060F4C77081E001C0880FCA95EAF739
:103B5000C091E006C82BC093E006ECCF8BE58C0F3C
:103B6000833038F42C2F2452330BC9010E94190ED4
:103B7000E3CFE8E5EC0FEB3150F4F0E0EE0FFF1F80
:103B8000E353FE4F808191810E943E0ED5CF83E3A7
:103B90008C0F833188F661E08C2F0E94701CCCCF93
:103BA000811589F19CEF980F913A28F40E94630ED9
:103BB0000E947612089590E2980F983058F4982F4A
:103BC00081E091FD84E090FD880F92FD82950E9436
:103BD000F509EECF9BE5980F933028F480E090E054
:103BE0000E94190E089598E5980F9B3128F480E003
:103BF00090E00E943E0E089593E3980F933118F4DD
:103C000060E00E94701C0895A3E0B0E0EAE0FEE1ED
:103C10000C94A03289836A837B830E94331D8A813E
:103C20009B81892B39F489810E94D01D2396E2E083
:103C30000C94BC328FE99FE00197F1F700C00000BF
:103C40008A819B8101978A839B83E9CF80E0909151
:103C5000350620913406291739F1E92FF0E0EA5CA6
:103C6000F94F8081282F2F779F5F937090933506AF
:103C7000909133069F5F90933306211541F02130D8
:103C800069F460E070E087FF0DC082E505C06AE07E
:103C900070E087FF05C089EA0E94041E81E0D7CF4B
:103CA0008AEAFACF81E5F8CF08951092E006809174
:103CB0005A01813039F58091E60687FF23C0E0E1A3
:103CC000F2E08EE1DF011D928A95E9F780E090E055
:103CD0000E94190E80E090E00E943E0E1092E806CD
:103CE0000E94761286E0E4EAF6E0DF011D928A95F2
:103CF000E9F71092A2061092A1061092A3060E9464
:103D0000491C0895E8E0F2E086E0DCCF0E94551EF1
:103D10002FEF84E39CE0215080409040E1F700C009
:103D2000000088E19AE00FB6F894A89580936000AF
:103D30000FBE90936000FFCFA3E0B0E0E2EAFEE1A7
:103D40000C9496326C01FC018481811509F444C104
:103D500061E0C6010E94DA11F60145819C0141151E
:103D600009F470C031503F34B0F5282F30E0B9016C
:103D7000645071096432710528F02B5231092E30DC
:103D8000310588F4E091DC06F0E0EE0FFF1FE65508
:103D9000F94F208131812F3F5FE7350721F02F5FF9
:103DA0003F4F208331839C012B7F203E310509F456
:103DB000ACC08C32910509F4A5C38737FCE79F0797
:103DC00009F0A8C081E00E94EB0843E062E081E0D6
:103DD0000E946E09F2C09C01911549F237572038B4
:103DE000310558F7F82E80E1F81608F0E6C08FEF9D
:103DF00093E00E94A4338111E0C008E012E0F110CA
:103E0000A8C009831A838E010F5F1F4FC8010E944B
:103E10004212B02EA12E813008F4CFC009F0F7C0B5
:103E2000C8010E944212813009F0A3C0C8010E945B
:103E3000421260E570E0893311F060E070E00E94AA
:103E4000041EE4CF2B7F203E310569F08C329105B2
:103E500009F45EC387372CE7920709F05BC081E065
:103E60000E94F608B2CF1092DF061092DE06F6012D
:103E7000858100811181811509F457C1C8010E9413
:103E8000A811F82E682FC8010E940509B8018F2DCE
:103E90000E949A110E94EF0A182FA92EF601E580C0
:103EA000F680F2948FE0F8228091E506877001F1A8
:103EB000BE2CE114F1F0892F807F803461F080E224
:103EC000810F8830A8F0892F807E803221F4123053
:103ED00078F0F11469F08091E70682FF09C082E072
:103EE0000E94B7098091E5068770BB24B3948111C5
:103EF000B12CEA2DE295EF70F0ECAF1608F07CC122
:103F0000F0E0E259FB4C0C94E73221E02093DF060D
:103F10002093DE0688375CE7950709F4C3C09C014F
:103F2000205E32452032310508F0C1C041119FCFDB
:103F30008F7101E010E002C0000F111F8A95E2F7B7
:103F4000602F83E090E00E94C233802F0E94DE0841
:103F500034C0011594E0190781F1C8010E94A4330F
:103F6000811519F00F5F1F4FF4CFFA940F5F1F4FA9
:103F700046CF823031F4C8010E9442120E94331DA4
:103F800045CF833031F4C8010E9442120E94D01DF7
:103F90003DCF843081F4C8010E944212E12CF12C03
:103FA0009AE0992EE82FE053FF0B9F013A97C0F05B
:103FB000E114F10411F5811129CF8091E506877094
:103FC00059F0F6018581811539F08091E70682FF6D
:103FD00003C082E00E94B7092396ECE00C94B23251
:103FE0009E9CC0019F9C900D11247901E80EF91E42
:103FF0008B2D9A2D0E944212D5CFEFE9FFE0319729
:10400000F1F700C00000F1E0EF1AF108D1CFE82F7E
:10401000F0E0E15EF14F24912B83282F2695269521
:10402000269530E0F901E15FF14FE4908770F12CC3
:10403000082E02C0F594E7940A94E2F7F901E150E2
:10404000F24FA490B12C082E02C0B594A7940A9404
:10405000E2F7F901E151F24F8490912C02C095945E
:1040600087948A95E2F7E0FE03C081EE0E94331D3B
:10407000A0FE03C086EE0E94331D60E070E08B81DD
:104080000E94041EA0FE03C086EE0E94D01DE0FE2A
:1040900003C081EE0E94D01D80FEB8CE60E070E0CB
:1040A0008CE2CDCE82E0411509F4DACE8CCE4115FA
:1040B00009F4DDCE8A35ECE79E0799F1C8F481302A
:1040C0002CE7920761F183304CE7940711F18115D9
:1040D0009C4709F0CCCE0E94551E2FEF44E35CE0D4
:1040E000215040405040E1F700C000000E94B00E57
:1040F0008B35ECE79E07B9F08C359C4709F0B7CEBD
:104100008091E706002482FF0394802D0E94B8105E
:10411000AECE6FEF7FEF80E090E00E94E0330E9430
:10412000861E81E0F3CF80E0F1CFC8010E943B09F9
:10413000F82EACCE0A2D0F7020E1A21610F00295D9
:10414000007FE114B9F0011569F080E2810F883039
:1041500010F0111109C08091E006802B8093E006D9
:104160000E947612812F40C08091E806802B8093B8
:10417000E806F6CF812F0E94D01D0115E9F180E2FB
:10418000810F883010F0111104C0802F0E94F509B2
:1041900006C000958091E80680238093E8060E947F
:1041A00076122AC00A2D0F708A2D807F803211F07E
:1041B0000295007F113040F009F466C0E11409F463
:1041C00072C0F114B1F1CECF8091E70682FD2DC00F
:1041D000E11469F0011539F08091E006802B80939D
:1041E000E0060E94761280E00E94331D05C080E048
:1041F0000E94D01D0111C9CFB11409F4B6C080913D
:10420000E50680FDB2C0F6011582869586958695F5
:104210000E94EB08C6010E949C1E8091E5068695CF
:10422000869586950E94F608A0C0E11499F0F110D9
:1042300004C0802F0E94C812DFCF41E0F412DCCF0F
:104240008091E106902F98230917B1F2802B80937B
:10425000E106D2CFF110D0CF802F0E94D2129091E0
:10426000E106802F892329F0802F80958923809370
:10427000E1068091E206902F982309F4BDCF0095C6
:1042800008230093E206B8CFE11429F056E0F516B2
:1042900008F0B2CFCECF85E0F81608F0ADCF802F72
:1042A0000E94D212A9CFF114D1F3193349F49FEF30
:1042B000E7EEF3E09150E040F040E1F700C000008D
:1042C000812F0E94D01D98CF8A2D86958695837068
:1042D000813060F009F090CF812F9A2D9370E1101A
:1042E00002C080E090E00E943E0E86CF812F9A2D82
:1042F0009370E11002C080E090E00E94190E7CCF24
:104300006E2D812F0E94701C77CF8A2D8370D1F57E
:10431000E11029C0812F829586958770880F880FBC
:10432000412F4F70082E01C0440F0A94EAF7212F45
:10433000207114FF06C02FE001C0220F8A95EAF712
:1043400020959A2D9695969593709230B1F0822F84
:10435000842B933031F08091E306913059F0242B77
:1043600082230E94DE080E94080E60E0C6010E94BF
:10437000DA1132CE842B822BF4CF242B8091E306EA
:104380008227EFCFE11461F1A0FEEDCF812F82955E
:1043900086958770880F880F412F4F70082E01C0B7
:1043A000440F0A94EAF7212F207114FF06C02FE072
:1043B00001C0220F8A95EAF720959A2D9695969539
:1043C0009370923099F0822F842B933031F080914A
:1043D000E406913041F0242B82230E94E108C3CFF0
:1043E000823008F2D3CF842B822BF7CF242B8091FD
:1043F000E4068227F2CF0A2D0F70E11439F0802FE6
:104400000E94EB08812F0E94C812ADCF812F0E941D
:10441000D212802F0E94F608A6CF123F81F170F4CD
:10442000103FC9F0113F91F0E11409F457C0F114A5
:1044300009F451C0812F0E94331D95CF133F31F1F4
:10444000143F91F79091E70692FD2CC08A2D8F7151
:10445000E11401F318C0E11479F025E0F21608F038
:1044600082CF2A2D2F7181E001C0880F2A95EAF7AB
:104470009091E4068927B1CF46E0F416F0CF8A2D5B
:104480008F71E110C7CF0E94EB086DCF80E0E1147F
:1044900009F4A3CF9A2D9F7181E001C0880F9A95EE
:1044A000EAF79BCFE11461F08A2D8F7192FFEBCF79
:1044B000982F990F990F990F93609093E506E3CF8A
:1044C00081E00E94B70952E0F51608F44CCF82E073
:1044D0000E94B70948CF8A2D8F71D5CFF11479F09A
:1044E000193349F48FEF97EEE3E081509040E040BC
:1044F000E1F700C00000812F0E94D01D34CF8A2D2B
:104500008F7188CF21E02093DD0610925C0107CDEA
:104510001092DD06ACCC80912907803170F4809137
:104520002807811551F0E091EA062091E9063091C3
:104530002407409123072E1301C008956E2F70E0C9
:1045400087E0E89FF0011124DF01A551B94F1496CF
:104550008C911497811561F111968C9111978313A9
:1045600027C08C91841324C015968C9115978111C6
:104570001FC012968D919D91A0912507B09126079D
:104580008A1B9B0B8436910598F4809129078F70C4
:10459000806180932907EF50F94F80818F7080618F
:1045A000808383E297E00E949C1E0E94AD090895DB
:1045B000FB01E395E770BFCFADE0B0E0E2EEF2E2E1
:1045C0000C9495328C0186E0F801DE01189601907A
:1045D0000D928A95E1F7F801F580848193E2892EA6
:1045E00097E0992E70902707711018C0811599F0E7
:1045F000F11409F400C1C8010E941612811509F4D2
:10460000FAC087E0F801A3E2B7E001900D928A9525
:10461000E1F70E948B22FF24F39456C0D080A28041
:10462000B380C09028072091250730912607A50167
:10463000421B530BC11409F4C1C04436510508F0A4
:1046400079C0811541F3809124079180E09029077A
:1046500050E1E51608F059C0981215C08091230763
:104660008D1111C0F1104BC08E2D8F708061809321
:10467000290783E297E00E949C1E80912907F80198
:104680008683F12C21C0F1103AC040E0692D8D2DB8
:104690000E948E0940E0692D8D2D0E948E09F82E12
:1046A0008111EFCF888599850E940212292F2295CA
:1046B0002F70903470F49F702230A0F09115B1F0FB
:1046C000F8019681903190F48F2D2D96EDE00C94A9
:1046D000B1322A5F2F70223068F0C8010E949C1E00
:1046E000FC2CF2CF911511F0811571F3805E8830AA
:1046F00058F3F3CF803F40F3815F8330F9CF80914F
:104700002907816080932907BCCF98123AC0809115
:1047100023078D1136C0F11034C0E682C8010E9413
:104720009C1E87E0F801A3E2B7E001900D928A9504
:10473000E1F771CFE090290740E1E41650F483E2FD
:1047400097E00E949C1E87E0F40111928A95E9F798
:1047500098CF811509F45FCF909124078181981338
:1047600010C0809123078D110CC0F1100AC0E682A1
:10477000C8010E949C1E87E0F40111928A95E9F716
:104780004ACFC8010E9416128115A9F1F11499F1BE
:10479000F0E2EF1608F435CF8091230790912407BB
:1047A00089839A83AB82BC827D821E828091290795
:1047B0008F83CE0101960E949C1E23CF4436510563
:1047C00010F6811509F427CFF114A9F09091240770
:1047D0008181981306C0809123078D1102C087E064
:1047E000A2CFC8010E94161281110BCF8091290718
:1047F000816080932907C8010E949C1E0CCFABE109
:10480000B0E0E5E0F4E20C949E324E8B5F8B688F53
:10481000798F8A8F192F9B8F91111092E8061D8A2C
:1048200086E0FE017696DE011F9601900D928A9534
:10483000E1F70A8D011561F00B8B1C8B61E0CE0155
:104840000F960E94DA1161E0CE010F960E94DA11F4
:104850000B8B1C8B87E0FE013F96DE0118960190C2
:104860000D928A95E1F7CE0108960E94DC22811113
:1048700028C02091E9063091EA0687E0FE013896CB
:10488000DE01119601900D928A95E1F78C858115D4
:10489000C1F0822F90E08395877090E03817190659
:1048A000D1F097E0929FD0011124A551B94FFE019C
:1048B000319601900D929A95E1F78093E9060E9456
:1048C000AD098091EA069091E906891312C06B96B2
:1048D000E4E00C94BA320E94551E1092E906109240
:1048E000EA0687E0E3E2F7E0DF011D928A95E9F747
:1048F000E8CFB7E08B9FC00111248551994F0E94EA
:10490000DC22811521F32091EA062F5F3F4FC90178
:1049100087708093EA06D5CFA6E0B0E0E2E9F4E242
:104920000C949E320E9420168C0180915D0690911D
:104930005E068017910779F019821A820E9420166C
:10494000BC0149815A8180E090E00E94FF230093DE
:104950005D0610935E062696E4E00C94BA32AAE255
:10496000B0E0E5EBF4E20C949F3281E392E0FC01CD
:1049700001962091F100208322E089339207B9F754
:1049800080913202893009F45AC0C8F4823009F4A7
:10499000B8C0833009F487C0813091F18091E8007C
:1049A00083FFECC080913102909132029A3008F07E
:1049B000E5C0E92FF0E0E658FB4C0C94E7328A3072
:1049C00009F48EC08B3051F780913102813231F77A
:1049D0008091350290913602892B01F78091E80091
:1049E000877F8093E8000E944E0F81E09091330210
:1049F000911101C080E080935A010E94551ECECFD4
:104A000080913102813A51F68091E800877F80934E
:104A1000E8008091350290913602892B61F060E0C8
:104A200080E090E070E00E94C10E8091E8008B77FA
:104A30008093E800B3CF68E089E392E0F3CF809100
:104A40003102813209F0AACF80913502909136026D
:104A50008D7F892B09F0A2CF8091E800877F80931A
:104A6000E8008091E80082FF19C02091F300809156
:104A7000F200922F029731F48091F100813011F011
:104A8000863021F48091F100809359018091E800F3
:104A90008B778093E8000E944E0F80CF8091FB05BA
:104AA0008111DFCF7BCF80913102813A09F076CF3F
:104AB0008091350290913602892B09F06FCF809159
:104AC000E800877F8093E8008091E80080FFFCCFBA
:104AD00080915A018093F1008091E8008E77D9CFC0
:104AE00080913102813209F059CF8091E800877FAF
:104AF0008093E8000E944E0F809134028093580109
:104B00004DCF80913102813A09F048CF8091E80081
:104B1000877F8093E8008091E80080FFFCCF809140
:104B20005801D8CF803889F0823841F5809135021C
:104B30008F70873018F58093E9008091EB0085FB3A
:104B4000882780F91092E90006C08091D705880F68
:104B500090912E02892B9091E800977F9093E80026
:104B60008093F1001092F1008091E8008E7723C0CD
:104B7000811116C080913302813011F18091E800DB
:104B800083FF0AC08091E800877F8093E8008091CE
:104B9000EB0080628093EB00AA96E3E00C94BB32BA
:104BA000823061F780913302811581F01092E90023
:104BB0008091E800877F8093E8000E944E0FDECF4F
:104BC000933009F080E08093D705F0CF80913502D3
:104BD0008F702FEF280F263088F68093E900209100
:104BE000EB0020FFE3CF933031F48091EB00806243
:104BF0008093EB00DBCF9091EB0090619093EB0002
:104C000021E030E0A90101C0440F8A95EAF7409302
:104C1000EA001092EA008091EB008860E9CF8111F0
:104C2000ADCF109133021F778091E3008078812B04
:104C30008093E3008091E800877F8093E8000E94E2
:104C40004E0F8091E80080FFFCCF8091E3008068E8
:104C50008093E30083E0111101C082E08093FB05A3
:104C60008DCF8058823008F089CF809133029091A7
:104C700034028C3D53E0950791F583E08A838AE204
:104C800089834FB7F894DE01139620E03EE051E2AD
:104C9000E32FF0E050935700849120FF03C08295EA
:104CA0008F703F5F8F708A30C0F0895C8D931D924A
:104CB0002F5F243169F74FBF8091E800877F809391
:104CC000E8006AE270E0CE0101960E94C10E809178
:104CD000E8008B778093E80051CF805DE7CF292FE4
:104CE00030E02330310509F44DC078F5213031052D
:104CF00009F47CC08BE590E0E8ECF1E0223031056E
:104D000009F03CCF2091E800277F2093E800209114
:104D10003702309138028217930708F49C0140E073
:104D20002115310509F067C0411165C08091E80087
:104D300082FDCDCF8091FB05811549F2853039F296
:104D40008091E80083FFF2CFC2CF8091350290912D
:104D5000360221323105D9F12232310509F00ECF68
:104D60008330910508F00ACFFC01EE0FFF1FEA59CE
:104D7000FE4F0190F081E02D8D599E4FDC018C910A
:104D800090E011C0282F30E0813089F022303105C9
:104D9000B1F0232B09F0F2CEE7E5F2E0E4918E2F9B
:104DA00090E0E7E5F2E0009709F4E8CEABCFE5E468
:104DB000F2E0E4918E2F90E0E5E4F2E0F4CFE5E359
:104DC000F2E0E4918E2F90E0E5E3F2E0ECCF833067
:104DD000910508F0D3CEFC01EE0FFF1FE459FE4F02
:104DE0000190F081E02D89E090E08CCF82E190E0AD
:104DF000E3E2F2E087CF8091FB05811509F467CFEC
:104E0000853009F464CF8091E80083FD60CF809104
:104E1000E80082FD8BCF8091E80080FF81CF409138
:104E2000F3008091F200942F2115310519F088309C
:104E3000910550F041E0089709F040E08091E800CA
:104E40008E778093E8006CCF44914093F1003196C7
:104E5000215031090196E8CF803809F08FCE80913A
:104E6000E800877F8093E80080912F028093F10013
:104E70007BCE811183CE10913302123008F07ECEAA
:104E80008091E800877F8093E80010932F020E94B2
:104E90004E0F1115F9F084E08093FB0542E061ECC0
:104EA00081E00E941E0F42E261EC84E00E941E0F2E
:104EB00042E261EC82E00E941E0F42E260EC83E07D
:104EC0000E941E0F8091FB05843051F482E0809394
:104ED0005B0154CE8091E30087FDDDCF81E0DCCF24
:104EE00081E0F5CFCDB7DEB7A4970FB6F894DEBF5B
:104EF0000FBECDBF85B7806885BF85B7806885BF89
:104F000084B7877F84BF0FB6F894A895809160001E
:104F1000886180936000109260000FBE80E890E08E
:104F20000FB6F89480936100909361000FBE81E00A
:104F300080935B0180EE9BE08093040290930502D6
:104F40000E94F70F0E949E0F8091E2008460809380
:104F5000E20078948091FB05811599F08091E90039
:104F60001091EC008F7010FB112717F9182B10927D
:104F7000E9008091E80083FD0E94AF241F70109328
:104F8000E90082E084BD93E095BD9AEF97BD8093E0
:104F90006E001092590610925A0610925B061092FB
:104FA0005C060E945F12811102C00E9460118AEFAC
:104FB00090E02091E30027FD0EC0AFE3BCE911971C
:104FC000F1F700C000000197A1F70E94F70F1092BF
:104FD000FB0580E001C081E080935706809358066E
:104FE00080930C0181110E940831E2E3F6E088E031
:104FF000DF011D928A95E9F780910C011092EF056F
:1050000080910C0191E089278093F10590910C012A
:1050100090910C019111F1C08111DDC084E0809369
:10502000EE05EFE8F1E03197F1F700C0000010E085
:105030008091F105181708F4E6C080910C01809169
:105040000C0190E0811101C095E090934C0685E041
:10505000891B80933E060CE811E0D8018D918D01EB
:105060008F3F11F00E94E20BB1E001391B07A9F755
:1050700001E911E0E7E9EE2EE1E0FE2EF801819171
:105080008F018F3F11F00E94E20BE016F106B1F79D
:105090008AE0E2E4F6E0DF01282F1D922A95E9F785
:1050A000EDE4F6E0DF011D928A95E9F780E090E0FB
:1050B0000E94AC33853E9E4F21F40E945F12811105
:1050C00063C065EE7EEF80E090E00E94E03360E038
:1050D00082E090E00E94C23381E08093E30661E0C9
:1050E00083E090E00E94C23360E074E184E090E0ED
:1050F0000E94E03360E086E090E00E94C23360E00E
:1051000087E090E00E94C23360E070E0AB0188E08D
:1051100090E00E94D43360E083E290E00E94C233CA
:1051200060E08CE090E00E94C23360E08DE090E0AF
:105130000E94C23319821A821B821C821D821E8227
:105140001F82188648E050E067E170E0CE010196CA
:105150000E94B23360E070E0AB018FE190E00E940A
:10516000D43380E00E9444110E94601160E070E03E
:10517000AB018FE090E00E94D43360E070E0AB01BF
:1051800083E190E00E94D43382E090E00E94A43357
:105190008093D80584E090E00E94AC338093E606CB
:1051A0009093E7060E943E16EFEFF6E721E0E1500C
:1051B000F0402040E1F700C000000E943E168091C0
:1051C000420680FF32C06FEF7FEF80E090E00E94E8
:1051D000E0330E94B00E84EF8093C80384E980938B
:1051E000C70384E08093EE0560E080E00E945E0DDE
:1051F00061E080E00E945E0D14CF94E09093EE0594
:105200008111F2CF0ECF60E0812F0E94800D082F18
:1052100061E0812F0E94800DE12FF0E0E051FA4F14
:10522000880F802B80831F5F03CF83E090E00E9474
:10523000A4330E94DE08809157068093C90383E05F
:105240008093D50580E28093D4050E94682F6BE09F
:1052500070E084EE9DE00E94DE14811509F43FC0E9
:105260008091D50565E070E081FDA2C08FED9DE0E5
:105270000E94DE14811599F16DE070E08DEC9DE0E7
:105280000E94DE14811559F10E948E0EDC01CB01C3
:10529000805D9A48AF4FBF4F8093D0059093D10562
:1052A000A093D205B093D305EEECF3E080E092E05A
:1052B000DF019C011D9221503040E1F7E093CC03C7
:1052C000F093CD038FEF9FEF8093CA039093CB03AE
:1052D00081E08093CF058093FC051092CE058091EC
:1052E0005706811102C00E940B318DE091E080933E
:1052F0007F06909380068091FB0510E4853009F4C9
:1053000090C00E943E1669EDC62E65E0D62E72E46E
:10531000A72E76E0B72EF501D6019D91808123EE70
:1053200035E02A173B0709F486C031969817A9F390
:105330008090570610E077247394D5010D915D019C
:10534000F60191906F01901621F19026EE24E394DE
:10535000F12C8E2D8921B1F08114A1F0F9821A83EC
:105360000E9420168B839C837D8291E08E2D80236A
:1053700009F490E09E8349815A816B817C818D8103
:105380000E94FF23F394EE0CF6E0FF12E2CFF60149
:1053900002931F5F1A3089F60E949A0E6093F205FD
:1053A0007093F3058093F4059093F50501E048C0F0
:1053B0008AED9DE05DCF8091FB05843029F10E944C
:1053C0000F151092D60548E150E00FB6F894A89555
:1053D000409360000FBE1093600083B7817F8460AC
:1053E00083BF83B7816083BF7894889583B78E7FAE
:1053F00083BF0FB6F894A895809160008861809370
:105400006000109260000FBE0E943E16E2E4F6E0DB
:105410008081811189C331968CE496E08E179F07B5
:10542000B9F78091FB05853009F4C5CF0E94551E60
:105430000E94080E66CF98137BCF0E948C2400E058
:1054400010915706111509F4C0C0C090AA06D0905B
:10545000AB06ED2CEE0CEE08FE2C10911701EAEADB
:10546000F6E081E090E0181719060CF0BEC04090FD
:10547000E9055090EA056090EB057090EC050E94FC
:105480008E0E4B015C0184189508A608B70896019A
:10549000A701F7FE03C020E030E0A901A0E6BAEEC4
:1054A0000E94153469A37AA38BA39CA328EC129FB6
:1054B000C00111249401A501092E000C0008280F39
:1054C000391F401D501DA5E0B0E00E9415349B011E
:1054D000AC0169A17AA18BA19CA10E94373429015A
:1054E0003A0131EF431651046104710410F050EF9A
:1054F000452E49EC84169104A104B1040CF180916D
:10550000DC0690E0019669E170E00E94D33280935E
:10551000DC06880F991FFC01E655F94F10821182B5
:10552000183108F017E11F5F109317010E948E0ECB
:105530006093E9057093EA058093EB059093EC0581
:1055400052E0C516D104E104F1040CF4412CC090E2
:10555000E505D090E605E090E705F090E8050E94AB
:105560008E0E9B01AC012C193D094E095F096901A2
:105570007A0135E6C316D104E104F10484F00E94F7
:105580008E0E6093E5057093E6058093E705909392
:10559000E80580912D068093E4054092E305109183
:1055A000E405A091E305A11BBB0B9601A7010E9496
:1055B000203424E630E040E050E00E94F633120F41
:1055C00010932D060E94261E182F80910906811522
:1055D00051F010920906809134068093350680912F
:1055E000320680933306912C57C032962081318148
:1055F000032E000C0008C20ED31EE01CF01C019606
:1056000032CF61E0892D0E94800DF82E60E0892D57
:105610000E94800DFF0C8F29292D30E0D901A05167
:10562000BA4FEC919E2F93708917A9F1EE0FEE0FF0
:10563000E82BEC938090EF05890CEF70F0E0E658D2
:10564000FE4FA90143515A4F6A01E080DA018C9163
:10565000E80EFE2CFF0CFF08E82DF0E0E251FA4FB7
:105660008081A82EB12CE816F10424F060E0882D8A
:105670000E943E0D882799278A199B098E159F0540
:1056800024F061E0882D0E943E0DC701B5010E9403
:10569000D332F601808393948091F105981608F433
:1056A000B0CF80915706811519F00E94261E182B45
:1056B000111579F00E949A0E6093F2057093F3052C
:1056C0008093F4059093F5050E94D1170E94EB1486
:1056D00004C00E94D1170111F9CF86E0E4EAF6E098
:1056E000DE01119601900D928A95E1F7B090A50622
:1056F000D090A606F090A706C090A806E090A90654
:105700001092A6061092A7061092A8061092A9065B
:105710008F2D8D2909F441C00091F8051091F905EC
:105720000E9420169C01201B310B9091A20691151E
:1057300009F4F5C12531310580F19F3F19F09F5FD4
:105740009093A206D11459F00E94C30D91E01D144C
:105750000CF09FEF899F802D11248093A606F114F1
:1057600059F00E94C30D91E01F140CF09FEF899F28
:10577000802D11248093A7068091A606811569F0DB
:105780001091A706111549F00E94B50D8093A60649
:10579000812F0E94B50D8093A7068C2D8E2909F4C8
:1057A00041C00091F6051091F7050E9420169C015A
:1057B000201B310B9091A106911509F4ABC1213545
:1057C000310580F19F3F19F09F5F9093A106C114AE
:1057D00059F00E94E30D91E01C140CF09FEF899F9B
:1057E000802D11248093A806E11459F00E94E30D46
:1057F00091E01E140CF09FEF899F802D112480935F
:10580000A9068091A806811569F01091A9061115C5
:1058100049F00E94B50D8093A806812F0E94B50D16
:105820008093A9068091A506B81219C08091A6069A
:10583000811511F08D1113C02091A706211511F0CB
:105840002F110DC09091A906911511F09E1107C05E
:105850003091A806311103C0822B892B11F00E94D0
:10586000491C86E0FE013196A4EAB6E001900D9253
:105870008A95E1F70E94080E9091FA05891721F0A8
:105880008093FA050E948E0E8091FB05843009F00A
:1058900032CD83E08093E9008091E80082FF2BCD38
:1058A0008091E80090E085FF05C00E946D0F811592
:1058B00091F091E08091E8008B778093E80091155A
:1058C00009F419CDE981E150E33180F5F0E0EC57BE
:1058D000FB4C0C94E73230E2E32EF12C8E010F5F8B
:1058E0001F4F8091E80085FD0AC08091E8008B770A
:1058F0008093E8000E946D0F811599F3DACF8091B3
:10590000F100D8018C93B1E0EB1AF10891F20F5F2E
:105910001F4FE7CF1A828CE08B831AC08A818330B5
:1059200049F138F48130E9F0823051F08FEF89830A
:105930000FC08430D9F71B821C821D821E8208C0D2
:1059400087E290E00E94A4331B821C821D828E831A
:1059500040E250E0BE016F5F7F4F82E00E94541032
:10596000CACC0E948E0E0E94ED326B837C838D83A5
:105970009E83EECF8B8190E0FE0134968A309105B4
:105980003CF7DC01AE5BB94F2C9121930196F6CF29
:105990008A81823019F08530D9F2C8CF6B817C8141
:1059A0008D819E810E94ED3287E290E00E94C23399
:1059B000CFCF4C816B818A810E94701198278927F3
:1059C00098278D839E83C4CF2D813E813227232744
:1059D00032274C816B818A810E94CF10B9CF0E94FF
:1059E000FB10B6CF80E18A83B3CF81E08A8388EF52
:1059F00093CF0A811B811027012710278C81680112
:105A0000C80ED11C7E01E5E0EE0EF11CC016D106D9
:105A100009F49ECF80E0083FF1E01F0728F4C80199
:105A2000885F9D4F0E94A433D7018D937D010F5F46
:105A30001F4FECCF0A811B81102701271027FE0181
:105A400031967F018C8121E0C22ED12CCC0EDD1E3F
:105A5000C80ED11CCE14DF0409F47ACF083FF1E060
:105A60001F0740F4D70114966C91C801885F9D4FC1
:105A70000E94C2330F5F1F4FBFEFEB1AFB0AEACF42
:105A80000E94341165CF84E0AECF0A811B811027BC
:105A9000012710278C816801C80ED11C7E01E5E02A
:105AA000EE0EF11CC016D10609F452CF80E0003E84
:105AB000F1E01F0720F4C80188960E94A433D701A3
:105AC0008D937D010F5F1F4FEDCF0A811B81102742
:105AD00001271027FE0131967F018C8191E0C92EAC
