:100000000C94AB080C94C8080C94C8080C941E30CF
:100010000C94C8080C94C8080C94C8080C94C80820
:100020000C94C8080C94C8080C94D22C0C94BA2DCB
:100030000C948B150C94C8080C94C8080C94C80830
:100040000C94C8080C94C8080C94C8080C94C808F0
:100050000C94C8080C94AE2C0C94C8080C94C808D6
:100060000C94C8080C94C8080C94C8080C94C808D0
:100070000C94C8080C94C8080C94C8080C94C808C0
:100080000C94C8080C94C8080C94C8080C94C808B0
:100090000C94C8080C94C8080C94C8080C94C808A0
:1000A0000C94C8080C94C8080C94C80805010902EF
:1000B000A10185020901A1000509190129081500FE
:1000C0002501950875018102050109300931158165
:1000D000257F95027508810609381581257F9501D0
:1000E00075088106050C0A38021581257F95017572
:1000F000088106C0C005010980A101850319012AF4
:10010000B700150126B700950175108100C0050CD8
:100110000901A101850419012AA002150126A002E6
:10012000950175108100C005010906A1018506052C
:100130000719E029E71500250195087501810205D9
:1001400007190029EF1500250195F07501810205B9
:10015000081901290595057501910295017503910D
:1001600001C00660FF0961A1010962150026FF00B8
:100170009520750881020963150026FF00952075FA
:10018000089102C005010906A101050719E029E748
:1001900015002501950875018102950175088101F9
:1001A0000507190029FF150026FF0095067508812F
:1001B000000508190129051500250195057501910E
:1001C00002950175039101C009025B00030100A0C3
:1001D000FA090400000103010100092111010001D5
:1001E00022440007058103080001090401000203FD
:1001F00000000009211101000122220007058203ED
:100200002000010705030320000109040200010387
:1002100000000009211101000122B6000705840336
:100220002000011201000200000008D8042DEB009C
:1002300001010200010E034C0069006C00790035D9
:10024000003800000010036C0069006C0069007544
:10025000006D00730000000403090429001E001F44
:10026000002000210022002B0014001A00080015B5
:10027000001700E00004001600070009000A00E172
:10028000001D001B000600190005000000E200E34D
:100290000021522C003900350027002600250024BB
:1002A0000023002D00130012000C0018001C003465
:1002B0000033000F000E000D000B00E50038003782
:1002C000003600100011000000E7002A002252282A
:1002D00000AE000100010001000100010001003A30
:1002E000003B003C003D003E003F0035001E021F69
:1002F000022002210222020100010001000100018E
:10030000004C000000010001000100D100AC000120
:10031000000100010001000100010045004400430C
:100320000042004100400035022702260225022437
:10033000022302310230022F022E022D02000000A1
:1003400000010001000100D200AB0001000100012A
:100350000001000100010035001E001F00200021E7
:100360000022003A003B003C003D003E003F0040C0
:10037000004100420043004400450000000100012C
:100380000001000100AD00010001000100010001B9
:1003900000010001002700260025002400230000A2
:1003A0000000004F00520051005000310030002F7B
:1003B000002E002D002E02000001000100010001AE
:1003C00000A8000000000000000000000000000085
:1003D000000000000000000000000000000000001D
:1003E000000000000000000000000000000000000D
:1003F00000407E0000010001000100D90000000063
:10040000000000000000000000000000000000CD1F
:10041000000000000000000000CF00CE00D000006F
:1004200000000000000000000000000000000000CC
:1004300000010001000100DA0013703C7EFFFFFFA5
:10044000FF7E3C3C7EFFFFFFFF42003C7EFFFFFF44
:10045000C300003C7EFFFFC38100003C7EFFC381E0
:100460000000003C7EC381810000003C428181008D
:1004700000000000000000000000000000000081FB
:1004800081423C0000008181C37E3C00000081C3AA
:10049000FF7E3C000081C3FFFF7E3C0000C3FFFFE6
:1004A000FF7E3C0042FFFFFFFF7E3C00000000E0BB
:1004B000100808C8B08080808080808040403C1454
:1004C000040890180408B0408000000000000001FB
:1004D00002C4A4FC00000000800000000000000036
:1004E000000080C858282A100F00000000000000FB
:1004F0000E090404040402030201010202040810AC
:10050000262B320405060000000000000000E01069
:1005100010F00000000000000000808080782808B3
:10052000102030081020408000000000000003046C
:10053000081011F901010101010100000000000093
:1005400000000110B05055201F0000000000000006
:100550000000000001020C10202837021E20201885
:100560000C141E010000000000000000000000004C
:1005700080402010909090A0C08080807008140867
:1005800090101008A4788000000000000000000017
:100590000708FC01000000008000000100000000CE
:1005A00000000818EA100F00000000000000000022
:1005B0000000031C20203C0F111F03061820203CC4
:1005C0000C121E01000000000000000000000000EE
:1005D000008040202020408000000000E010281013
:1005E0002020201048F00000000000000000000063
:1005F0001F20F802010101010101010300000000B8
:1006000001001030D5201F00000000000000000095
:1006100000003F20300C020509121E021C140810B5
:10062000202C32010000000000000000000000004B
:10063000000000000000000000E01C02050224048D
:100640000402A91EE00000000000000000000000FD
:1006500000E010086810080403000000000000001B
:100660000206827C03000000000000000000000081
:10067000000102040C1010202020283E1C20203EE7
:100680000F111F000000000000000000000000002B
:10069000000000000000000000E01C02050224042D
:1006A0000402A91EE000000000000000000000009D
:1006B000E09008186010080403000000000000002B
:1006C000020E827C03000000000000000000000019
:1006D000000102040C1010202020283E1C20203E87
:1006E0000F111F00000000000000000000000000CB
:1006F00000804040404080000000000000C04040BA
:100700008000804080000000000000000000001E0B
:1007100021F00402020202030202040404030100A5
:100720000009018080AB04F8000000000000000018
:1007300000031C20203C0F111F020618202038083F
:100740001018040402020100000000000000000074
:1007500000804040408000000000000000E0A02039
:100760004080C02040800000000000000000003EEB
:1007700041F004020202030202020404020100002A
:10078000000400404055827C000000000000000092
:10079000003F20300C020509121E0418100810201A
:1007A000283406020101000000000000C02010D023
:1007B00030000000000000008080403C14040890DD
:1007C000180408B040800000000000000304081076
:1007D00011F9010101010101000000000000008089
:1007E000C848282A100F0000000000000000000088
:1007F000000001020C102028370202040810262BEA
:10080000320405060000000000000000E01010F0B7
:100810000000000000000000808040402C1404080C
:1008200090180408B0408000000000000304081085
:1008300011F90101010101010000000000000000A8
:1008400080C048282A100F204A091000000000002C
:10085000000001020C102028370202040810262B89
:100860003204050600000000000000573A004F4621
:1008700046004F4E004E3A003F0033003200310038
:1008800030004C3A0000AE00AF0000000000003E17
:100890005B4F5B3E003E6B4F6B3E001C3E7C3E1C44
:1008A00000183C7E3C18001C577D571C001C5E7FC6
:1008B0005E1C0000183C180000FFE7C3E7FF0000C3
:1008C0001824180000FFE7DBE7FF0030483A060E67
:1008D00000262979292600407F05050700407F056D
:1008E000253F005A3CE73C5A007F3E1C1C0800088C
:1008F0001C1C3E7F0014227F2214005F5F005F5F9C
:100900000006097F017F00006689956A00606060CB
:1009100060600094A2FFA2940008047E0408001006
:10092000207E20100008082A1C0800081C2A08083D
:10093000001E10101010000C1E0C1E0C0030383E53
:10094000383000060E3E0E060000000000000000D9
:10095000005F000000000700070000147F147F14F0
:1009600000242A7F2A1200231308646200364956A5
:10097000205000000807030000001C224100000076
:1009800041221C00002A1C7F1C2A0008083E08087F
:1009900000008070300000080808080800000060AF
:1009A0006000002010080402003E5149453E00004E
:1009B000427F4000007249494946002141494D3378
:1009C000001814127F10002745454539003C4A495C
:1009D000493100412111090700364949493600468D
:1009E0004949291E000000140000000040340000A6
:1009F00000000814224100141414141400004122B1
:100A00001408000201590906003E415D594E007C60
:100A10001211127C007F49494936003E4141412272
:100A2000007F4141413E007F49494941007F09091A
:100A30000901003E41415173007F0808087F000012
:100A4000417F4100002040413F01007F08142241C6
:100A5000007F40404040007F021C027F007F04086E
:100A6000107F003E4141413E007F09090906003EDA
:100A70004151215E007F0919294600264949493222
:100A80000003017F0103003F4040403F001F204022
:100A9000201F003F4038403F0063140814630003E8
:100AA00004780403006159494D4300007F414141EE
:100AB00000020408102000004141417F00040201AF
:100AC00002040040404040400000030708000020AE
:100AD00054547840007F2844443800384444442823
:100AE00000384444287F0038545454180000087ECD
:100AF0000902001824241C78007F080404780000F0
:100B0000447D4000002040403D00007F102844000C
:100B10000000417F4000007C04780478007C0804D9
:100B20000478003844444438007C18242418001801
:100B30002424187C007C08040408004854545424DD
:100B40000004043F4424003C4040207C001C204022
:100B5000201C003C4030403C004428102844004CFD
:100B60009090907C004464544C440000083641004E
:100B7000000000770000000041360800000201027A
:100B80000402003C2623263C000000000000808078
:100B90008080000000000080E070180C1830E080B9
:100BA000000010F8901030783010B8FC38100000B9
:100BB00000000000F8FCF800000000000000000049
:100BC000000000001C9C1C00000000F8FCF8000065
:100BD000000000001CFCF8C000000000000080E0E5
:100BE000F87C1C000000F0FCFCFC1C1C1C1C1C1CE9
:100BF0001C1C000000000000C0F0F8381C1C1C1C6D
:100C00001C1C3CF8F0E000E0F0F0F0E0ECEEF7F354
:100C10007020007C7C7C7E007E7E7E7F7F7F00005B
:100C200080C0E07E5B4F5BFEC00000C000DCD7DE12
:100C3000DEDED7DC00C00000000000000000000085
:100C400000000000000000000000000000000FBCD9
:100C5000E0818181838382870C183060C000001F8F
:100C6000FE90B9FFBB91983C1811133F1100000092
:100C700000000000FFFFFF00000000000000000077
:100C800000000000FFFFFF00000000FFFFFF00006A
:100C9000000000000000030F7FF8E080F0FC3F0F31
:100CA0000100000000003F3F3F1C1C1C1C1C3C7846
:100CB000F8F0E08000000000C3E7FF7E3C38787861
:100CC0007070F8FFDF87000F1F3F7F7F7F7F7F3FC0
:100CD0001E0C001F1F1F3F003F3F3F7F7F7F0030E4
:100CE0007B7F7830202030787F3B0003000F7F0F20
:100CF0000F0F7F0F00030000000000000000000045
:100D0000000000000000000000183C24666341C1A0
:100D10008180808080808081C14162386C4CC68136
:100D200081808080808081C14362361C1800000071
:100D300000000000FFFFFFC0C0C0C0C0C0C0C0C0F6
:100D4000800000007FFF7F000000007FFFFFC08069
:100D5000000000E0E0C0C0C0E0F97F1F0700000015
:100D600000000000000070F0E0E0C0C0C0C0E0F093
:100D7000F87F3F0F0000000F3F7FF9E0E0C0C0C0E8
:100D8000C0C0E0F97F3F1F0000000000000000002D
:100D90000000000000000000000000000000000053
:100DA0000000000000000000000000000000000043
:100DB0000000000000000000000000000000000033
:100DC00000000000000000000000DA0281FFD9F1FD
:100DD000DB20A4A62EAF00A0C0D30000A1C8D30082
:100DE00000AED580A81F408D142000000000000038
:100DF00000000000000000000000000000000000F3
:100E00000000000000000000000000000000007E64
:100E10000F00D4FFFFFFC7000000780000000000B3
:100E20000000002A2B280000000000000000000045
:100E300000000000000029000000002C1E342021CA
:100E40002224342627252E362D3738271E1F202111
:100E500022232425263333362E37381F0405060770
:100E600008090A0B0C0D0E0F10111213141516178A
:100E700018191A1B1C1D2F3130232D3504050607A8
:100E800008090A0B0C0D0E0F10111213141516176A
:100E900018191A1B1C1D2F3130354C4140603E3F44
:100EA0002320604143404040804041603E3F23203A
:100EB000604040414140804040613D3F27216040CB
:100EC00040404040804043613C3F272160414343D4
:100ED0004240804040603C3F2723634440414141C1
:100EE000814040603C3F2723634242414141808032
:100EF00040404040602020202020202020206040D2
:100F00004084EC6C3CF8FE3F6BDBB9304000008065
:100F1000C3EE7CB8FCFE6FDB9BB230000000C0EE7D
:100F20007F3DF8FC7E57DBDB8A000000C0E67F3B9C
:100F3000F9FCFCB6B3336100000000000080EEFF56
:100F4000FBF9FCDEB6B62400000000C0EEFEFFFB9D
:100F5000FDEEB6B6920040404101010121200000A3
:100F60000404040444444040000008080001010156
:100F7000004040000000004040010101202000002E
:100F800000040404044040000000000800000101C7
:100F9000000040000000004040010101202000004E
:100FA00000040404044040000000000800000101A7
:100FB0000000400000004040424203111120200088
:100FC00000080C0C0405414121200000080A0A0B0E
:100FD00041414141001010008084C402068444C095
:100FE00080802020100812918142400000101222BF
:100FF0002224048480088080828203212110100032
:101000000004040C0809414222200000080A0A0BCF
:1010100041434242000000000000000000000000C8
:1010200000000000000000000000000000000000C0
:1010300000000000000000000000000000000000B0
:1010400000000000000000000000000000000000A0
:1010500000000000004040404040404040404040D0
:101060004040404040404040404040404040404080
:101070004040404040206040404040404020604070
:101080004040404040206040404040404020604060
:101090004040404040206040402060404020604050
:1010A0004020604040206040402060404020604040
:1010B00040206040404020102040404040402010F0
:1010C0002040404040402010204040404040201000
:1010D00020404040404040201028504040404020A8
:1010E00010285040404040201028504040404020B0
:1010F0001028504040404040201030706040404038
:1011000020103070604040402010307060404040FF
:10111000201030706000000000000000000000009F
:1011200000000000000000000000000000000000BF
:1011300000000000000000000000000000000000AF
:10114000000000000000000000000000000000009F
:1011500000000000000011241FBECFEFDAE0DEBF68
:10116000CDBF27E0A6E0B2E001C01D92A43CB207CB
:10117000E1F712E0A0E0B1E0E8E5F6E602C0059094
:101180000D92A630B107D9F70E9498260C94EE3242
:101190000C940000982F92959F7061F420E0982F96
:1011A000892F8695869511F02E5F982F892F869529
:1011B000820F089524E0F4CF8093E1060895982FDC
:1011C0009670963021F488608093E2060895877FB8
:1011D000FBCF21E001C0220F8A95EAF78091E20659
:1011E000822BEDCF21E001C0220F8A95EAF7822FF2
:1011F00080959091E2068923E2CF292F9A3090F5CD
:10120000863080F590E036E0239F800D911D1124FB
:1012100051E081FD54E080FD550F82FD529523E0A1
:10122000969587952A95E1F7FC01EE0FFF1FE80FD1
:10123000F91FEA57F94F20E030E070E04191DF01FB
:10124000CB01022E02C0969587950A94E2F7869507
:10125000880B8427852384278E932F5F3F4F23306D
:10126000310561F70895292F9A3070F5863060F5C1
:1012700090E036E0239F800D911D1124682F677048
:1012800023E0969587952A95E1F7FC01EE0FFF1F65
:10129000E80FF91FEA57F94F40E050E080E0219154
:1012A00030E0062E02C0369527950A94E2F72170A9
:1012B000042E01C0220F0A94EAF7822B4F5F5F4F82
:1012C0004330510561F7089580E008959091E2065A
:1012D00021E030E0F90101C0EE0F8A95EAF7D9016B
:1012E00001C0AA0F6A95EAF7EA2B01C0220F4A95BE
:1012F000EAF7892F8E23E81303C0892F822B5FCF53
:101300002095822F8923FBCFE091E8069091E70694
:10131000E91302C080E008959F0157E0E59FF001C6
:101320001124E751F94F5181561306C050815813CB
:1013300003C05581541305C02F5F3F4FF901E7707B
:10134000E7CF81E008958091E8062091E706281311
:1013500001C0089501968770FACF9091E3068095B9
:1013600089238093E306282F277061F4891751F0B1
:101370009091E50692FF06C086958695869532DFA8
:101380001092E30608958091DE069091E606892B7F
:101390009091DF069115C9F0892B90915C019130F5
:1013A00021F49091E40697FD11C096E02AE032E026
:1013B00040E09150F90150812F5F3F4F51114F5F35
:1013C0009111F7CF41111092DF0608959EE122E1BD
:1013D00032E0EECF8095982F8091DE0689238093AE
:1013E000DE060895803E9105D1F1C8F48133910560
:1013F00009F481C048F48932910509F471C08A3238
:10140000910509F47FC0089589339105E1F0823890
:101410009105C9F08533910509F45DC00895843EB6
:101420009105D1F148F4823E910531F1833E910559
:1014300041F181EE90E00895863E9105C1F1873E2D
:101440009105F1F108952091E406237009F064C03C
:101450002091E50623FF14C089E290E008952091D1
:10146000E40620FD45C03091E50630FF09C024FDAB
:1014700024C083EE90E008952091E40622FDF7CF8A
:1014800008952091E40622FD44C03091E50630FD28
:1014900043C024FFF5CF11C02091E50621FFF0CF16
:1014A0008091E40684FD09C087EE90E008952091C4
:1014B000E40623FFE5CF24FFF7CF80E090E0089516
:1014C0002091E40623FD2BC03091E50631FFE1CFEA
:1014D00084EE90E008952091E40625FFD1CFBCCFA3
:1014E0002091E40625FD1EC02091E50623FFC8CF0C
:1014F00089E390E008952091E40626FFC1CF8AE2B7
:1015000090E008952091E40626FFBACF81E390E0B1
:10151000089582EE90E0089580EE90E0089586EEC2
:1015200090E0089585E390E008959091E40692FF9D
:1015300010C041E0282F2471243009F040E031E050
:10154000282F2871283009F030E0431711F02CE0E3
:10155000822793FF10C041E0282F2471243109F025
:1015600040E031E0282F2871283109F030E043179E
:1015700011F02CE082273091E50630FF10C051E0D9
:10158000282F2171213009F050E041E0282F2871E7
:10159000283009F040E0541711F029E0822731FF8C
:1015A00010C041E0282F2171213109F040E031E0E5
:1015B000282F2871283109F030E0431711F029E075
:1015C000822794FD877E08950F931F93CF93DF9317
:1015D00009DFEC01D23508F04DC0D03508F0C3C0AA
:1015E000C03ED10530F5CD3CD10508F09AC0C83ACF
:1015F000D10578F4C53AD10508F090C0C130D105C5
:1016000099F1CE010497813A910570F1C0E0D0E0E4
:101610002BC0CE01885A91094B97C0F7C85AD0E029
:10162000CC0FDD1FC756DE4F0990D881C02DD46482
:101630001BC0D03490F4D03208F0A8C0C83ED10509
:1016400098F0CE0191509F3108F78D2F6EDF082F53
:101650008C2F90E0C7DE902B54C08C2F90E0C2DE20
:10166000DF70C82FD92BD06ACE01DF91CF911F91A7
:101670000F910895C03882E5D807B8F5C03682E5E5
:10168000D80708F056C0C03482E5D807C8F4C03285
:1016900082E5D80708F047C08C2F8695869520E212
:1016A000829FC0011124C37021E030E002C0220FEC
:1016B000331FCA95E2F7E901C82BD92BDD68D4CFD7
:1016C0008C2F86958695877020E2829FC001112419
:1016D000C37021E030E002C0220F331FCA95E2F749
:1016E000E901C82BD92BDC68BFCFC03C82E5D80705
:1016F00050F48C2F8F71C03AD24580F5982F84EF2B
:10170000906AEC01B1CFCE01805C9245809708F0E1
:101710007DCFDC2FDF71C0EFD06AA6CFA497D06455
:10172000A3CFD065A1CF8C2F8F71D82FC1EFD06AF6
:101730009BCF8C2F86958695877020E2829FC00173
:101740001124C37021E030E002C0220F331FCA957C
:10175000E2F7E901C82BD92BDA6886CFE6DEC0E0D4
:10176000D82FD06281CF8C2F8F71DFDE93E0CC0F2A
:10177000DD1F9A95E1F7DF70282F84FF04C090E108
:10178000899F90011124C22FD0696ECF8D2F8F7148
:10179000CCDE082F8C2F90E025DE902BEC01E1CFE2
:1017A00080E00895F894E82FE295EF70F0E041A111
:1017B0008F7021E001C0220F8A95EAF7922F909551
:1017C000942391A392A1822F892B82A378940895C8
:1017D00081E08093060608952091D60536E0839F28
:1017E000C0011124269F800D911D1124923014F008
:1017F00080E090E080539C4F8093CE039093CF0382
:101800000895FB01E053FC4F90819817B9F0808355
:1018100085E0769567958A95E1F721E030E002C092
:10182000220F331F6A95E2F78091CC039091CD038C
:10183000822B932B8093CC039093CD0308950F9329
:101840001F93CF93DF938B0190E2899FE0011124D6
:10185000C40FD11DFE01EB5AFF4E8491D2DFFE0171
:10186000EB5AF04F8491B801605E7F4FCADFDF9181
:10187000CF911F910F9108952091D605821798F569
:10188000362F369536953695320390011124820F06
:10189000932F911D92303CF5FC01E053FC4F508199
:1018A000677021E001C0220F6A95EAF7622F4115A7
:1018B000D9F0652B6517B9F0608325E0969587957B
:1018C0002A95E1F721E030E002C0220F331F8A950C
:1018D000E2F78091CC039091CD03822B932B8093E0
:1018E000CC039093CD03089560956523E3CFADE0DD
:1018F000B0E0EDE7FCE00C944731E82EF12C9DE0E0
:10190000899F80011124085D184F8CE0E816F104CE
:1019100024F02D96E8E00C9463318DE0F8019E01EF
:101920002F5F3F4FD90101900D928A95E1F7F801A1
:1019300080858115C9F08481D82E8681C82E40E02B
:101940006281808199DF40E06C2D8D2D95DF1986B5
:101950001A861B868DE09E012F5F3F4FF901D8014B
:1019600001900D928A95E1F78FEFE81AF80A035F6C
:101970001F4FCBCF0F931F93CF93DF93A091CE0335
:10198000B091CF039D01205D3340620F731F613022
:1019900042E0740710F060E072E04091CC03509197
:1019A000CD03FC0101E010E02617370748F0409313
:1019B000CC035093CD03DF91CF911F910F910895E8
:1019C00084919D91981789F0ED018A93C901C5E032
:1019D00096958795CA95E1F7E80102C0CC0FDD1F07
:1019E0008A95E2F7CE014C2B592B2F5F3F4F319652
:1019F000DBCFCF93DF93C82F6CE083E0EDDE8EE08A
:101A0000C89FE00111246EE070E0CE018F5F904F1F
:101A1000B1DF6DE080E0E0DE62E170E08FEE9EE03D
:101A2000A9DF6DE083E0D8DE6EE070E0CE01855680
:101A3000914FA0DFDF91CF91089590913106292F2A
:101A400030E070913206A9014395437050E074175D
:101A5000150689F0215D394F60FB87F9F901848310
:101A60009F5F93709093310680912F068F5F8093D4
:101A70002F0681E0089580E0089590E06115D1F08F
:101A800087539C4FFC0180818F3F99F0E82FE295AE
:101A9000EF70F0E041A18F7021E001C0220F8A9524
:101AA000EAF7922F9095942391A392A1822F892BEC
:101AB00082A3089586539C4FE5CF90E06115A9F06D
:101AC00087539C4FFC0120812F3F91F0E22FE2953C
:101AD000EF70E05EF0E0808190E02F7002C095959D
:101AE00087952A95E2F78170089586539C4FEACF37
:101AF00080E00895FC01680F791F8FEF41E3919119
:101B0000892728E030E0982F990F87FF09C0892F97
:101B1000842721503040B9F7E617F70781F7089579
:101B2000892FF7CF382F25EB3203C001112497FFFF
:101B300004C080589109892F089580589F4FFBCF8A
:101B40008091A00680FD14C081FD14C082FD16C0E6
:101B500080919F06811581F08E3180F420E5829F6F
:101B6000C00111246EE170E00E948031862F08953B
:101B700084E1089588E2089588E0089580E5089555
:101B80008091A00680FD17C081FD17C082FD19C09D
:101B900080919E06811599F0883298F428E0829F02
:101BA000C001112468E270E00E9480316115710566
:101BB00051F0862F089562E0FCCF64E0FACF61E037
:101BC000F8CF68E0F6CF81E0089580915406811542
:101BD00071F0E0917C06F0917D06309739F001902C
:101BE000F081E02D309711F00995089580E0089577
:101BF000A3E0B0E0EEEFFDE00C944D3120914902FE
:101C000030914A0228173907B1F080934902909326
:101C10004A02E0917C06F0917D06309761F00084E5
:101C2000F185E02D309739F023E029838A839B8367
:101C3000CE01019609952396E2E00C946931A3E068
:101C4000B0E0E5E2FEE00C944D3120914702309186
:101C5000480228173907B1F0809347029093480251
:101C6000E0917C06F0917D06309761F00084F1856B
:101C7000E02D309739F024E029838A839B83CE01BD
:101C8000019609952396E2E00C94693190915C01EC
:101C9000913021F49091E40697FD0CC0EAE0F2E067
:101CA0009191891302C0DF011E9292E0E031F907A1
:101CB000B9F70895E82FE695E695E695803FC8F7D1
:101CC000F0E0E05FFD4F9DEF81FD97EF80FF959580
:101CD00082FD9295828189238283089580915B01A0
:101CE00008952FB7F8946091430270914402809157
:101CF0004502909146022FBF0895809154068115A8
:101D000039F0EFDF462F572FBC01CB01BA01089500
:101D1000E8DFDC01CB0140915606509157066091F7
:101D2000580670915906480F591F6A1F7B1FEDCF47
:101D300087E797E7809300089093010888E19AE08D
:101D40000FB6F894A895809360000FBE9093600042
:101D5000FFCFFC018091390290913A0286179707D4
:101D600048F06115710529F48091E8008E77809321
:101D7000E800CB0140E0009741F4411106C080919A
:101D8000E80082FF30C080E008952091F905211518
:101D9000B1F12530B1F12091E80023FD2EC0209152
:101DA000E80022FDECCF2091E80020FFE4CF409135
:101DB000F3002091F200342F009719F028303105FC
:101DC00058F041E02830310509F040E02091E8006A
:101DD0002E772093E800CFCF41914093F1000197F7
:101DE0002F5F3F4FE9CF8091F905811541F0853094
:101DF00041F08091E80083FFC2CF81E0089582E046
:101E0000089583E00895982F9093E900891771F061
:101E10007091EC002091ED005091F00021FD09C07F
:101E20009F5F973089F78093E9000895762F242FDC
:101E300050E03091EB003E7F3093EB003091ED00AD
:101E40003D7F3093ED003091EB0031603093EB003B
:101E50007093EC002093ED005093F0002091EE0081
:101E600027FDDECF08958091330287FF13C0809154
:101E7000E80082FF06C08091E8008B778093E8003D
:101E800008958091F9058111F2CF08958091F905A7
:101E90008115D9F38091E80080FFF8CF8091E800A8
:101EA0008E77ECCF2091E4003091E50095E6A90112
:101EB0002091EC00822F817020FF06C08091E80005
:101EC00080FF06C080E008952091E80022FD1AC03E
:101ED0008091F905811589F0853089F08091EB00BA
:101EE00085FD0FC02091E4003091E50042175307B3
:101EF000F9F29150E1F684E0089582E0089583E0DC
:101F0000089581E00895CF93DF93C8EDD0E08881F4
:101F10008F7E8883E7EDF0E080818160808384E0BC
:101F200082BF81E08093320288818E7F8883E2EED7
:101F300010821092DA00A1EEB0E01C9288818F77B7
:101F4000888388818068888388818F7D888319BC95
:101F50001092F905109231021092D90510923002B8
:101F6000A0EE8C918B7F8C9388818160888342E086
:101F700060E080E048DFA1EEB0E08C918E7F8C9332
:101F8000E2EEF0E0808181608083808188608083E0
:101F9000E0EE80818E7F8083888180618883DF91FD
:101FA000CF910895E8EDF0E080818E7F80831092DC
:101FB000E2001092DA001092E100A0EEB0E08C9105
:101FC00081608C9380818F77808319BCA7ED8C9181
:101FD0008E7F8C9380818F7E808310923202089551
:101FE000A0E0B0E0E6EFFFE00C9445317C016B012E
:101FF0005A01809137060AE010E08A3010F001E0C3
:1020000010E0C1E0D0E0B601C701F50109958111EA
:1020100015C021960C171D078CF0CC9F9001CD9F09
:10202000300D300D112480E090E045E34A95F1F742
:102030000000019682179307C1F7E5CFCDB7DEB751
:10204000EAE00C9461310F931F93CF93DF93EB0180
:102050008A019091F905943059F58093E9008FEF4A
:102060009091E80095FD06C095ED9A95F1F7000076
:102070008150B1F78091E80085FF1AC013DF81110C
:1020800012C08091E80085FD06C08091E8008E773F
:102090008093E800F3CF88818093F10001501040D5
:1020A00011F02196EECF8091E8008E778093E800C2
:1020B000DF91CF911F910F910895603229F440E292
:1020C00050E0BC0182E0BFCF0895CF93DF93EC01D5
:1020D00048E050E0BC0181E0B6DF88E0FE01ABE300
:1020E000B2E001900D928A95E1F7DF91CF910895CA
:1020F00040E250E0BC0184E0A6CF46E050E0BC01E5
:1021000084E0A1CF43E050E0BC0184E09CCF9091FB
:10211000E50692FB222720F9281771F080FB92F93F
:102120009093E5066091E4067091E50684E090E006
:102130000E947D3282E011C908951F93CF93DF93EF
:10214000122F8430E0F46A30D0F44630C0F4C42F4B
:10215000D0E0CC0FDD1F2CE0629FC00DD11D1124FB
:1021600098E7899FC00DD11D1124632FCE01899658
:102170000E946332612FCE018A960E946332DF9102
:10218000CF911F910895AF92BF92CF92DF92FF92AD
:102190000F931F93CF93DF93A12CB12C00E0650127
:1021A00010E012C0FE01259134914F2D612F802F38
:1021B000C4DF2296F3948F2D8630A1F786E0C80EF7
:1021C000D11C1F5F1A3039F0E601CC0FDD1FC55A54
:1021D000DD4FF12CE7CF0F5F8CE3A80EB11C04306C
:1021E000F1F6DF91CF911F910F91FF90DF90CF908B
:1021F000BF90AF90089580915C01813061F580912E
:10220000E40687FF28C0BFD88093110240E250E067
:102210006CE576E080E192E00E943132892BD1F0CA
:1022200080E2E0E1F2E0ACE5B6E001900D928A9543
:10223000E1F7E0917C06F0917D06309759F004803B
:10224000F581E02D309731F086E08093100280E137
:1022500092E00995089597D88093080248E050E0ED
:102260006EE776E088E092E00E943132892B91F3AC
:1022700088E0E8E0F2E0AEE7B6E001900D928A95E2
:10228000E1F7E0917C06F0917D06309719F302802A
:10229000F381E02D3097F1F288E092E0DACF8115FA
:1022A00031F09091DE06982B9093DE06A4CF08952E
:1022B000811511F08FD89FCF0895A1E0B0E0E3E63B
:1022C000F1E10C943D31A62E4A0119016801082F55
:1022D000880F110BC8010E94BB30B82E811509F47C
:1022E00065C093E0000F111F9A95E1F7F801E65ED3
:1022F000FE4F8381482F50E0811141E0065E1E4F62
:10230000F801648175816B5E794FCE0101960E9460
:102310003E32F4014080518062807380E2DCDC0157
:10232000CB0184199509A609B70984369105A10541
:10233000B10530F4B701C601DDDB99818917B1F130
:102340000A2D1A2D110F110BC8010E94BB30B82E97
:10235000811106C0B12C8B2D2196E2E10C945931EC
:1023600083E0000F111F8A95E1F7F801E65EFE4F4A
:102370008381482F50E0E816F10408F4A701065EB7
:102380001E4FF801648175816B5E794FC1010E9417
:102390003E32B701C601AEDB99818913DBCFA1DCE8
:1023A000F4016083718382839383D5CFA701B60143
:1023B000C1010E943E32CFCFA5E0B0E0E2EEF1E1F4
:1023C0000C9447316B017D0106E116E0CE010196C8
:1023D0009C0141E156E061E080E06FDF811559F03A
:1023E00095E09E012F5F3F4FF901ACE0B6E0019010
:1023F0000D929A95E1F795E0ECE0F6E0D6010190B8
:102400000D929A95E1F72596E8E00C946331A8E0E7
:10241000B0E0EDE0F2E10C9449317D010CE116E011
:10242000CE0101969C0148E056E063E082E045DF82
:10243000082F811581F190911B068091070698174E
:1024400051F110E090911F0680911E068917E9F066
:10245000E92FF0E0E75EF94F878187FB662760F997
:102460009F5F937090931F0690911D069F5F9093BE
:102470001D068F77E2DA182F8111E4CF84E090E017
:102480000E94BB301823012F02C01111F7CF809199
:102490001B0680930706802F2896E6E00C94653192
:1024A000A0E0B0E0E6E5F2E10C944531182FEB0135
:1024B000042F5901C880D980EA80FB8012DCDC013E
:1024C000CB018C199D09AE09BF0984369105A10580
:1024D000B10510F4011501F1E12EF12EFF0CFF08FA
:1024E00088E01802F0011124E65EFE4F818192819E
:1024F0008B5E994F2081422F50E0211141E0B501C0
:102500000E943E32C7010E94BB30811531F0E9DBE9
:10251000688379838A839B8381E0CDB7DEB7EAE065
:102520000C946131A1E0B0E0E8E9F2E10C944D31A6
:1025300080912A06898341E090912806981301C072
:1025400040E0CE0101969C016EEF75E086E0A8DFC9
:102550002196E2E00C946931A1E0B0E0E2EBF2E117
:102560000C944D318091DA0689832091290690E000
:1025700041E02817190609F440E0CE0101969C01BC
:102580006AEF75E087E08CDF2196E2E00C94693118
:10259000CF92DF92EF92FF921F93CF93DF9300D001
:1025A00000D0CDB7DEB7C0900206D0900306E09011
:1025B0000406F090050695DBDC01CB018C199D0922
:1025C000AE09BF0911E084369105A105B10568F196
:1025D00094DBDC01CB010296A11DB11D89839A8396
:1025E000AB83BC8380914301909144018B5E994FF2
:1025F00020914201422F50E0253008F044E09E0136
:102600002F5F3F4FB9010E943E3285E090E00E946B
:10261000BB30182F811549F064DB6093020670937C
:1026200003068093040690930506812F0F900F9068
:102630000F900F90DF91CF911F91FF90EF90DF905F
:10264000CF9008950F931F93CF93DF93843008F5B5
:102650006A30F8F44630E8F4C42FD0E0CC0FDD1F28
:102660009CE0699FC00DD11D112498E7899FC00D82
:10267000D11D1124CE0189960E944732082FCE0128
:102680008A960E944732902FDF91CF911F910F9130
:10269000089580E090E0F8CF462F7A3030F466302D
:1026A00020F4843010F4672FCDCF80E090E00895BF
:1026B000CF92DF92FF920F931F93CF93DF936C0122
:1026C0000091E2068091E106082BC3E0D0E010E023
:1026D000C8010C2E02C0959587950A94E2F780FDFB
:1026E0000CC02197A8F7F12C8F2DDF91CF911F916E
:1026F0000F91FF90DF90CF900895FC2EB6018C2FA4
:10270000CBDF0E94E40A019761F3EECF0F931F9392
:10271000CF93FC01258100811181C801211579F039
:10272000611569F0C5DFC82F682FC8010E94FD0838
:10273000B8018C2FB1DFCF911F910F9108950E94A6
:102740003309C82FF5CFCF93DF93EC01B1DFBE0182
:10275000A3DF0E94E40ADF91CF910895FC01248158
:10276000211599F080819181EEDF282F92959F703D
:10277000963099F060F4925F9F70923030F4203F71
:10278000B1F038F481E0283E38F080E008959A5F97
:10279000F3CF81E0243FC9F7089591E0213F09F08C
:1027A00090E081E0283E08F080E0892B089581E0E8
:1027B0000895673F21E072078105910528F4CB0158
:1027C000875F9D4F0C94473280E00895CF92DF924F
:1027D000EF92FF92CF93DF93EC01C880D980EA801B
:1027E000FB80B601C701E5DF9FEFC91AD90AE90AE4
:1027F000F90AC882D982EA82FB82DF91CF91FF90E9
:10280000EF90DF90CF90089585E290E00E944732EC
:10281000853269F486E290E00E944732823139F4D1
:1028200087E290E00E94473291E0863009F090E024
:10283000892F81700895AB0124E630E0BC0188E760
:102840000E94DB2E9C0181E0232B09F080E008959B
:102850008091D1058115E9F044DADC01CB01805A81
:102860009541AF4FBF4F8093D2059093D305A0936E
:10287000D405B093D5058091DA0681110AC062E0D3
:1028800070E087E898E0D7DF811519F081E0809348
:10289000DA0608958091D105811561F08091DA06FC
:1028A000811541F062E070E085E898E0C4DF8111B5
:1028B0001092DA060895CF93DF93682F81E06A3093
:1028C00019F06D3029F480E072D0DF91CF91089536
:1028D0008091CE039091CF0326E0FC01A3ECB3E0FE
:1028E00001900D922A95E1F726E0603E08F455C06C
:1028F000FC0111922A95E9F7C091CE03D091CF0344
:1029000046E050E0BE0183EC93E00E9431329E012C
:10291000205D3340892B41F1C90145E096958795AB
:102920004A95E1F741E050E0BA0102C0660F771F17
:102930008A95E2F7CB016091CC037091CD03862B91
:10294000972BB9016B5F7F4FE5E076956795EA9528
:10295000E1F702C0440F551F6A95E2F7842B952BCF
:102960008093CC039093CD032A5F3F4F4091D605CF
:10297000642F70E0C9010E942931481B463010F4D1
:10298000240F311D323010F020E030E020533C4F56
:102990002093CE033093CF0398CF629FB0011124D0
:1029A0006757774F46E050E00E94F531A5CFCF93AF
:1029B000382FE091CE03F091CF03E05DF3402091FA
:1029C000D605622F70E0CF010E942931281B822F8B
:1029D000311561F066E00E947431C82FC11102C048
:1029E000CF910895C15080E266DFF8CF8E0F9F2F00
:1029F000911D923010F080E090E080539C4F8093C6
:102A0000CE039093CF03ECCFCF93DF93EC01FE0185
:102A10008491811103C0DF91CF9108954CDF2196FD
:102A2000F6CFF2DF81E0C3CF0F931F93CF93DF93F5
:102A3000EC01FC0101900020E9F78F010150110920
:102A4000C017D10728F0DF91CF911F910F91089502
:102A5000899131DFF5CFA0E1B0E0E1E3F5E10C943D
:102A60003F31FE013196DF0180E11D928A95E9F741
:102A700000E210E099E0A92E92E0B92E612C712CB1
:102A8000230153944A189E2E8F2E6201730181E117
:102A900048165104610471041CF080E1C82ED12C49
:102AA000A601B501892D982D0E945432AC0CBD1C95
:102AB0000D2C000C00084C185D08600870080150CF
:102AC000104019F76096E0E10C945B316FEF85E2FE
:102AD00090E00E9463326FEF86E290E00E946332E2
:102AE0006FEF87E290E00E94633260E088E290E05E
:102AF0000E94633248DBAFDF65E285E290E00E942E
:102B0000633262E186E290E00E94633266E087E22F
:102B100090E00C9463321F921FB61F9211248F9382
:102B20009F93AF93BF938091D805811113C080917B
:102B3000430290914402A0914502B0914602419611
:102B4000A11DB11D8093430290934402A0934502BE
:102B5000B0934602BF91AF919F918F911F901FBE7E
:102B60001F9018952FB7F8948091430290914402DA
:102B7000A0914502B09146022FBF0895CF93DF93F5
:102B8000EC01F0DF8C1B9D0BDF91CF910895AFE03E
:102B9000B0E0EDECF5E10C944431FE013196DF013B
:102BA0008AE01D928A95E9F78EE8C82E81E0D82E3A
:102BB0007F01AE2E9F2C09E911E0F60181916F0192
:102BC0008F3F09F43DC0F894E82FE295EF70F0E0F4
:102BD00021A18F7041E001C0440F8A95EAF7922F3E
:102BE000942B91A392A1842F8095892382A378941A
:102BF00000C0E3E9F1E031E0B12C21912F3F79F001
:102C0000A22FA295AF70A05EB0E08C9190E02F70E3
:102C100002C0959587952A95E2F780FF8EC080E0E7
:102C2000B82A330F0E171F0741F7F60182918F3F25
:102C300011F00E94D20B80EA8A95F1F7F701B08279
:102C40008FEFE81AF80A83E9C81681E0D80609F080
:102C5000B4CF4AE050E06A2D792D8AE496E00E94D4
:102C60003132009749F02AE0EA2DF92DAAE4B6E0C6
:102C700001900D922A95E1F70091490610E0015C60
:102C8000194F892B09F45BC081E080933E066ADF0F
:102C900080933C0690933D0680915406811509F47B
:102CA000A5C07E018BE0E80EF11CF70185E01192D2
:102CB0008A95E9F7809137068A3008F063C04CEDB9
:102CC00051E1B701C8018CD9811509F47EC047E0F4
:102CD00052E1B701C80184D9811509F476C048ECE6
:102CE00052E1B701C8017CD9811509F46EC042E9EF
:102CF00052E1B701C80174D9811509F466C04CEAE4
:102D000052E1B701C8016CD9811509F45EC0109277
:102D1000370680913B0690E045E050E0B701815CCA
:102D2000994F0E94313221E020933A06892B09F015
:102D30003FC02F96EBE00C946031832F71CF8091D0
:102D40003E06811509F4A8CFE0903C06F0903D06C0
:102D500009DF8E199F09059708F49ECF45E050E0E2
:102D60006AE476E0C8010E943132892B41F085E0A7
:102D7000EAE4F6E0D80101900D928A95E1F710920D
:102D80003E068ACFC0903806D0903906EBDE8C190B
:102D90009D09843F914008F092CF80913A068115B9
:102DA00041F2F70185E011928A95E9F710923A060F
:102DB000A0913B06B0E0A15CB94F85E0FE013B96D7
:102DC00001900D928A95E1F7B4CF809137068F3F3D
:102DD00031F4C8DE8093380690933906DECF8F5FDA
:102DE000809337068A3008F494CFF3CF85E0F8015A
:102DF000A6E1B6E001900D928A95E1F765E070E0FA
:102E000086E196E00E947A0D8093150688E0EFE255
:102E1000F6E0ACE1B6E001900D928A95E1F768E04A
:102E200070E08CE196E00E947A0D80931B06C090C2
:102E30002406D0902506E0902606F0902706809183
:102E40002B0690912C06A0912D06B0912E06C81647
:102E5000D906EA06FB06B1F0C0922B06D0922C06EA
:102E6000E0922D06F0922E060E94710EC61AD70A25
:102E7000E80AF90AC0925606D0925706E092580620
:102E8000F09259068091280680932A06809129069F
:102E9000811511F0DDDC4DCFFDDC4BCFA9E0B0E0BA
:102EA000E4E5F7E10C943D318091D105811509F4F9
:102EB00079C10091C1031091C20354DE801B910BB4
:102EC000C29708F48FC04EDE8093C1039093C20373
:102ED00060E080E00E94EC0B8091CB03811509F447
:102EE000A0C182E898E090DD8091E2060E94CA08C5
:102EF000823009F463C108F059C181115CC180E8D6
:102F000098E08FDD85E798E07FDD8091E40687FF1C
:102F10005BC182E798E085DD8BE698E075DD809106
:102F20002A064AE09E012F5F3F4FB90190E00E94C0
:102F3000FE31CE01019678DD81E039DD0E94E50D9C
:102F40008093A003C0909C03D0909D03E0909E03CB
:102F5000F0909F030E94710EDC01CB018C199D093A
:102F6000AE09BF09893C9105A105B105D8F10E94C0
:102F7000710E60939C0370939D0380939E039093C6
:102F80009F0380912A0680939A0310929B0380915D
:102F9000DB06811104C080915E01811118C16FE0D0
:102FA00080E00E94EC0B8FE591E03EDD6CE080E07C
:102FB0000E94EC0B81E080935E018091990390E088
:102FC0008395817090E0809399038A95807690E054
:102FD0002091A00321FF07C160E670E08555984F5E
:102FE0000E94BA0C8091CC039091CD03892B09F4F7
:102FF000BFC08091D105811509F4BAC08091D00578
:103000008111B6C025DC8091CC039091CD0300974F
:1030100009F4AEC080FBEE24E0F8F12C10E080FD56
:1030200010C041E050E0212F2F5F122F7A0102C023
:10303000EE0CFF1C2A95E2F7970128233923232B56
:1030400091F38091D70580FF4EC3912F990F990F6F
:10305000990F392F395F80E023E090930701809327
:103060000A013093080120930B0124E630E047E089
:1030700050E065E071E088E70E94802E892B09F01E
:1030800077C080E2189FA00111248091D70580FFAE
:103090003CC3E1EAF3E080E211928A95E9F738E770
:1030A000232E31E0332E64E7C62E61E0D62E6CE786
:1030B00071E0D101ED911D01D6010D916D01040F5B
:1030C000152F111DF0E0EF55FC4F80E090E027E058
:1030D000622E681A77247394082E01C0770C0A9424
:1030E000EAF7980120533C4F5901912CD5012D91BD
:1030F0005D012721B22F262D2919277030E0AB2F33
:10310000022E01C0AA0F0A94EAF78A2E3195219562
:10311000310927703327AB2F01C0A6952A95EAF70E
:103120008A2A2081822A80829394292D2830F1F6E0
:10313000019631968830910551F66215730509F0B4
:10314000B8CF04E610E020E241EA53E060E488E70B
:103150000E94382F892B61F4E094F0948091CC0385
:103160009091CD03E822F922E092CC03F092CD03B6
:103170008091DA068115B1F00E94710E0091D2059E
:103180001091D3052091D4053091D505DC01CB01F8
:10319000801B910BA20BB30B8F3F9F4FAF4FBF47CD
:1031A00008F478DB2996E2E10C945931833049F038
:1031B00088E798E0A6CE8EE798E0A3CE8CE798E06B
:1031C000A0CE8AE798E09DCE8EE698E0A4CE6CE093
:1031D00080E00E94EC0B8FE591E026DC6DE080E062
:1031E0000E94EC0BEACE2091DC06211529F060E666
:1031F00070E08551994FF4CE20919A0330919B0352
:1032000060E670E02B3031051CF4855D994FE8CE07
:10321000293231051CF485599A4FE2CE85559B4FD2
:10322000DFCEC0909503D0909603E0909703F09086
:1032300098030E94710EDC01CB018C199D09AE0927
:10324000BF094F97A105B10508F4CCCE0E94710EBD
:1032500060939503709396038093970390939803DC
:1032600000912A0610E0009393031092940380913A
:103270009203811107C081E090914B02911180E08F
:1032800080934B028091DD06F82E811104C0043139
:1032900011050CF09DC080E00E94F90CF11018C0DF
:1032A00080914C0281110CC0E8E2F7E084EC97E0D9
:1032B00010863D968E179F07D9F781E080934C02C8
:1032C000C8010996439708F099C080E00E94770CE6
:1032D0008091920364E10E94743191116FC18091D9
:1032E0008D03811509F426C18DE4482E82E0582E05
:1032F00097E0692E712C812C912C6201E7E0AE2EB3
:10330000B12CF6018481382E811509F447C0E08084
:10331000F180028113810E94E73164E670E00E942F
:1033200080314896C197A0F540E0602F8E2D0E9415
:103330003C0CC5010797E816F90609F05FC1750155
:1033400086E0E81AF108C401880F991F08171907C9
:1033500009F05CC10F5F1F4F0E94E73163E070E02E
:103360000E948031019708F058C181E0E81AF10805
:103370000E94E73163E070E00E948031019708F01D
:1033800052C10150110941E0602F8E2D0E943C0C6A
:10339000F601E082F18202831383348285E0C80E55
:1033A000D11C88E0A80EB11C87E2A816B10409F070
:1033B000A8CF84E1480E511C84E0880E911C88E05F
:1033C000680E711C80E48816910409F096CFF6C04F
:1033D00080914B029801245131092431310520F4A8
:1033E0008F5F0E94F90C5CCF98012852310924317B
:1033F000310510F48E5FF5CF8C5FF3CFC8016AE022
:1034000070E00E9480316F8378876D3071051CF009
:103410008CE08F83188608E217E0212C312CF8010C
:10342000C080D180E280F380848095804680578080
:10343000A184B2846384748481E1A816B10444F148
:1034400040E06E2D8C2D0E943C0C40E0642D882DB8
:103450000E943C0CA12CB12C1986F801C082D182AB
:10346000E282F382848295824682578289858087B0
:10347000A186B286638674868FEF281A380A035FA6
:103480001F4F8F819885281639064CF28F811ECFE9
:1034900080858987811123C00E94E73160E170E057
:1034A0000E9480316C010E94E73160E570E00E946B
:1034B00080317C0146018FEF881A980A27018FEF2F
:1034C000481A580A8FEFA81AB80A0E94E7316CE030
:1034D00070E00E9480313C0181E08987BECF611499
:1034E000710421F540E06E2D8C2D0E943C0C40E0D3
:1034F000642D882D0E943C0C8FEFC81AD80A8FEFDC
:10350000E81AF80A8FEF881A980A8FEF481A580AB3
:103510008FEFA81AB80A41E06E2D8C2D0E943C0C4A
:1035200041E0642D882D0E943C0C97CF81E0681A01
:10353000710893CFBDE48B2EB2E09B2EC12CD12C11
:103540008401E12CF12C0E94E7316AE070E00E94D6
:1035500080313C010E94E7316AE070E00E948031D6
:10356000262D282B283008F046C06E0C7F1C5601F3
:10357000AA0CBB1CA80EB91E41E06A2D862D0E9424
:103580003C0CF80160827182A282B38281E0848364
:1035900088E0E80EF11C0B5F1F4F80E2E816F10493
:1035A00091F684E0C80ED11C84E1880E911C80E461
:1035B000C816D10429F681E080938D03F090920320
:1035C0008F2D64E10E947431911591F180919003E7
:1035D0008F5F843608F06BC0809390031092910344
:1035E000811509F468C08F2D8F5F843108F080E069
:1035F00080939203F7CCF8011482CACFEA14FB043B
:1036000009F0A1CE81E0E81AF1089DCE0615170554
:1036100009F0A2CE015011099FCE09F0A9CE8FEF7B
:10362000E81AF80AA5CE09F0AECE0F5F1F4FABCE59
:10363000409104014150403208F04FE140930401B1
:1036400080918E038F5F833008F080E080938E033B
:10365000E42E00EC11E08D5FD82E8091DD06B801DC
:10366000811107C080919303909194038531910556
:103670009CF480E00E941F0C0F5F1F4F003E81E012
:10368000180709F4A3CF8E2D8F5F4E2D4F51803236
:1036900008F4482FE82EE1CF8932910514F481E037
:1036A000E9CFCD9714F482E0E5CF8D2DE3CF1092D2
:1036B00090031092910380918F038F5F182F8E30AB
:1036C00008F010E010938F0364E084E00E94EC0B9C
:1036D00028E0129FC001112468E070E0855C9B4FD8
:1036E0000E94BA0C80CF20E2129FC0011124880FE3
:1036F000492F441F550B5195242F912F9295990FC7
:103700009076392F315E842FA8CC40535C4F04E66D
:1037100010E020E230E01ACD25DA9C019091A3065A
:103720008091A406982B21F02093F6053093F7059D
:103730009091A5068091A606982B21F02093F40580
:103740003093F505E0917C06F0917D06309759F0B5
:103750000680F781E02D309731F082E08093A1065A
:1037600081EA96E009950895611509F448C0E82FAB
:10377000ED5CE33150F4F0E0E051FD4C0C949331FA
:103780000E94A00D81958093A406C6CF0E94A00D33
:10379000FACF0E94A00D81958093A306F6CF0E94D8
:1037A000A00DFACF0E94C00D8093A506EECF0E9417
:1037B000C00D8195F9CF0E94C00D81958093A6061A
:1037C000E4CF0E94C00DFACF815D990B21E001C0CA
:1037D000220F8A95EAF78091A206822B8093A20697
:1037E000D4CF8091A00681608093A006CECF809137
:1037F000A0068260F9CF8091A0068460F5CF409149
:10380000A3068D3C59F48091A40687FF0DC0109249
:10381000A406411559F410929F0608C08E3C81F40D
:103820008091A40618169CF3411581F08091A5069D
:103830009091A606892B09F0A8CF10929E06A5CFDD
:103840008F3C41F447FFF0CF1092A3068091A4066D
:103850008115E0CF803D19F41416B4F3E5CF9091B3
:10386000A506893D29F41916FCF61092A506DCCFB1
:103870008A3D19F497FFD8CFF8CF9091A6068B3DDB
:1038800029F497FFD1CF1092A606CECF8C3D19F424
:103890001916CCF3C9CF982F915D983078F4815DDB
:1038A000990B21E001C0220F8A95EAF7822F8095BB
:1038B0009091A20689238093A206B6CF8D3D31F464
:1038C0008091A0068E7F8093A006AECF8E3D21F41E
:1038D0008091A0068D7FF7CF8F3D09F0A5CF809115
:1038E000A0068B7FF0CFCF93C82F811509F463C05A
:1038F0008450813A08F061C080915C01813041F1CF
:10390000EAE0F2E080E192E02081C217C1F1319655
:103910008E179F07C9F780915C018130B1F1AAE051
:10392000B2E0EFEF80E09C91C91709F442C0119614
:10393000EF3F19F4911101C0E82F8F5F863099F79E
:10394000EF3FB9F1FE2FFF0FFF0BE85FFD4F30C0D7
:103950008091E40687FFD4CFEC2FE695E695E695B7
:10396000F0E0E05FFD4F828190E04C2F477021E056
:1039700001C0220F4A95EAF78223892B31F08C2F60
:103980000E94460E0E94FB10C6CF8091E40687FF7E
:10399000C6CFEC2FE695E695E695F0E0E05FFD4FAB
:1039A000C77081E001C0880FCA95EAF7C281C82BB1
:1039B000C2830E94FB10CF9108958C2F805E8830C7
:1039C00060F4C77081E001C0880FCA95EAF7C09122
:1039D000DE06C82BC093DE06ECCF8C2F855A8330D1
:1039E00030F48C2F8452990B0E94F80DE4CFEC2F09
:1039F000E85AEB3150F4F0E0EE0FFF1FE153FE4FB9
:103A0000808191810E941F0ED6CF8C2F8D5C8331D7
:103A100090F661E08C2FA8DECECF811569F1982F4A
:103A20009450913A20F40E94460E0C94FB10982F6B
:103A3000905E983058F4982F81E091FD84E090FDDD
:103A4000880F92FD82950E94EA09EFCF982F955A30
:103A5000933020F480E090E00C94F80D982F985A61
:103A60009B3120F480E090E00C941F0E982F9D5C19
:103A7000933110F460E078CE08951F93CF93DF93D5
:103A8000182FEB0130DF209731F4812FC6DFDF9153
:103A9000CF911F9108958FE99FE00197F1F700C042
:103AA00000002197F0CF80E09091320620913106FE
:103AB000291731F1E92FF0E0ED5CF94F8081282FD3
:103AC0002F779F5F937090933206909130069F5F9F
:103AD00090933006211541F0213061F460E070E0F0
:103AE00087FF0CC082E505C06AE070E087FF04C074
:103AF00089EAC3DF81E0D8CF8AEAFBCF81E5F9CF3D
:103B000008951092DE0680915C01813019F5809154
:103B1000E40687FF1FC0E2E1F2E08EE111928A9590
:103B2000E9F780E090E00E94F80D80E090E00E94CC
:103B30001F0E1092E6060E94FB10E1EAF6E086E016
:103B400011928A95E9F710929F0610929E061092A4
:103B5000A006E2CDEAE0F2E086E0E0CFD2DF8FEF30
:103B600094E32CE0815090402040E1F700C0000039
:103B700088E19AE00FB6F894A895809360000FBE94
:103B800090936000FFCFA4E0B0E0E9ECFDE10C947D
:103B900042316C01FC018481811509F466C061E049
:103BA000C6010E948613F60125812115C1F1AC01E1
:103BB00051505F3480F5482F50E0BA0164507109CC
:103BC0006432710528F04B5251094E30510588F48A
:103BD000E091D906F0E0EE0FFF1FE955F94F408163
:103BE00051814F3F3FE7530721F04F5F5F4F4083C5
:103BF0005183843E910509F07CC331E03093DD06AA
:103C00003093DC0688373CE7930709F08BC082E0ED
:103C10002115A9F05BC3911161C3AC01CECF843EE5
:103C2000910551F178F48C32910509F495C0803EEC
:103C3000910511F187373CE7930721F781E00E9456
:103C4000F20846C380343EE79307A1F78091E3066C
:103C5000877059F0F6018581811539F08091E5066C
:103C600082FF03C082E00E94AD092496EDE00C942F
:103C70005E310E944A14EACF1092DD061092DC06F3
:103C8000F60100811181C801211509F437C10E9494
:103C90005813F82E682FC8010E94FD08B8018F2D17
:103CA0000E944C130E94E40A182FA92EF601E58009
:103CB000F680F2948FE0F8228091E306877001F19C
:103CC000BE2CE114F1F0892F807F803461F0812FC8
:103CD000805E8830A8F0892F807E803221F41230F7
:103CE00078F0F11469F08091E50682FF09C082E066
:103CF0000E94AD098091E3068770BB24B3948111C3
:103D0000B12CEA2DE295EF708A2D803C08F057C166
:103D1000F0E0ED5FFC4C0C94933131E03093DB0626
:103D200010925E01AC01405E52454032510508F0F0
:103D3000AAC02111BBC08F7101E010E002C0000FCA
:103D4000111F8A95E2F7602F83E090E00E946332B2
:103D5000802F0E94DC087ACF1092DB06E3CF87EF3A
:103D6000881681E09806A104B10409F46FCFB4016C
:103D7000C5010E94D9139FEF891A990AA90AB90AA5
:103D80008111EDCF1150D2C2823029F4C8010E94B6
:103D9000E613A9DDD4C2833029F4C8010E94E613DA
:103DA0003CDECDC2843071F4C8010E94E613E12CE0
:103DB000F12C282F2053330B2A30310530F0E11439
:103DC000F10489F48111BBC241CF4AE04E9DC0018C
:103DD0004F9D900D1124280F391F79018B2D9A2D9D
:103DE0000E94E613E6CFEFE9FFE03197F1F700C05C
:103DF000000091E0E91AF108E2CFE82FF0E0E55E7B
:103E0000F14F9491792E282F26952695269530E00E
:103E1000F901E55FF14FE4908770F12C082E02C0A4
:103E2000F594E7940A94E2F7F901E550F24FA49073
:103E3000B12C082E02C0B594A7940A94E2F725513C
:103E4000324FF9018490912C02C0959487948A9501
:103E5000E2F7E0FE02C081EE46DDA0FE02C086EE83
:103E600042DD60E070E0872D08DEA0FE02C086EE35
:103E7000D4DDE0FE02C081EED0DD80FE60C260E0F5
:103E800070E08CE275C2211509F4FACE8B353CE75F
:103E9000930759F18C353CE79307E1F08A353CE70D
:103EA000930709F181303CE7930739F183303CE710
:103EB0009307E9F081159C4709F0E2CE22DE8FEFEF
:103EC00094E32CE0815090402040E1F700C00000D6
:103ED0000E94980E8091E506002482FF0394802DB5
:103EE0000E948710B3CE81E0FBCF80E0F9CF6FEF67
:103EF0007FEF80E090E00E947D3230DE0E94330947
:103F0000F82ECCCE0A2D0F70803110F00295007F74
:103F1000E114B9F0011569F0812F805E883010F04E
:103F2000111109C08091DE06802B8093DE060E946D
:103F3000FB10812F3EC08091E606802B8093E60621
:103F4000F6CF812F6ADD0115D1F1812F805E883097
:103F500010F0111104C0802F0E94EA0906C00095DC
:103F60008091E60680238093E6060E94FB1027C01E
:103F70000A2D0F70807F803211F00295007F113082
:103F800040F009F463C0E11409F46EC0F11499F132
:103F9000D0CF8091E50682FD2AC0E11461F00115C1
:103FA00039F08091DE06802B8093DE060E94FB10A4
:103FB00080E099DC04C080E030DD0111CCCFB11489
:103FC00009F4AFC08091E30680FDABC0F601158215
:103FD0008695869586950E94E908C601D4DD809174
:103FE000E3068695869586950E94F2089AC0E114AC
:103FF00099F0F11004C0802F0E944F11E0CF8F2D57
:104000008130E9F68091DF06902F98230917B9F2E5
:10401000802B8093DF06D3CFF110D1CF802F0E9469
:1040200058119091DF06802F892329F0802F8095E9
:1040300089238093DF068091E006902F982309F46E
:10404000BECF009508230093E006B9CF8F2DE11471
:1040500021F0863008F0B3CFCECF853008F0AFCF57
:10406000802F0E945811ABCFF114D1F3193349F4CA
:104070008FEF97EE23E0815090402040E1F700C0A1
:104080000000812FCADC9BCF869586958370813096
:1040900060F009F094CF812F9A2D9370E11002C047
:1040A00080E090E00E941F0E8ACF812F9A2D93709E
:1040B000E11002C080E090E00E94F80D80CF6E2DEC
:1040C000812F52DB7CCF8370E1F5E11028C0812F76
:1040D000829586958770880F880F412F4F70082E24
:1040E00001C0440F0A94EAF7212F207114FF06C083
:1040F0002FE001C0220F8A95EAF720958A2D869538
:1041000086958370982F8230A1F08330B9F080912A
:10411000E106913059F0242B82230E94DC080E9492
:10412000E50D60E0C6010E9486139FCD842B822B93
:10413000F4CF242B8091E1068227EFCF822F842BAE
:10414000ECCFE11459F1A0FEEACF812F829586953C
:104150008770880F880F412F4F70082E01C0440FC1
:104160000A94EAF7212F207114FF06C02FE001C046
:10417000220F8A95EAF720958A2D86958695837079
:10418000982F823091F08330A9F08091E20691302F
:1041900049F0242B82230E94DF08C1CF823008F42B
:1041A000BECFD3CF842B822BF6CF242B8091E20677
:1041B0008227F1CF822F842BEECF8F70082FE1144E
:1041C00031F00E94E908812F0E944F11A8CF812F62
:1041D0000E945811802F0E94F208A1CF123F79F15E
:1041E00068F4103FC1F0113F89F0E11409F455C0A3
:1041F000F11409F44FC0812F76DB91CF133F29F1E1
:10420000143F99F79091E50692FD2CC08A2D8F718D
:10421000E11409F317C08F2DE11479F0853008F00F
:104220007ECF8A2D8F71282F81E001C0880F2A95BB
:10423000EAF79091E2068927AECF8630F0CF8F71F2
:10424000E110C9CF0E94E9086ACF80E0E11409F4C7
:10425000A2CF8A2D8F71982F81E001C0880F9A9587
:10426000EAF799CFE11459F08F7192FFEBCF982FB5
:10427000990F990F990F93609093E306E3CF81E034
:104280000E94AD098F2D823008F449CF82E00E9450
:10429000AD0945CF8A2D8F71D5CFF11471F0193347
:1042A00049F48FEF97EE23E0815090402040E1F7F2
:1042B00000C00000812FB1DB32CF8A2D8F718BCFF0
:1042C00087373CE7930709F09DCC81E00E94E9081D
:1042D00043E062E081E00E946609B8CC80343EE7AA
:1042E000930781F48091DA068111C3CC0E942814CF
:1042F000ADCC40F48C32910509F40FCD803E910590
:1043000009F47BCCAC01575740385105C8F6182F3B
:10431000803108F09BCC66EF71E080E090E00E9475
:10432000D913811193CCA12CB12C4501111117CDBA
:1043300089829A82AB82BC828E010F5F1F4FC801B7
:104340000E94E613B02EA12E813008F47FCC09F034
:1043500054CDC8010E94E613813009F015CDC80183
:104360000E94E61360E570E0893311F060E070E0D0
:1043700084DBE5CF80912707803170F48091260798
:10438000811551F0E091E8062091E706309122076F
:10439000409121072E1301C00895BF0187E0E89FD7
:1043A000F0011124DF01A751B94F14968C91149795
:1043B000811551F111968C911197831325C08C9121
:1043C000841322C015968C91159781111DC01296E9
:1043D0008D919D91A0912307B09124078A1B9B0B7F
:1043E0008436910588F4809127078F7080618093CF
:1043F0002707E151F94F80818F708061808381E2CE
:1044000097E0C1DB0C94A3096F5F7F4FFB01E7705E
:10441000C1CFADE0B0E0EFE0F2E20C9442318C01AC
:1044200086E0F801DE01189601900D928A95E1F779
:10443000F801F580848191E2892E97E0992E7090A1
:104440002507711017C0811591F0F11409F4F9C016
:10445000C8010E94AE13811509F4F3C087E0F8018A
:10446000A1E2B7E001900D928A95E1F783DFFF2486
:10447000F39455C0D080A280B380C09026072091CD
:10448000230730912407A501421B530BC11409F4E3
:10449000BBC04436510508F076C0811541F38091C8
:1044A00022079180E09027079E2D903108F057C099
:1044B000981214C0809121078D1110C0F11049C0CD
:1044C0008E2D8F7080618093270781E297E05BDB00
:1044D00080912707F8018683F12C21C0F11039C0A3
:1044E00040E0692D8D2D0E94840940E0692D8D2DBD
:1044F0000E948409F82E8111EFCF888599850E944A
:10450000A313292F22952F70903470F49F702230BE
:1045100098F09115A9F0F8019681903188F48F2DCB
:104520002D96EDE00C945E312A5F2F70223060F002
:10453000C80129DBFC2CF3CF911511F0811579F31B
:10454000805E883060F3F4CF803F48F3815F833032
:10455000F9CF80912707816080932707BDCF9812FC
:1045600037C0809121078D1133C0F11031C0E68230
:10457000C80109DB87E0F801A1E2B7E001900D92E4
:104580008A95E1F774CFE09027079E2D903148F48B
:1045900081E297E0F8DAF40187E011928A95E9F771
:1045A0009BCF811509F463CF9091220781819813E5
:1045B0000FC0809121078D110BC0F11009C0E68258
:1045C000C801E1DAF40187E011928A95E9F74FCF4B
:1045D000C8010E94AE138115A1F1F11491F18E2D45
:1045E000803208F43BCF8091210790912207898384
:1045F0009A83AB82BC827D821E82809127078F8343
:10460000CE010196C0DA2ACF4436510520F6811535
:1046100009F42DCFF114A9F090912207818198130C
:1046200006C0809121078D1102C087E0A5CFC80187
:104630000E94AE13811112CF809127078160809371
:104640002707C801A0DA13CFABE1B0E0EAE2F3E25A
:104650000C944B314E8B5F8B688F798F8A8F192F1B
:104660009B8F91111092E6061D8A86E0FE017696D8
:10467000DE011F9601900D928A95E1F70A8D0115D2
:1046800061F00B8B1C8B61E0CE010F960E948613AC
:1046900061E0CE010F960E9486130B8B1C8B87E086
:1046A000FE013F96DE01189601900D928A95E1F782
:1046B000CE010896AEDE81112EC02091E706309122
:1046C000E80687E0AE01485F5F4FFA0147505109A5
:1046D000DA0101900D928A95E1F78C858115D9F068
:1046E000822F90E08395877090E0AC013417150617
:1046F000E1F097E0929FD0011124A751B94F9E019C
:104700002F5F3F4FF90101900D929A95E1F7409389
:10471000E7060E94A3098091E8069091E7068913B5
:1047200010C06B96E4E00C946731EBD91092E70669
:104730001092E806E1E2F7E087E011928A95E9F746
:10474000EACF27E0829FC00111248751994F61DE93
:10475000811539F38091E8069091E90601968770FA
:104760008093E806D8CFA6E0B0E0E9EBF3E20C9442
:104770004B310E94B2158C0180915A0690915B06D4
:104780008017910771F019821A820E94B215BC013C
:1047900049815A8180E090E057DF00935A061093D8
:1047A0005B062696E4E00C946731AAE2B0E0EBEDFC
:1047B000F3E20C944C3183E392E0FC0101962091EA
:1047C000F100208322E08B339207B9F78091340205
:1047D000893009F459C0C8F4823009F4B7C0833075
:1047E00009F486C0813089F18091E80083FFEBC035
:1047F00080913302909134029A3008F0E4C0E92F9E
:10480000F0E0E15FFC4C0C9493318A3009F48DC0E8
:104810008B3051F780913302813231F7809137022A
:1048200090913802892B01F78091E800877F80936F
:10483000E8000E94330F81E090913502911101C090
:1048400080E080935C015DD9CFCF80913302813AC3
:1048500059F68091E800877F8093E80080913702C5
:1048600090913802892B61F060E080E090E070E088
:104870000E94A90E8091E8008B778093E800B4CF66
:1048800068E08BE392E0F3CF80913302813209F04C
:10489000ABCF80913702909138028D7F892B09F040
:1048A000A3CF8091E800877F8093E8008091E800A3
:1048B00082FF19C02091F3008091F200922F02979D
:1048C00031F48091F100813011F0863021F4809133
:1048D000F10080935B018091E8008B778093E80082
:1048E0000E94330F81CF8091F9058111DFCF7CCFFA
:1048F00080913302813A09F077CF8091370290910D
:104900003802892B09F070CF8091E800877F80936F
:10491000E8008091E80080FFFCCF80915C018093EB
:10492000F1008091E8008E77D9CF809133028132F7
:1049300009F05ACF8091E800877F8093E8000E94B9
:10494000330F8091360280935A014ECF809133020B
:10495000813A09F049CF8091E800877F8093E80091
:104960008091E80080FFFCCF80915A01D8CF803839
:1049700089F0823841F5809137028F70873018F5C1
:104980008093E9008091EB0085FB882780F91092E5
:10499000E90006C08091D905880F90913002892BDB
:1049A0009091E800977F9093E8008093F100109237
:1049B000F1008091E8008E7723C0811116C08091AC
:1049C0003502813011F18091E80083FF0AC08091A7
:1049D000E800877F8093E8008091EB0080628093FD
:1049E000EB00AA96E3E00C946831823061F7809185
:1049F0003502811581F01092E9008091E800877FEF
:104A00008093E8000E94330FDECF933009F080E0FE
:104A10008093D905F0CF809137028F70282F2150D5
:104A2000263088F68093E9002091EB0020FFE3CF49
:104A3000933031F48091EB0080628093EB00DBCF08
:104A40009091EB0090619093EB0021E001C0220F68
:104A50008A95EAF72093EA001092EA008091EB0031
:104A60008860EBCF8111AFCF809135028F77182FFF
:104A70008091E3008078812B8093E3008091E800AF
:104A8000877F8093E8000E94330F8091E80080FFC9
:104A9000FCCF8091E30080688093E30083E01111F4
:104AA00001C082E08093F9058ECF8058823008F0F3
:104AB0008ACF80913502909136028C3D23E0920797
:104AC00091F583E08A838AE289834FB7F894DE0107
:104AD000139620E03EE051E2E32FF0E050935700C0
:104AE000849120FF03C082958F703F5F8F708A3062
:104AF000C0F0895C8D931D922F5F243169F74FBF01
:104B00008091E800877F8093E8006AE270E0CE0140
:104B100001960E94A90E8091E8008B778093E800AF
:104B200052CF805DE7CF292F30E02330310509F4E3
:104B30004EC078F52130310509F47DC08BE590E059
:104B4000E8ECF1E02230310509F03DCF2091E8009A
:104B5000277F2093E8002091390230913A02821792
:104B6000930708F49C0140E02115310509F068C065
:104B7000411166C08091E80082FDCDCF8091F9059A
:104B8000811549F2853039F28091E80083FFF2CF38
:104B9000C2CF80913702909138022132310509F459
:104BA0003BC02232310509F00ECF8330910508F069
:104BB0000ACFFC01EE0FFF1FE859FE4F0190F08174
:104BC000E02D8B599E4FDC018C9190E011C0282F75
:104BD00030E0813089F022303105B1F0232B09F02B
:104BE000F2CEE7E5F2E0E4918E2F90E0E7E5F2E027
:104BF000009709F4E8CEAACFE5E4F2E0E4918E2F25
:104C000090E0E5E4F2E0F4CFE5E3F2E0E4918E2F0A
:104C100090E0E5E3F2E0ECCF8330910508F0D3CEED
:104C2000880F991FFC01E259FE4F0190F081E02DA1
:104C300089E090E08BCF82E190E0E3E2F2E086CF82
:104C40008091F905811509F466CF853009F463CFA9
:104C50008091E80083FD5FCF8091E80082FD8ACFDC
:104C60008091E80080FF80CF4091F3008091F200B6
:104C7000942F2115310519F08830910550F041E04D
:104C8000089709F040E08091E8008E778093E80073
:104C90006BCF44914093F100319621503109019638
:104CA000E8CF803809F08FCE8091E800877F80932D
:104CB000E800809131028093F1007BCE811183CE98
:104CC00080913502182F823008F07DCE8091E80067
:104CD000877F8093E800109331020E94330F1115F3
:104CE000F9F084E08093F90542E061EC81E00E94F4
:104CF000030F42E261EC84E00E94030F42E261ECA8
:104D000082E00E94030F42E260EC83E00E94030F06
:104D10008091F905843051F482E080935D0153CE97
:104D20008091E30087FDDDCF81E0DCCF81E0F5CF2E
:104D3000CDB7DEB7A4970FB6F894DEBF0FBECDBFD8
:104D400085B7806885BF85B7806885BF84B7877F52
:104D500084BF0FB6F894A895809160008861809315
:104D60006000109260000FBE80E890E00FB6F894EB
:104D700080936100909361000FBE81E080935D019C
:104D800080ED9BE080930602909307020E94D20F71
:104D90000E94830F8091E20084608093E200789407
:104DA0008091F905811591F08091E9001091EC0056
:104DB0008F7010FB112717F9182B1092E9008091C2
:104DC000E80083FDF2DC1F701093E90082E084BDEF
:104DD00093E095BD9AEF97BD80936E0010925606B2
:104DE0001092570610925806109259060E94041409
:104DF000811102C00E9466158AEF90E02091E300C5
:104E000027FD0EC0EFE3FCE93197F1F700C0000089
:104E10000197A1F70E94D20F1092F90580E001C01E
:104E200081E0809354068093550680930C01811194
:104E30000E94DA2FEFE2F6E088E011928A95E9F716
:104E400080910C011092F10580910C0191E089276D
:104E50008093F30590910C0190910C019111B8C0D1
:104E60008111A4C084E08093F0058FE891E0019760
:104E7000F1F700C0000010E08091F305181708F466
:104E8000ADC080910C0180910C0190E0811101C0B6
:104E900095E09093490685E0891B80933B067EE868
:104EA000E72E71E0F72E03E911E0F70181917F0110
:104EB0008F3F11F00E94D20B0E151F05B1F763E969
:104EC000E62E61E0F62E09E911E0F70181917F01FC
:104ED0008F3F11F00E94D20B0E151F05B1F7EFE3C3
:104EE000F6E08AE011928A95E9F7EAE4F6E08AE0D2
:104EF00011928A95E9F780E090E00E944F32833E5C
:104F00009E4F21F40E940414811129C063EE7EEFAC
:104F100080E090E00E947D3260E082E090E00E94BC
:104F2000633281E08093E10661E083E090E00E94DB
:104F3000633260E074E184E090E00E947D320E9480
:104F4000661560E070E0AB018FE090E00E94753282
:104F500060E070E0AB0183E190E00E94753282E096
:104F600090E00E9447328093DA0584E090E00E944E
:104F70004F328093E4069093E5060E94C7158FEFA9
:104F800096E721E0815090402040E1F700C000000A
:104F90000E94C71580913F0680FF32C06FEF7FEF00
:104FA00080E090E00E947D320E94980E84EF809312
:104FB000CA0384E98093C90384E08093F00560E02C
:104FC00080E00E943D0D61E080E00E943D0D4DCFEC
:104FD00094E09093F0058111F2CF47CF60E0812FEC
:104FE0000E945D0D082F61E0812F0E945D0DE12F71
:104FF000F0E0EE50FA4F880F802B80831F5F3CCF8C
:1050000083E090E00E9447320E94DC0880915406C1
:105010008093CB0383E08093D70580E28093D6050D
:105020003CD66BE070E080EE9DE00E941B14811581
:10503000E9F18091D70565E070E081FDA3C08BEDBB
:105040009DE00E941B14811589F16DE070E089ECF0
:105050009DE00E941B14811549F10E94710EDC0134
:10506000CB01805A9541AF4FBF4F8093D2059093AB
:10507000D305A093D405B093D505E0EDF3E0DF01AF
:1050800080E092E01D920197E9F7E093CE03F09360
:10509000CF038FEF9FEF8093CC039093CD0381E0FC
:1050A0008093D1058093DA061092D0058091540642
:1050B000811101C082D78DE091E080937C069093AE
:1050C0007D0610E45E018FEFA81AB80A8091F905F9
:1050D000853049F48091F905853009F456C00E9465
:1050E000811D0E94E50D0E94C7154BEDE42E45E0A1
:1050F000F42E5FE3C52E56E0D52EF601D7019D9123
:10510000808125EE35E02A173B0709F474C03196FB
:105110009817A9F34090540600E088248394F60180
:1051200091906F01F70151907F01591419F15924A1
:1051300066246394712C852D8621A9F0411499F081
:1051400079820A830E94B2158B839C838D8291E0C1
:10515000892D862109F490E09E8349815A816B81D3
:105160007C818D8171DA7394660C872D863019F7F6
:10517000F70192920F5F0A3091F60E947D0E9924FA
:1051800093943DC086ED9DE05CCF8091F90584301D
:1051900029F10E944A141092D80588E190E00FB6D8
:1051A000F894A895809360000FBE1093600083B7B9
:1051B000817F846083BF83B7816083BF7894889543
:1051C00083B78E7F83BF0FB6F894A8958091600057
:1051D000886180936000109260000FBE0E94C71526
:1051E000EFE3F6E08081811193C3319686E0E934E4
:1051F000F807C1F76FCF98138DCFB5DA912C0091D6
:105200005406011509F4C1C04090A7065090A806A5
:10521000652C660C6608762C00911901E7EAF6E029
:1052200081E090E0081719060CF0BFC0C090EB05B4
:10523000D090EC05E090ED05F090EE050E94710E27
:105240006C197D098E099F0969A37AA38BA39CA37E
:105250009201A30177FE03C020E030E0A901A0E69F
:10526000BAEE0E94AD326B017C0128EC029FC001B6
:10527000112429A13AA14BA15CA1092E000C000820
:10528000280F391F401D501DA5E0B0E00E94AD322F
:105290009B01AC01B601C7010E94CC3269017A01C1
:1052A00081EFC816D104E104F10410F030EFC32EF1
:1052B00089A19AA1ABA1BCA1893C9105A105B10529
:1052C0000CF18091D90690E0019669E170E00E94AE
:1052D00080318093D906880F991F8955994FFC0119
:1052E00010821182083108F007E10F5F0093190165
:1052F0000E94710E6093EB057093EC058093ED05B1
:105300009093EE0582E048165104610471040CF498
:10531000C12C4090E7055090E8056090E905709039
:10532000EA050E94710E64197509860997092B0117
:105330003C0185E6481651046104710484F00E9422
:10534000710E6093E7057093E8058093E9059093EB
:10535000EA0580912A068093E605C092E505009152
:10536000E605A091E505A01BBB0B9201A3010E94DD
:10537000B73224E630E040E050E00E949132020F64
:1053800000932A060E94531D082F8091060681155E
:1053900051F010920606809131068093320680917A
:1053A0002F0680933006712C55C0329620813181B2
:1053B000032E000C0008420E531E601C701C019648
:1053C00031CF61E0872D0E945D0DF82E60E0872DC2
:1053D0000E945D0DFF0C8F29272D30E0D901AE50C2
:1053E000BA4FEC919E2F9370891799F1EE0FEE0F43
:1053F000E82BEC936090F105670CEF70F0E0E45857
:10540000FE4F21513A4F2901E080F9018081E80ED9
:10541000FE2CFF0CFF08E62DF0E0E051FA4F8081F2
:10542000C82ED12CE816F10424F060E0862D0E94ED
:105430001D0D882799278C199D098E159F0524F02D
:1054400061E0862D0E941D0DC701B60159D7F201FA
:10545000808373948091F305781608F4B2CF80911D
:105460005406811519F00E94531D082B011539F0BF
:105470000E947D0E0E944E170E94281404C00E94B4
:105480004E179110F9CF86E0E1EAF6E0D5010190E0
:105490000D928A95E1F77090A206C090A306009144
:1054A000A4069090A506D090A6061092A30610928E
:1054B000A4061092A5061092A606802F8C2909F446
:1054C00041C0E090F605F090F7050E94B2158E19E4
:1054D0009F099C0190919F06911509F414C22531F2
:1054E000310580F19F3F19F09F5F90939F06C11493
:1054F00059F00E94A00D91E01C140CF09FEF899FC1
:10550000802D11248093A306011559F00E94A00D4F
:1055100091E010160CF09FEF899F802D112480934D
:10552000A4068091A306811569F0F090A406F114F9
:1055300049F00E94920D8093A3068F2D0E94920D38
:105540008093A406892D8D2909F441C0E090F405CB
:10555000F090F5050E94B2158E199F099C0190915B
:105560009E06911509F4CAC12135310580F19F3F8E
:1055700019F09F5F90939E06911459F00E94C00D00
:1055800091E019140CF09FEF899F802D11248093D6
:10559000A506D11459F00E94C00D91E01D140CF025
:1055A0009FEF899F802D11248093A6068091A506E8
:1055B000811569F0F090A606F11449F00E94920D51
:1055C0008093A5068F2D0E94920D8093A606809150
:1055D000A206871119C08091A306811511F08C11C4
:1055E00013C02091A406211511F020130DC0909135
:1055F000A606911511F09D1107C03091A506311135
:1056000003C0822B892B11F00E948C1B86E0F501D0
:10561000A1EAB6E001900D928A95E1F70E94E50DAE
:105620009091F805891721F08093F8050E94710E7A
:105630008091F905843009F049CD83E08093E90039
:105640008091E80082FF42CD8091E80090E085FFE4
:1056500005C00E94520F811589F091E08091E80009
:105660008B778093E800911509F430CDE981E15002
:10567000E33170F5F0E0E75EFC4C55C680E2C82EE1
:10568000D12C75018091E80085FD0AC08091E80069
:105690008B778093E8000E94520F811599F3DDCF3C
:1056A0008091F100F701808381E0C81AD108A9F246
:1056B0008FEFE81AF80AE6CF1A828CE08B8319C0C4
:1056C0008A81833079F138F4813021F1823051F0D0
:1056D0008FEF89830EC08430D9F71B821C821D8214
:1056E0001E8207C088E290E0D2D61B821C821D82F7
:1056F0008E83E0917C06F0917D06309709F4E6CC2C
:105700000284F385E02D309709F4E0CC60E2C50116
:105710000995DCCC0E94710E0CD66B837C838D8343
:105720009E83E7CF8B8190E0FE0134968A3091050D
:1057300004F711920196FACF8A81823019F08530F0
:10574000C1F2C6CF6B817C818D819E81F2D588E2CA
:1057500090E0B9D6CECF4C816B818A810E94221312
:105760009C013827232732272D833E83C2CF2D81EA
:105770003E813227232732274C816B818A810E9408
:105780009D10B7CF0E94C310B4CF80E18A83B1CF00
:1057900081E08A8387EF92CF4A805B80542445243E
:1057A0005424612C712C75018C816501C80ED11CAB
:1057B000EC14FD0409F49DCF87EF481681E05806EC
:1057C0006104710478F4C201875F9D4F60D6F701D0
:1057D00084838FEFE81AF80A8FEF481A580A680A8C
:1057E000780AE6CF80E0F3CF0C814A805B805424B6
:1057F00045245424612C712C450163017301C016AA
:10580000D104E104F10408F074CF87EF481681E079
:1058100058066104710430F4F4016481C201875FA9
:105820009D4F51D68FEFC81AD80AE80AF80A8FEFB1
:10583000481A580A680A780A8FEF881A980ADFCF40
:105840000E942B1556CF84E0A1CF0C814A805B804B
:10585000542445245424612C712C630173014E019E
:1058600085E0880E911CC016D104E104F10408F013
:1058700040CF80EE481681E058066104710488F438
:10588000C201899604D6F40181934F018FEFC81AA3
:10589000D80AE80AF80A8FEF481A580A680A780AFC
:1058A000E2CF80E0F0CF0C814A805B805424452415
:1058B0005424612C712C450163017301C016D1047D
:1058C000E104F10408F015CF80EE481681E0580697
:1058D0006104710428F4F4016481C2018996F3D54E
:1058E0008FEFC81AD80AE80AF80A8FEF481A580A40
:1058F000680A780A8FEF881A980AE0CF2B303105B2
:1059000008F037CE64CE2B30310508F0EDCD1ACE3D
:105910008091D905811509F4DDCB80E189BD82E153
:1059200089BD09B400FEFDCF8091D8008F7D8093A2
:10593000D8008091E00082608093E0008091E000D8
:1059400081FDFCCF0E94811D8FEF93EC29E08150F7
:1059500090402040E1F700C00000BCCB78941F923B
:105960001FB61F9211248F939F93AF93BF93809183
:10597000430290914402A0914502B09146020196E3
:10598000A11DB11D8093430290934402A093450250
:10599000B0934602BF91AF919F918F911F901FBE10
:1059A0001F9018951F920F920FB60F9211242F93EC
:1059B0003F934F935F936F937F938F939F93AF9397
:1059C000BF93EF93FF938091E10082FF09C0809124
:1059D000E20082FF05C08091E1008B7F8093E100AF
:1059E0008091DA0080FF24C08091D80080FF20C021
:1059F0008091DA008E7F8093DA008091D90080FF59
:105A0000A9C080E189BD82E189BD09B400FEFDCF56
:105A100081E08093F90580913202811109C00E94D2
:105A2000D20F0E94830F8091E20084608093E20095
:105A30008091E10080FF1AC08091E20080FF16C0D3
:105A40008091E2008E7F8093E2008091E20080618D
:105A50008093E2008091D80080628093D80019BCC6
:105A600085E08093F90583E080935D018091E100FA
:105A700084FF2FC08091E20084FF2BC080E189BDAC
:105A800082E189BD09B400FEFDCF8091D8008F7DF1
:105A90008093D8008091E1008F7E8093E100809117
:105AA000E2008F7E8093E2008091E200816080932B
:105AB000E20080913102811509F452C084E08093A4
:105AC000F9058091F905843009F052C082E0809395
:105AD0005D018091E10083FF2CC08091E20083FF93
