:100000000C94370D0C94540D0C94540D0C949630A4
:100010000C94540D0C94540D0C94540D0C94540DDC
:100020000C94540D0C94540D0C944A2D0C94322EB7
:100030000C94C8180C94540D0C94540D0C94540D3D
:100040000C94540D0C94540D0C94540D0C94540DAC
:100050000C94540D0C94262D0C94540D0C94540DAA
:100060000C94540D0C94540D0C94540D0C94540D8C
:100070000C94540D0C94540D0C94540D0C94540D7C
:100080000C94540D0C94540D0C94540D0C94540D6C
:100090000C94540D0C94540D0C94540D0C94540D5C
:1000A0000C94540D0C94540D0C94540D050109023C
:1000B000A10185020901A1000509190129081500FE
:1000C0002501950875018102050109300931158165
:1000D000257F95027508810609381581257F9501D0
:1000E00075088106050C0A38021581257F95017572
:1000F000088106C0C005010980A101850319012AF4
:10010000B700150126B700950175108100C0050CD8
:100110000901A101850419012AA002150126A002E6
:10012000950175108100C00660FF0961A101096297
:10013000150026FF00952075088102096315002629
:10014000FF00952075089102C005010906A101056F
:100150000719E029E7150025019508750181029529
:1001600001750881010507190029FF150026FF0008
:100170009506750881000508190129051500250156
:10018000950575019102950175039101C009025B06
:1001900000030100A0FA09040000010301010009A5
:1001A0002111010001224400070581030800010913
:1001B00004010002030000000921110100012222B4
:1001C0000007058203200001070503032000010941
:1001D0000402000103000000092111010001227B3B
:1001E000000705840320000112010002000000083E
:1001F000D8042DEB0001010200010E034C00690040
:100200006C00790035003800000010036C006900B4
:100210006C00690075006D007300000004030904A0
:1002200029001E001F002000210022002B001400C6
:100230001A00080015001700E0000400160007006F
:1002400009000A00E1001D001B000600190005005E
:100250000000E200E30021522C002F0035002700AF
:1002600026002500240023002D00130012000C009E
:1002700018001C00340033000F000E000D000B00AE
:10028000E500380037003600100011000000E700DC
:100290002A00225228003000010001000100010064
:1002A000010001003A003B003C003D003E003F00E1
:1002B00035001E021F02200221022202010001005D
:1002C0000100010001000100000001000100010027
:1002D0000100010001000100010001000100010016
:1002E000450044004300420041004000350227021F
:1002F0002602250224022302310230022F022E029E
:100300002D020000000001000100010001000100B9
:1003100001000100010001000100010035001E0084
:100320001F002000210022003A003B003C003D005D
:100330003E003F00400041004200430044004500B1
:1003400000000100010001000100010001000100A6
:100350000100010001000100010027002600250026
:100360002400230000004F00520051005000000004
:10037000310030002F002E002D002E020000010061
:100380000100010001000100000000000000000069
:10039000000000000000000000000000000000005D
:1003A000000000000000000000000000000000004D
:1003B000000000000000000000000100010001003A
:1003C000010000000000000000000000000000002C
:1003D000000000000000000000000000000000001D
:1003E000000000000000000000000000000000000D
:1003F00000000000000001000100010001000000F9
:1004000042415345200041444A5354004C4F574504
:1004100052005241495345000A202020202020202C
:10042000000A20202020202043415053204C4F43DD
:100430004B000A2020202020204C4159455220000A
:100440000A202020202020200020202057504D006E
:100450002020202020200000AE00AF00000000007F
:10046000003E5B4F5B3E003E6B4F6B3E001C3E7C94
:100470003E1C00183C7E3C18001C577D571C001C7D
:100480005E7F5E1C0000183C180000FFE7C3E7FF1A
:1004900000001824180000FFE7DBE7FF0030483AAF
:1004A000060E00262979292600407F050507004011
:1004B0007F05253F005A3CE73C5A007F3E1C1C0844
:1004C00000081C1C3E7F0014227F2214005F5F0086
:1004D0005F5F0006097F017F00006689956A006002
:1004E000606060600094A2FFA2940008047E04088B
:1004F0000010207E20100008082A1C0800081C2A72
:100500000808001E10101010000C1E0C1E0C0030ED
:10051000383E383000060E3E0E0600000000000097
:100520000000005F000000000700070000147F14B7
:100530007F1400242A7F2A120023130864620036E5
:100540004956205000000807030000001C2241000B
:10055000000041221C00002A1C7F1C2A0008083EC3
:100560000808000080703000000808080808000033
:1005700000606000002010080402003E5149453E22
:100580000000427F4000007249494946002141492C
:100590004D33001814127F10002745454539003CA3
:1005A0004A49493100412111090700364949493674
:1005B00000464949291E0000001400000000403494
:1005C0000000000008142241001414141414000048
:1005D00041221408000201590906003E415D594EAE
:1005E000007C1211127C007F49494936003E41418E
:1005F0004122007F4141413E007F49494941007FFE
:1006000009090901003E41415173007F0808087F34
:100610000000417F4100002040413F01007F08145D
:100620002241007F40404040007F021C027F007F4B
:100630000408107F003E4141413E007F0909090640
:10064000003E4151215E007F091929460026494993
:1006500049320003017F0103003F4040403F001F3B
:100660002040201F003F4038403F006314081463BF
:10067000000304780403006159494D4300007F41A1
:10068000414100020408102000004141417F000464
:1006900002010204004040404040000003070800FF
:1006A000002054547840007F2844443800384444A3
:1006B000442800384444287F00385454541800001B
:1006C000087E0902001824241C78007F080404789E
:1006D0000000447D4000002040403D00007F102885
:1006E00044000000417F4000007C04780478007CD6
:1006F00008040478003844444438007C1824241842
:1007000000182424187C007C080404080048545471
:1007100054240004043F4424003C4040207C001C3E
:100720002040201C003C4030403C0044281028441D
:10073000004C9090907C004464544C440000083677
:100740004100000000770000000041360800000270
:1007500001020402003C2623263C000000000000A9
:1007600080808080000000000080E070180C18304D
:10077000E080000010F8901030783010B8FC38108D
:10078000000000000000F8FCF8000000000000007D
:100790000000000000001C9C1C00000000F8FCF899
:1007A0000000000000001CFCF8C000000000000079
:1007B00080E0F87C1C000000F0FCFCFC1C1C1C1CF5
:1007C0001C1C1C1C000000000000C0F0F8381C1CA1
:1007D0001C1C1C1C3CF8F0E000E0F0F0F0E0ECEE3B
:1007E000F7F37020007C7C7C7E007E7E7E7F7F7FA6
:1007F000000080C0E07E5B4F5BFEC00000C000DCFC
:10080000D7DEDEDED7DC00C0000000000000000004
:1008100000000000000000000000000000000000D8
:100820000FBCE0818181838382870C183060C00017
:10083000001FFE90B9FFBB91983C1811133F1100A7
:10084000000000000000FFFFFF00000000000000AB
:10085000000000000000FFFFFF00000000FFFFFF9E
:100860000000000000000000030F7FF8E080F0FCB3
:100870003F0F0100000000003F3F3F1C1C1C1C1CE0
:100880003C78F8F0E08000000000C3E7FF7E3C38D1
:1008900078787070F8FFDF87000F1F3F7F7F7F7FC2
:1008A0007F3F1E0C001F1F1F3F003F3F3F7F7F7F8A
:1008B00000307B7F7830202030787F3B0003000FB2
:1008C0007F0F0F0F7F0F00030000000000000000EB
:1008D0000000000000000000000000183C246663D7
:1008E00041C18180808080808081C14162386C4CB0
:1008F000C68181808080808081C14362361C18005F
:10090000000000000000FFFFFFC0C0C0C0C0C0C0AA
:10091000C0C0800000007FFF7F000000007FFFFF5D
:10092000C080000000E0E0C0C0C0E0F97F1F070009
:10093000000000000000000070F0E0E0C0C0C0C097
:10094000E0F0F87F3F0F0000000F3F7FF9E0E0C0CC
:10095000C0C0C0C0E0F97F3F1F00000000000000E1
:100960000000000000000000000000000000000087
:100970000000000000000000000000000000000077
:100980000000000000000000000000000000000067
:10099000000000000000000000000000DA0281FFFB
:1009A000D9F1DB20A4A62EAF00A0C0D30000A1C8BF
:1009B000D30000AED580A81F408D14200000000099
:1009C0000000000000000000000000000000000027
:1009D0000000000000000000000000000000000017
:1009E000007E0F00D4FFFFFFC7000000780000006A
:1009F00000000000002A2B2800000000000000007A
:100A0000000000000000000029000000002C1E343F
:100A100020212224342627252E362D3738271E1F45
:100A2000202122232425263333362E37381F040570
:100A3000060708090A0B0C0D0E0F101112131415DE
:100A4000161718191A1B1C1D2F3130232D350405BC
:100A5000060708090A0B0C0D0E0F101112131415BE
:100A6000161718191A1B1C1D2F3130354C000000A9
:100A70000000000000000000000000000000000076
:100A80000000000000000000000000000000000066
:100A90000000000000000000000000000000000056
:100AA00080800000000000804040202020201010A6
:100AB00010100804020101020C3040800000000008
:100AC000000000F8F8F8F800000000008080000046
:100AD0000000000000000000000000000000000016
:100AE0000000000000000000000080808000000086
:100AF00000000000000000000000000000000000F6
:100B000000000000000000000000000000000000E5
:100B100000000000000000000000000000001EE1D6
:100B2000000001010202818080000080800000003E
:100B300000000000000080003030000001010204CD
:100B40000810204387070100B8BCBE9F5F5F4F4C71
:100B500020202020101010100808080808040404A1
:100B60000404020202020101010100000000000071
:100B70000000000000000000000000000000000075
:100B80000000000000000000000000000000000065
:100B90000000000000000000000000000080700C59
:100BA000030000180605989984437C414140402089
:100BB000212212111111090808080804040808105C
:100BC00010101010110F013D7CFCFCFCFCFC3C0CD7
:100BD0000000000000000000000000000000000015
:100BE0000000000000000000000000000000000005
:100BF00000000000000000000000000000008080F5
:100C00008080804040404040202020202010101054
:100C1000101008080808080404040404020302026F
:100C200001010101010100000000000000000000BE
:100C300000000000000000000000000000000000B4
:100C4000000000000000000000000103030000009D
:100C50000000000000000000000000000000000094
:100C60000000000000000000000000000000000084
:100C70000000000000000000000000000000000074
:100C80000000000000000000000000000000000064
:100C90000000000000000000000000000000000054
:100CA00080800000000000804040202020201010A4
:100CB00010100804020101020C3040800000000006
:100CC0000000000000000000000000000000000024
:100CD0000000000000000000000000000000000014
:100CE0000000000000000000000080808000000084
:100CF00000000000000000000000000000000000F4
:100D000000000000000000000000000000000000E3
:100D100000000000000000000000000000001EE1D4
:100D200000000101020201000000008080000000BC
:100D300000000000000080003030000001E11A06D1
:100D4000093135018A7C000080808080404040402D
:100D5000202020201010101008080808080404049F
:100D6000040402020202010101010000000000006F
:100D70000000000000000000000000000000000073
:100D80000000000000000000000000000000000063
:100D90000000000000000000000000000080700C57
:100DA000030000000000000000000001010040A05E
:100DB000212212111111090808080804040404046E
:100DC0000402020201010101000000000000000015
:100DD0000000000000000000000000000000000013
:100DE0000000000000000000000000000000000003
:100DF00000000000000000000000000000008080F3
:100E00008080804040404040202020202010101052
:100E100010100808080808040404040402037A7A7D
:100E200079797979393102020404080808888887B9
:100E30008000000000000000000000000000000032
:100E400000000000000000000000000000000000A2
:100E50000000000000000000000000000000000092
:100E60000000000000000000000000000000000082
:100E70000000000000000000000000000000000072
:100E80000000000000000000000000000000000062
:100E90000000000000000000000000000000000052
:100EA00080800000000000804040202020201010A2
:100EB00010100804020101020C3040800000000004
:100EC0000000000000000000000000000000000022
:100ED0000000000000000000000000000000000012
:100EE0000000000000000000000080808000000082
:100EF00000000000000000000000000000000000F2
:100F000000000000000000000000000000000000E1
:100F100000000000000000000000000000001EE1D2
:100F2000000001010202818080000080800000003A
:100F300000000000000080003030000001E11A06CF
:100F4000093135018A7C000080808080404040402B
:100F5000202020201010101008080808080404049D
:100F6000040402020202010101010000000000006D
:100F70000000000000000000000000000000000071
:100F80000000000000000000000000000000000061
:100F90000000000000000000000000000080700C55
:100FA000030000180605989984C37C414140402005
:100FB000212212111111090808080804040404046C
:100FC0000402020201010101000000000000000013
:100FD0000000000000000000000000000000000011
:100FE0000000000000000000000000000000000001
:100FF00000000000000000000000000000008080F1
:101000008080804040404040202020202010101050
:10101000101008080808080404040404020302026B
:1010200001010101010100000000000000000000BA
:1010300000000000000000000000000000000000B0
:1010400000000000000000000000000000000000A0
:101050000000000000000000000000000000000090
:101060000000000000000000000000000000000080
:101070000000000000000000000000000000000070
:101080000000000000000000000000000000000060
:101090000000000000000000000000000000000050
:1010A00000000000000000804040202020201010A0
:1010B00010101008080404040830408000000000EC
:1010C0000000000000000000000000000000000020
:1010D0000000000000000000000000000000000010
:1010E0000000000000000000000080808000000080
:1010F00000000000000000000000000000000000F0
:1011000000000000000000000000000000000000DF
:101110000000000000000000000000000000186453
:101120008202020202020100000000808000000032
:101130000000000000008000303000C0C1C1C204C7
:1011400008102040800000008080808040404040A7
:10115000202020201010101008080808080404049B
:10116000040402020202010101010000000000006B
:10117000000000000000000000000000000000006F
:10118000000000000000000000000000000000005F
:1011900000000000000000000000000000C0380453
:1011A00003000000000000000C0C0C0D010040A02A
:1011B0002122121111110908080808040408081056
:1011C00010101010110F01010000000000000000BD
:1011D000000000000000000000000000000000000F
:1011E00000000000000000000000000000000000FF
:1011F00000000000000000000000000000008080EF
:10120000808080404040404020202020201010104E
:101210001010080808080804040404040203020269
:10122000010101010101020204040808080808077D
:1012300000000000000000000000000000000000AE
:10124000000000000000000000000000000000009E
:10125000000000000000000000000000000000008E
:10126000000000000000000000000000000000007E
:10127000000000000000000000000000000000006E
:10128000000000000000000000000000000000005E
:10129000000000000000000000000000000000004E
:1012A000000000000000008040402020202010109E
:1012B00010101008080404040830408000000000EA
:1012C000000000000000000000000000000000001E
:1012D000000000000000000000000000000000000E
:1012E000000000000000000000008080800000007E
:1012F00000000000000000000000000000000000EE
:1013000000000000000000000000000000000000DD
:101310000000000000000000000000000000186451
:101320008202020202020100000000808000000030
:101330000000000000008000303000C0C1C1C204C5
:1013400008102040800000008080808040404040A5
:101350002020202010101010080808080804040499
:101360000404020202020101010100000000000069
:10137000000000000000000000000000000000006D
:10138000000000000000000000000000000000005D
:1013900000000000000000000000000000C0380451
:1013A00003000000000000000C0C0C0D010040A028
:1013B0002122121111110908080808040408081054
:1013C00010101010110F01010000000000000000BB
:1013D000000000000000000000000000000000000D
:1013E00000000000000000000000000000000000FD
:1013F00000000000000000000000000000008080ED
:10140000808080404040404020202020201010104C
:101410001010080808080804040404040203020267
:10142000010101010101020204040808080808077B
:1014300000000000000000000000000000000000AC
:10144000000000000000000000000000000000009C
:10145000000000000000000000000000000000008C
:10146000000000000000000000000000000000007C
:10147000000000000000000000000000000000006C
:10148000000000000000000000000000000000005C
:10149000000000000000000000000000000000004C
:1014A00000000000000000008080404040402020FC
:1014B00020201008040202041860800000000000D0
:1014C000000000000000000000000000000000001C
:1014D000000000000000000000000000000000000C
:1014E000000000000000000000008080800000007C
:1014F00000000000000000000000000000000000EC
:1015000000000000000000000000000000000000DB
:1015100000000000000000000000000000003CC2CD
:1015200001010202040402010000000000000000AA
:1015300000000000000000006060008182828408DA
:1015400010204080000000008080808040404040AB
:101550002020202010101010080808080804040497
:101560000404020202020101010100000000000067
:10157000000000000000000000000000000000006B
:10158000000000000000000000000000000000005B
:101590000000000000000000000000000080701942
:1015A00006000000000000001818181B030040A0EF
:1015B0002224141212120B08080808050509091044
:1015C00010101010110F01010000000000000000B9
:1015D000000000000000000000000000000000000B
:1015E00000000000000000000000000000000000FB
:1015F00000000000000000000000000000008080EB
:10160000808080404040404020202020201010104A
:101610001010080808080804040404040203020265
:101620000101010101010202040408080808080779
:1016300000000000000000000000000000000000AA
:10164000000000000000000000000000000000009A
:10165000000000000000000000000000000000008A
:10166000000000000000000000000000000000007A
:10167000000000000000000000000000000000006A
:10168000000000000000000000000000000000005A
:10169000000000000000000000000000000000004A
:1016A000808000000000008040402020202010109A
:1016B00010100804020101020C30408000000000FC
:1016C000000000000000000000000000000000001A
:1016D000000000000000000000000000000000000A
:1016E000000000000000000000008080800000007A
:1016F00000000000000000000000000000000000EA
:1017000000000000000000000000000000000000D9
:1017100000000000000000000000000000001EE1CA
:101720000000010102028180800000808000000032
:101730000000000000008000303000C0C1C1C204C1
:1017400008102040800000008080808040404040A1
:101750002020202010101010080808080804040495
:101760000404020202020101010100000000000065
:101770000000000000000000000000000000000069
:101780000000000000000000000000000000000059
:101790000000000000000000000000000080700C4D
:1017A00003000000000000000C0C0C0D010040A024
:1017B0002122121111110908080808040408081050
:1017C00010101010110F01010000000000000000B7
:1017D0000000000000000000000000000000000009
:1017E00000000000000000000000000000000000F9
:1017F00000000000000000000000000000008080E9
:101800008080804040404040202020202010101048
:101810001010080808080804040404040203020263
:101820000101010101010202040408080808080777
:1018300000000000000000000000000000000000A8
:101840000000000000000000000000000000000098
:101850000000000000000000000000000000000088
:101860000000000000000000000000000000000078
:101870000000000000000000000000000000000068
:101880000000000000000000000000000000000058
:101890000000000000000000000000000000000048
:1018A0000000000000000080404020202020101098
:1018B00010100808040202020438408000000000F2
:1018C0000000000000000000000000000000000018
:1018D0000000000000000000000000000000000008
:1018E0000000000000000000000080808000000078
:1018F00000000000000000000000000000000000E8
:1019000000000000000000000000000000000000D7
:1019100000000000000000000000000000001CE2C9
:1019200001010202020201000000008080000000AC
:101930000000000000008000303000C0C1C1C204BF
:10194000081020408000000080808080404040409F
:101950002020202010101010080808080804040493
:101960000404020202020101010100000000000063
:101970000000000000000000000000000000000067
:101980000000000000000000000000000000000057
:101990000000000000000000000000000080700C4B
:1019A00003000000000000000C0C0C0D010040A022
:1019B000212212111111090808080804040808104E
:1019C00010101010110F01010000000000000000B5
:1019D0000000000000000000000000000000000007
:1019E00000000000000000000000000000000000F7
:1019F00000000000000000000000000000008080E7
:101A00008080804040404040202020202010101046
:101A10001010080808080804040404040203020261
:101A20000101010101010202040408080808080775
:101A300000000000000000000000000000000000A6
:101A40000000000000000000000000000000000096
:101A50000000000000000000000000000000000086
:101A60000000000000000000000000000000112441
:101A70001FBECFEFDAE0DEBFCDBF11E0A0E0B1E0E6
:101A8000E8E3FBE602C005900D92AE3FB107D9F73F
:101A900025E0AEEFB1E001C01D92AA39B207E1F72F
:101AA0000E9417270C945E350C940000982F929595
:101AB0009F7061F420E0982F892F8695869511F00C
:101AC0002E5F982F892F8695820F089524E0F4CFFA
:101AD000809350050895982F9670963021F4886071
:101AE000809351050895877FFBCF21E001C0220F2D
:101AF0008A95EAF780915105822BEDCF21E001C054
:101B0000220F8A95EAF7822F8095909151058923BB
:101B1000E2CF292F9A3090F5863080F590E036E0BC
:101B2000239F800D911D112451E081FD54E080FD23
:101B3000550F82FD529523E0969587952A95E1F7FA
:101B4000FC01EE0FFF1FE80FF91FE750FB4F20E0ED
:101B500030E070E04191DF01CB01022E02C096958A
:101B600087950A94E2F78695880B84278523842736
:101B70008E932F5F3F4F2330310561F70895292F52
:101B80009A3070F5863060F590E036E0239F800D46
:101B9000911D1124682F677023E0969587952A95EB
:101BA000E1F7FC01EE0FFF1FE80FF91FE750FB4FB5
:101BB00040E050E080E0219130E0062E02C03695F2
:101BC00027950A94E2F72170042E01C0220F0A948F
:101BD000EAF7822B4F5F5F4F4330510561F708955D
:101BE00080E008959091510521E030E0F90101C0B5
:101BF000EE0F8A95EAF7D90101C0AA0F6A95EAF7B4
:101C0000EA2B01C0220F4A95EAF7892F8E23E813A9
:101C100003C0892F822B5FCF2095822F8923FBCF92
:101C2000E091570590915605E91302C080E00895B0
:101C30009F0157E0E59FF0011124E85AFA4F5181C6
:101C4000561306C05081581303C05581541305C064
:101C50002F5F3F4FF901E770E7CF81E00895809152
:101C6000570520915605281301C0089501968770E5
:101C7000FACF909152058095892380935205282FA1
:101C8000277061F4891751F09091540592FF06C0B6
:101C900086958695869532DF109252050895809537
:101CA000982F80914D05892380934D050895803E9E
:101CB0009105D1F1C8F48133910509F481C048F44C
:101CC0008932910509F471C08A32910509F47FC007
:101CD000089589339105E1F082389105C9F0853383
:101CE000910509F45DC00895843E9105D1F148F451
:101CF000823E910531F1833E910541F181EE90E004
:101D00000895863E9105C1F1873E9105F1F1089550
:101D100020915305237009F064C02091540523FFDE
:101D200014C089E290E008952091530520FD45C03C
:101D30003091540530FF09C024FD24C083EE90E0AB
:101D400008952091530522FDF7CF08952091530562
:101D500022FD44C03091540530FD43C024FFF5CF2F
:101D600011C02091540521FFF0CF8091530584FDCF
:101D700009C087EE90E008952091530523FFE5CF39
:101D800024FFF7CF80E090E008952091530523FDD4
:101D90002BC03091540531FFE1CF84EE90E00895DF
:101DA0002091530525FFD1CFBCCF2091530525FDB0
:101DB0001EC02091540523FFC8CF89E390E0089509
:101DC0002091530526FFC1CF8AE290E0089520912B
:101DD000530526FFBACF81E390E0089582EE90E0AC
:101DE000089580EE90E0089586EE90E0089585E3F2
:101DF00090E008959091530592FF10C041E0282F84
:101E00002471243009F040E031E0282F2871283077
:101E100009F030E0431711F02CE0822793FF10C047
:101E200041E0282F2471243109F040E031E0282FCF
:101E30002871283109F030E0431711F02CE0822797
:101E40003091540530FF10C051E0282F217121300E
:101E500009F050E041E0282F2871283009F040E0D7
:101E6000541711F029E0822731FF10C041E0282FDC
:101E70002171213109F040E031E0282F287128310B
:101E800009F030E0431711F029E0822794FD877EA6
:101E900008950F931F93CF93DF9309DFEC01D235A1
:101EA00008F04DC0D03508F0C3C0C03ED10530F5B4
:101EB000CD3CD10508F09AC0C83AD10578F4C53AAE
:101EC000D10508F090C0C130D10599F1CE01049739
:101ED000813A910570F1C0E0D0E02BC0CE01885A64
:101EE00091094B97C0F7C85AD0E0CC0FDD1FCE56F2
:101EF000DE4F0990D881C02DD4641BC0D03490F43B
:101F0000D03208F0A8C0C83ED10598F0CE0191505B
:101F10009F3108F78D2F6EDF082F8C2F90E0C7DEE2
:101F2000902B54C08C2F90E0C2DEDF70C82FD92BCD
:101F3000D06ACE01DF91CF911F910F910895C038E3
:101F400082E5D807B8F5C03682E5D80708F056C054
:101F5000C03482E5D807C8F4C03282E5D80708F05B
:101F600047C08C2F8695869520E2829FC001112460
:101F7000C37021E030E002C0220F331FCA95E2F7A0
:101F8000E901C82BD92BDD68D4CF8C2F8695869597
:101F9000877020E2829FC0011124C37021E030E0ED
:101FA00002C0220F331FCA95E2F7E901C82BD92BD3
:101FB000DC68BFCFC03C82E5D80750F48C2F8F710E
:101FC000C03AD24580F5982F84EF906AEC01B1CFEA
:101FD000CE01805C9245809708F07DCFDC2FDF71C9
:101FE000C0EFD06AA6CFA497D064A3CFD065A1CF0D
:101FF0008C2F8F71D82FC1EFD06A9BCF8C2F8695F5
:102000008695877020E2829FC0011124C37021E071
:1020100030E002C0220F331FCA95E2F7E901C82B56
:10202000D92BDA6886CFE6DEC0E0D82FD06281CF28
:102030008C2F8F71DFDE93E0CC0FDD1F9A95E1F7D7
:10204000DF70282F84FF04C090E1899F9001112444
:10205000C22FD0696ECF8D2F8F71CCDE082F8C2FC1
:1020600090E025DE902BEC01E1CF80E00895F8941C
:10207000E82FE295EF70F0E041A18F7021E001C000
:10208000220F8A95EAF7922F9095942391A392A11B
:10209000822F892B82A37894089581E080939A04FB
:1020A00008950F931F93CF93DF93A0916102B09196
:1020B00062029D0123563240BD016356704061307B
:1020C00042E0740710F060E072E040915F025091CE
:1020D0006002FC0101E010E02617370748F040934A
:1020E0005F0250936002DF91CF911F910F9108958D
:1020F00084919D91891789F0ED018A93C901C5E00A
:1021000096958795CA95E1F7E80102C0CC0FDD1FCF
:102110008A95E2F7CE014C2B592B2F5F3F4F31961A
:10212000DBCF809197058F3128F08832B0F48DE6AF
:102130009EE012C08091990590E0019665E070E004
:102140000E94F8318093990524E030E0281B922FFB
:10215000990F80E083599F4EA4CF8091980590E01D
:102160008395817090E080939805019780E092704C
:102170008359954FF1CF9091C404292F30E070918D
:10218000C504A9014395437050E07417150689F002
:102190002E533B4F60FB87F9F90184839F5F937057
:1021A0009093C4048091C2048F5F8093C20481E045
:1021B000089580E0089590E06115D1F0835A9D4F15
:1021C000FC0180818F3F99F0E82FE295EF70F0E0FD
:1021D00041A18F7021E001C0220F8A95EAF7922F6A
:1021E0009095942391A392A1822F892B82A3089585
:1021F000825A9D4FE5CF90E06115A9F0835A9D4F1B
:10220000FC0120812F3F91F0E22FE295EF70E05E1C
:10221000F0E0808190E02F7002C0959587952A9517
:10222000E2F781700895825A9D4FEACF80E00895C9
:10223000FC01680F791F8FEF41E39191892728E016
:1022400030E0982F990F87FF09C0892F84272150EC
:102250003040B9F7E617F70781F70895892FF7CFD0
:10226000382F25EB3203C001112497FF04C080589A
:102270009109892F089580589F4FFBCF80911305B6
:1022800080FD14C081FD14C082FD16C0809112052E
:10229000811581F08E3180F420E5829FC0011124E8
:1022A0006EE170E00E94F831862F089584E1089570
:1022B00088E2089588E0089580E5089580911305E7
:1022C00080FD17C081FD17C082FD19C080911105E6
:1022D000811599F0883298F428E0829FC00111247A
:1022E00068E270E00E94F8316115710551F0862FA7
:1022F000089562E0FCCF64E0FACF61E0F8CF68E0D7
:10230000F6CF81E008958091E704811571F0E091A6
:10231000EF04F091F004309739F00190F081E02D56
:10232000309711F00995089580E00895A3E0B0E09A
:10233000ECE9F1E10C94C5312091210230912202A7
:1023400028173907B1F08093210290932202E0917F
:10235000EF04F091F004309761F00084F185E02DF6
:10236000309739F023E029838A839B83CE0101963D
:1023700009952396E2E00C94E131A3E0B0E0E3ECB0
:10238000F1E10C94C53120911F02309120022817F1
:102390003907B1F080931F0290932002E091EF047F
:1023A000F091F004309761F00084F185E02D3097D2
:1023B00039F024E029838A839B83CE010196099515
:1023C0002396E2E00C94E1318091080108952FB743
:1023D000F89460911B0270911C0280911D029091F3
:1023E0001E022FBF08958091E704811539F0EFDFB9
:1023F000462F572FBC01CB01BA010895E8DFDC015D
:10240000CB014091E9045091EA046091EB04709192
:10241000EC04480F591F6A1F7B1FEDCF87E797E732
:10242000809300089093010888E19AE00FB6F89431
:10243000A895809360000FBE90936000FFCF089531
:10244000FC0180911102909112028617970748F0C3
:102450006115710529F48091E8008E778093E8007A
:10246000CB0140E0009741F4411106C08091E800A3
:1024700082FF30C080E0089520918C042115B1F1D5
:102480002530B1F12091E80023FD2EC02091E80015
:1024900022FDECCF2091E80020FFE4CF4091F30033
:1024A0002091F200342F009719F02830310558F0B0
:1024B00041E02830310509F040E02091E8002E7716
:1024C0002093E800CFCF41914093F10001972F5F17
:1024D0003F4FE9CF80918C04811541F0853041F068
:1024E0008091E80083FFC2CF81E0089582E00895E3
:1024F00083E00895982F9093E900891771F0709107
:10250000EC002091ED005091F00021FD09C09F5F8B
:10251000973089F78093E9000895762F242F50E0B3
:102520003091EB003E7F3093EB003091ED003D7F2A
:102530003093ED003091EB0031603093EB007093FD
:10254000EC002093ED005093F0002091EE0027FD69
:10255000DECF089580910B0287FF13C08091E800C1
:1025600082FF06C08091E8008B778093E800089591
:1025700080918C048111F2CF089580918C04811593
:10258000D9F38091E80080FFF8CF8091E8008E7742
:10259000ECCF2091E4003091E50095E6A90120916F
:1025A000EC00822F817020FF06C08091E80080FF40
:1025B00006C080E008952091E80022FD1AC08091B5
:1025C0008C04811589F0853089F08091EB0085FDC0
:1025D0000FC02091E4003091E50042175307F9F253
:1025E0009150E1F684E0089582E0089583E0089533
:1025F00081E00895CF93DF93C8EDD0E088818F7E8E
:102600008883E7EDF0E080818160808384E082BF91
:1026100081E080930A0288818E7F8883E2EE1082B7
:102620001092DA00A1EEB0E01C9288818F77888347
:1026300088818068888388818F7D888319BC109207
:102640008C041092090210926C0410920802A0EE01
:102650008C918B7F8C9388818160888342E060E0DD
:1026600080E048DFA1EEB0E08C918E7F8C93E2EEAB
:10267000F0E0808181608083808188608083E0EEEB
:1026800080818E7F8083888180618883DF91CF9174
:102690000895E8EDF0E080818E7F80831092E20063
:1026A0001092DA001092E100A0EEB0E08C9181600F
:1026B0008C9380818F77808319BCA7ED8C918E7F5E
:1026C0008C9380818F7E808310920A020895A0E00F
:1026D000B0E0EDE6F3E10C94BD317C016B015A01F1
:1026E0008091CA040AE010E08A3010F001E010E0A6
:1026F000C1E0D0E0B601C701F5010995811115C00F
:1027000021960C171D078CF0CC9F9001CD9F300DAA
:10271000300D112480E090E045E34A95F1F7000088
:10272000019682179307C1F7E5CFCDB7DEB7EAE090
:102730000C94D9310F931F93CF93DF93EB018A0150
:1027400090918C04943059F58093E9008FEF90912B
:10275000E80095FD06C095ED9A95F1F700008150CF
:10276000B1F78091E80085FF1AC013DF811112C014
:102770008091E80085FD06C08091E8008E77809307
:10278000E800F3CF88818093F1000150104011F0F0
:102790002196EECF8091E8008E778093E800DF915C
:1027A000CF911F910F910895603229F440E250E0DB
:1027B000BC0182E0BFCF0895CF93DF93EC0148E0E6
:1027C00050E0BC0181E0B6DF88E0FE01A3E1B2E0A9
:1027D00001900D928A95E1F7DF91CF91089546E03F
:1027E00050E0BC0184E0A6CF43E050E0BC0184E0AF
:1027F000A1CF9091540592FB222720F9281771F060
:1028000080FB92F9909354056091530570915405A3
:1028100084E090E00E944A3582E02BCA08951F931D
:10282000CF93DF93122F8430E0F46A30D0F4463037
:10283000C0F4C42FD0E0CC0FDD1F2CE0629FC00D90
:10284000D11D112498E7899FC00DD11D1124632F3C
:10285000CE0189960E943035612FCE018A960E9462
:102860003035DF91CF911F910895AF92BF92CF92F3
:10287000DF92FF920F931F93CF93DF93A12CB12C84
:1028800000E0650110E012C0FE01259134914F2D4A
:10289000612F802FC4DF2296F3948F2D8630A1F70D
:1028A00086E0C80ED11C1F5F1A3039F0E601CC0F4C
:1028B000DD1FC05EDD4FF12CE7CF0F5F8CE3A80E6C
:1028C000B11C0430F1F6DF91CF911F910F91FF9071
:1028D000DF90CF90BF90AF90089580914D0590917B
:1028E0005505892B90914E05911589F0892B90E023
:1028F00022E032E0F90140812F5F3F4F41119F5F9D
:1029000042E028303407B1F7911110924E058093C0
:10291000000248E050E061EF74E080E092E00E9445
:102920007E32892BB9F088E0E0E0F2E0A1EFB4E07C
:1029300001900D928A95E1F7E091EF04F091F00497
:10294000309741F00280F381E02D309719F080E05C
:1029500092E009950895811531F090914D05982BDD
:1029600090934D05BACF0895811511F098D9B5CF40
:102970000895A1E0B0E0EFEBF4E10C94B531A62EA0
:102980004A0119016801082F880F110BC8010E9424
:102990003331B82E811509F465C093E0000F111F83
:1029A0009A95E1F7F801E75EFE4F8381482F50E0EA
:1029B000811141E0075E1E4FF80164817581675502
:1029C0007B4FCE0101960E948B32F40140805180F2
:1029D00062807380FCDCDC01CB0184199509A609B7
:1029E000B70984369105A105B10530F4B701C601D8
:1029F0001FDC99818917B1F10A2D1A2D110F110BC6
:102A0000C8010E943331B82E811106C0B12C8B2D24
:102A10002196E2E10C94D13183E0000F111F8A95D9
:102A2000E1F7F801E75EFE4F8381482F50E0E8169A
:102A3000F10408F4A701075E1E4FF8016481758157
:102A400067557B4FC1010E948B32B701C601F0DB95
:102A500099818913DBCFBBDCF401608371838283AE
:102A60009383D5CFA701B601C1010E948B32CFCF8E
:102A7000A5E0B0E0EEE3F5E10C94BF316B017D0120
:102A80000AEA14E0CE0101969C0145EA54E061E0B7
:102A900080E06FDF811559F095E09E012F5F3F4F79
:102AA000F901A0EAB4E001900D929A95E1F795E062
:102AB000E0EAF4E0D60101900D929A95E1F72596AF
:102AC000E8E00C94DB31A8E0B0E0E9E6F5E10C9435
:102AD000C1317D0100EB14E0CE0101969C014CE96F
:102AE00054E063E082E045DF082F811581F1909189
:102AF000AF0480919B04981751F110E09091B304BA
:102B00008091B2048917E9F0E92FF0E0E355FB4F1B
:102B1000878187FB662760F99F5F93709093B3046A
:102B20009091B1049F5F9093B1048F7724DB182FAD
:102B30008111E4CF84E090E00E9433311823012F0B
:102B400002C01111F7CF8091AF0480939B04802FB6
:102B50002896E6E00C94DD31A0E0B0E0E2EBF5E190
:102B60000C94BD31182FEB01042F5901C880D98076
:102B7000EA80FB802CDCDC01CB018C199D09AE09BD
:102B8000BF0984369105A105B10510F4011501F1C5
:102B9000E12EF12EFF0CFF0888E01802F00111244D
:102BA000E75EFE4F8181928187559B4F2081422FA6
:102BB00050E0211141E0B5010E948B32C7010E9413
:102BC0003331811531F003DC688379838A839B83F9
:102BD00081E0CDB7DEB7EAE00C94D931A1E0B0E0F6
:102BE000E4EFF5E10C94C53180919705898341E0CC
:102BF0009091BC04981301C040E0CE0101969C0165
:102C000062E974E086E0A8DF2196E2E00C94E1310D
:102C1000A1E0B0E0EEE0F6E10C94C53180918D04C6
:102C200089832091BD0490E041E02817190609F43A
:102C300040E0CE0101969C016EE874E087E08CDFF5
:102C40002196E2E00C94E131CF92DF92EF92FF9275
:102C50001F93CF93DF9300D000D0CDB7DEB7C090E5
:102C60009604D0909704E0909804F0909904AFDB1C
:102C7000DC01CB018C199D09AE09BF0911E0843636
:102C80009105A105B10568F1AEDBDC01CB0102962F
:102C9000A11DB11D89839A83AB83BC8380914201BE
:102CA0009091430187559B4F20914101422F50E065
:102CB000253008F044E09E012F5F3F4FB9010E948C
:102CC0008B3285E090E00E943331182F811549F056
:102CD0007EDB60939604709397048093980490939E
:102CE0009904812F0F900F900F900F90DF91CF914B
:102CF0001F91FF90EF90DF90CF9008950F931F9357
:102D0000CF93DF93843008F56A30F8F44630E8F466
:102D1000C42FD0E0CC0FDD1F9CE0699FC00DD11DFA
:102D2000112498E7899FC00DD11D1124CE018996E9
:102D30000E941435082FCE018A960E941435902FD8
:102D4000DF91CF911F910F91089580E090E0F8CF2F
:102D5000462F7A3030F4663020F4843010F4672F38
:102D6000CDCF80E090E00895CF92DF92FF920F9355
:102D70001F93CF93DF936C01009151058091500513
:102D8000082BC3E0D0E010E0C8010C2E02C09595DE
:102D900087950A94E2F780FD0CC02197A8F7F12CE3
:102DA0008F2DDF91CF911F910F91FF90DF90CF90EA
:102DB0000895FC2EB6018C2FCBDF6BD8019769F3F9
:102DC000EFCF0F931F93CF93FC01258100811181D9
:102DD000C801211579F0611569F0C6DFC82F682F89
:102DE000C8010E94890DB8018C2FB2DFCF911F91CD
:102DF0000F9108950E94BF0DC82FF5CFCF93DF9399
:102E0000EC01B2DFBE01A4DF44D8DF91CF91089579
:102E1000FC012481211599F080819181EFDF282F19
:102E200092959F70963099F060F4925F9F70923007
:102E300030F4203FB1F038F481E0283E38F080E0F3
:102E400008959A5FF3CF81E0243FC9F7089591E098
:102E5000213F09F090E081E0283E08F080E0892BD6
:102E6000089581E00895673F21E07207810591058B
:102E700028F4CB01875F9D4F0C94143580E00895B2
:102E8000CF92DF92EF92FF92CF93DF93EC01C88055
:102E9000D980EA80FB80B601C701E5DF9FEFC91A40
:102EA000D90AE90AF90AC882D982EA82FB82DF914B
:102EB000CF91FF90EF90DF90CF90089585E290E062
:102EC0000E941435853269F486E290E00E94143540
:102ED000813139F487E290E00E94143591E080332B
:102EE00009F090E0892F81700895AB0124E630E06D
:102EF000BC0188E70E94532F9C0181E0232B09F03D
:102F000080E00895809164048115E9F060DADC01C5
:102F1000CB0180549B42AE4FBF4F8093650490938A
:102F20006604A0936704B093680480918D048111B6
:102F30000AC062E070E089E594E0D7DF811519F0FE
:102F400081E080938D04089580916404811561F07F
:102F500080918D04811541F062E070E087E594E096
:102F6000C4DF811110928D040895CF93DF93C09137
:102F70006102D09162028A30C1F440916904CE01AD
:102F800083569240642F70E00E94A131481B842F29
:102F900066E00E94EC31C82FC11103C0DF91CF91D0
:102FA0000895C15080E2E1DFF7CF8D30C1F4C35600
:102FB000D24040916904642F70E0CE010E94A1319B
:102FC000481BCE01840F911D923010F080E090E0FC
:102FD0008D599D4F8093610290936202DFCF96E0FE
:102FE000FE01A7E5B2E001900D929A95E1F7803ECF
:102FF00008F455C086E019928A95E9F7C0916102FC
:10300000D091620246E050E0BE0187E592E00E9466
:103010007E329E0123563240892B41F1C90145E0A1
:10302000969587954A95E1F741E050E0BA0102C0D4
:10303000660F771F8A95E2F7CB0160915F0270916E
:103040006002862B972BB9016B5F7F4FE5E0769589
:103050006795EA95E1F702C0440F551F6A95E2F7BC
:10306000842B952B80935F02909360022A5F3F4FE1
:1030700040916904642F70E0C9010E94A131481B8E
:10308000463010F4240F311D323010F020E030E0D3
:103090002D593D4F20936102309362027FCF96E01D
:1030A000899FB0011124655A7B4F46E050E0CE0164
:1030B0000E947532A3CFCF93DF93EC01FE01849180
:1030C000811103C0DF91CF9108954FDF2196F6CF94
:1030D000A0E1B0E0EEE6F8E10C94B731FE013196E4
:1030E000DF0180E11D928A95E9F700E210E099E0A6
:1030F000A92E92E0B92E612C712C230153944A1809
:103100009E2E8F2E6201730181E1481651046104E5
:1031100071041CF080E1C82ED12CA601B501892DC7
:10312000982D0E942135AC0CBD1C0D2C000C000804
:103130004C185D08600870080150104019F760963F
:10314000E0E10C94D3316FEF85E290E00E943035DE
:103150006FEF86E290E00E9430356FEF87E290E0FB
:103160000E94303560E088E290E00E9430357DDBDF
:10317000AFDF65E285E290E00E94303561E186E2F2
:1031800090E00E94303560E387E290E00C943035A7
:103190001F921FB61F9211248F939F93AF93BF93DB
:1031A00080916B04811113C080911B0290911C02CD
:1031B000A0911D02B0911E024196A11DB11D8093E8
:1031C0001B0290931C02A0931D02B0931E02BF919C
:1031D000AF919F918F911F901FBE1F9018952FB791
:1031E000F89480911B0290911C02A0911D02B09155
:1031F0001E022FBF0895CF93DF93EC01F0DF8C1BED
:103200009D0BDF91CF910895AFE0B0E0EAE0F9E1E6
:103210000C94BC31FE013196DF018AE01D928A9543
:10322000E9F787E8C82E81E0D82E7F01AE2E9F2CCB
:1032300002E911E0F60181916F018F3F09F43DC071
:10324000F894E82FE295EF70F0E021A18F7041E053
:1032500001C0440F8A95EAF7922F942B91A392A173
:10326000842F8095892382A3789400C0ECE8F1E054
:1032700031E0B12C21912F3F79F0A22FA295AF70B0
:10328000A05EB0E08C9190E02F7002C0959587957C
:103290002A95E2F780FF8EC080E0B82A330F0E1720
:1032A0001F0741F7F60182918F3F11F00E943710FE
:1032B00080EA8A95F1F7F701B0828FEFE81AF80AF1
:1032C0008CE8C81681E0D80609F0B4CF4AE050E097
:1032D0006A2D792D8DED94E00E947E32009749F0A1
:1032E0002AE0EA2DF92DADEDB4E001900D922A957A
:1032F000E1F70091DC0410E00E521B4F892B09F41A
:103300005BC081E08093D1046ADF8093CF04909307
:10331000D0048091E704811509F4A5C07E018BE0FB
:10332000E80EF11CF70185E011928A95E9F780918A
:10333000CA048A3008F063C048E355E1B701C80108
:10334000C6D9811509F47EC043E655E1B701C8012D
:10335000BED9811509F476C044E256E1B701C8012F
:10336000B6D9811509F46EC04EEE55E1B701C8011A
:10337000AED9811509F466C048E056E1B701C8012D
:10338000A6D9811509F45EC01092CA048091CE04BA
:1033900090E045E050E0B7018E529B4F0E947E3294
:1033A00021E02093CD04892B09F03FC02F96EBE05C
:1033B0000C94D831832F71CF8091D104811509F4F9
:1033C000A8CFE090CF04F090D00409DF8E199F09B8
:1033D000059708F49ECF45E050E06DED74E0C8011C
:1033E0000E947E32892B41F085E0EDEDF4E0D801BA
:1033F00001900D928A95E1F71092D1048ACFC09086
:10340000CB04D090CC04EBDE8C199D09843F914015
:1034100008F092CF8091CD04811541F2F70185E04B
:1034200011928A95E9F71092CD04A091CE04B0E0F4
:10343000AE52BB4F85E0FE013B9601900D928A95FE
:10344000E1F7B4CF8091CA048F3F31F4C8DE809396
:10345000CB049093CC04DECF8F5F8093CA048A3074
:1034600008F494CFF3CF85E0F801AAEAB4E0019024
:103470000D928A95E1F765E070E08AEA94E00E9497
:1034800018118093A90488E0E2ECF4E0A0EBB4E02A
:1034900001900D928A95E1F768E070E080EB94E08E
:1034A0000E9418118093AF04C090B804D090B90462
:1034B000E090BA04F090BB048091BE049091BF04E8
:1034C000A091C004B091C104C816D906EA06FB0653
:1034D000B1F0C092BE04D092BF04E092C004F0925A
:1034E000C1040E94E711C61AD70AE80AF90AC09275
:1034F000E904D092EA04E092EB04F092EC048091AB
:10350000BC04809397058091BD04811511F0FADC0D
:103510004DCF1ADD4BCF4F925F926F927F928F9279
:103520009F92BF92CF92DF92EF92FF920F931F93E1
:10353000CF93DF9380916404811509F43FC1C0915A
:103540005502D09156024BDE8C1B9D0BC29708F49E
:103550005AC045DE809355029093560283E692E06E
:1035600080936102909362028091E704811509F4CF
:103570003BC180E594E09FDD809197051F928F937A
:1035800089E591E09F938F93CBE2D2E0DF93CF93D5
:103590000E94943209900020E9F721970F900F9034
:1035A0000F900F900F900F900BE212E00C171D0779
:1035B000F8F089E494E07FDD80E494E07CDD0E9413
:1035C000831181FF1AC081E294E075DD82E394E00B
:1035D00072DD809151050E94560D823089F0833052
:1035E00009F4FFC0813009F4F9C080E094E00AC01A
:1035F000F80181918F01B9DCD9CF88E194E0E5CF62
:1036000082E194E058DD80915F0290916002892B05
:1036100009F4BAC080916404811509F4B5C08091A1
:1036200063048111B1C06EDC80915F0290916002F1
:10363000009709F4A9C0C82FC170D0E010E080FD48
:103640000FC041E050E01F5FEA01012E02C0CC0F25
:10365000DD1F0A94E2F79E0128233923232B99F3D7
:1036600080916A0480FF2BC1912F990F990F990FB8
:10367000392F395F80E023E09093020180930501A8
:10368000309303012093060124E630E047E050E048
:1036900060E071E088E70E94F82E892B09F074C081
:1036A00080E2189FA001112480916A0480FF19C153
:1036B000E5E3F2E080E211928A95E9F771E7672E7F
:1036C00071E0772E8DE691E04C0125E731E0D301E2
:1036D000ED913D01D4010D914D01040F152F111DE8
:1036E000F0E0EB5CFD4F80E090E067E0B62EB81AAA
:1036F000CC24C394082E01C0CC0C0A94EAF7B8017C
:103700006D597D4F2B01E12CD201FD902D01FC2044
:103710006B2D6E19677070E0AF2D062E01C0AA0FD9
:103720000A94EAF7DA2E719561957109677001C004
:10373000F6946A95EAF7DF286081D62AD082E3946E
:103740006E2D683009F7019631968830910569F63B
:103750002615370509F0BBCF04E610E020E230E083
:1037600045E352E060E488E70E94B02F892B61F4C2
:10377000C095D09580915F0290916002C823D923B3
:10378000C0935F02D093600280918D048115B1F0E7
:103790000E94E711C0916504D0916604E09167042E
:1037A000F0916804DC01CB018C1B9D0BAE0BBF0BB1
:1037B0008F3F9F4FAF4FBF4708F4C6DBDF91CF91DC
:1037C0001F910F91FF90EF90DF90CF90BF909F904F
:1037D0008F907F906F905F904F9008958CE094E071
:1037E00011CF86E094E00ECF80919705811569F1A5
:1037F00089DBC0902702D0902802E0902902F09047
:103800002A020E94E711DC01CB018C199D09AE0947
:10381000BF09893C9105A105B10560F00E94E7113F
:1038200060932702709328028093290290932A02C2
:103830000E9491100E94E71160932302709324026A
:103840008093250290932602DECEC0902302D09072
:103850002402E0902502F09026020E94E711DC018C
:10386000CB018C199D09AE09BF09813C9742A94043
:10387000B10510F069DBC7CEC0902702D0902802B6
:10388000E0902902F0902A020E94E711DC01CB01AE
:103890008C199D09AE09BF09893C9105A105B105A7
:1038A00008F4B1CE0E94E7116093270270932802BA
:1038B0008093290290932A020E949110A4CE20E2C4
:1038C000129FC0011124880F492F441F550B519599
:1038D000242F912F9295990F9076392F315E842F56
:1038E000CBCE4D595D4F04E610E020E230E03ACFF8
:1038F00076DC9C019091160580911705982B21F09C
:103900002093890430938A049091180580911905B9
:10391000982B21F02093870430938804E091EF04E2
:10392000F091F004309759F00680F781E02D309740
:1039300031F082E08093140584E195E009950895C3
:10394000611509F448C0E82FED5CE33150F4F0E074
:10395000E05AFA4C0C9449320E943E1181958093B2
:103960001705C6CF0E943E11FACF0E943E118195E5
:1039700080931605F6CF0E943E11FACF0E945E1189
:1039800080931805EECF0E945E118195F9CF0E94B9
:103990005E11819580931905E4CF0E945E11FACFE4
:1039A000815D990B21E001C0220F8A95EAF7809191
:1039B0001505822B80931505D4CF80911305816066
:1039C00080931305CECF809113058260F9CF80914B
:1039D00013058460F5CF409116058D3C59F4809114
:1039E000170587FF0DC010921705411559F4109265
:1039F000120508C08E3C81F48091170518169CF3BF
:103A0000411581F08091180590911905892B09F0D5
:103A1000A8CF10921105A5CF8F3C41F447FFF0CFFE
:103A200010921605809117058115E0CF803D19F49D
:103A30001416B4F3E5CF90911805893D29F41916B1
:103A4000FCF610921805DCCF8A3D19F497FFD8CF09
:103A5000F8CF909119058B3D29F497FFD1CF1092A3
:103A60001905CECF8C3D19F41916CCF3C9CF982F78
:103A7000915D983078F4815D990B21E001C0220FAF
:103A80008A95EAF7822F8095909115058923809376
:103A90001505B6CF8D3D31F4809113058E7F80934F
:103AA0001305AECF8E3D21F4809113058D7FF7CFA6
:103AB0008F3D09F0A5CF809113058B7FF0CF0F9339
:103AC0001F93CF93C82F811541F18450813AB8F5E7
:103AD00002E012E0F8018081C81719F1319682E006
:103AE000E830F807C1F7EFEF80E0D8019C91C917E3
:103AF00091F00F5F1F4FEF3F19F4911101C0E82FB4
:103B00008F5F863091F7EF3F31F0FE2FFF0FFF0BF5
:103B1000E050FE4FC2830E946D14CF911F910F9110
:103B20000895E2E0F2E08191C81302C0DF011E9225
:103B300082E0E830F807B9F70E946D14D4CF8C2FDB
:103B4000805E883060F4C77081E001C0880FCA953C
:103B5000EAF7C0914D05C82BC0934D05DCCF8C2FE3
:103B6000855A833030F48C2F8452990B0E94961121
:103B7000D4CFEC2FE85AEB3150F4F0E0EE0FFF1FFA
:103B8000E853FE4F808191810E94BD11C6CF8C2FDA
:103B90008D5C833110F661E08C2FD2DEBECF8115B3
:103BA000B1F1982F9450913A68F4E2E0F2E09191EB
:103BB000891302C0DF011E9292E0E830F907B9F7DD
:103BC0000C946D14982F905E983058F4982F81E0E3
:103BD00091FD84E090FD880F92FD82950E944F0E2A
:103BE000EFCF982F955A933020F480E090E00C941A
:103BF0009611982F985A9B3120F480E090E00C9415
:103C0000BD11982F9D5C933110F460E099CE08951A
:103C10001F93CF93DF93182FEB0151DF209731F4DF
:103C2000812FBDDFDF91CF911F9108958FE99FE034
:103C30000197F1F700C000002197F0CF80E090914C
:103C4000C5042091C404291731F1E92FF0E0EA53AB
:103C5000FB4F8081282F2F779F5F93709093C5042F
:103C60009091C3049F5F9093C304211541F02130CC
:103C700061F460E070E087FF0CC082E505C06AE097
:103C800070E087FF04C089EAC3DF81E0D8CF8AEA09
:103C9000FBCF81E5F9CF089510924D05E2E0F2E007
:103CA00086E011928A95E9F780E090E00E949611F3
:103CB00080E090E00E94BD11109255050E946D14A5
:103CC000E4E1F5E086E011928A95E9F71092120599
:103CD00010921105109213050BCEDEDF8FEF94E3E7
:103CE0002CE0815090402040E1F700C0000088E1C6
:103CF0009AE00FB6F894A895809360000FBE909359
:103D00006000FFCFA4E0B0E0E8E8FEE10C94BA3137
:103D10006C01FC018481811509F4CDC061E0C6010C
:103D200050D8F6012581211509F49BC3AC015150EF
:103D30005F3408F04AC0482F50E0BA01645071095E
:103D40006432710528F04B5251094E30510588F408
:103D5000E0914C05F0E0EE0FFF1FE65EFA4F408168
:103D600051814F3F3FE7530721F04F5F5F4F408343
:103D70005183211509F423C18B353CE7930709F4DE
:103D800015C18C353CE7930709F405C18A353CE73A
:103D9000930709F409C181303CE7930709F40EC188
:103DA00083303CE7930709F403C181159C4709F070
:103DB00006C172DF8FEF94E32CE0815090402040E9
:103DC000E1F700C000000E940E12AC01911509F449
:103DD000B4CF57574038510508F01FC3182F803112
:103DE00008F05AC066EF71E080E090E03CD88111A5
:103DF00053C0A12CB12C450111111EC089829A8299
:103E0000AB82BC828E010F5F1F4FC80139D8B02E24
:103E1000A12E813008F440C009F069C0C80130D833
:103E20008130E9F4C8012CD860E570E0893311F0E5
:103E300060E070E0EDDEE9CF87EF881681E098065C
:103E4000A104B10449F1B401C5010DD89FEF891A4D
:103E5000990AA90AB90A8111EFCF1150CDCF82304A
:103E600021F4C8010DD82BDED0CF833021F4C80156
:103E700007D895DECACF843069F4C80101D8E12C97
:103E8000F12C282F2053330B2A303105C0F0E114D8
:103E9000F10419F58111B9CF80915205877059F05D
:103EA000F6018581811539F08091540582FF03C0A8
:103EB00082E00E94390E2496EDE00C94D6314AE05F
:103EC0004E9DC0014F9D900D1124280F391F79017F
:103ED0008B2D9A2D0E944017D4CFEFE9FFE0319748
:103EE000F1F700C0000091E0E91AF108D0CFE82F07
:103EF000F0E0E351F64F9491792E282F26952695E0
:103F0000269530E0F901E352F64FE4908770F12CEA
:103F1000082E02C0F594E7940A94E2F7F901E353FE
:103F2000F64FA490B12C082E02C0B594A7940A9421
:103F3000E2F72354364FF9018490912C02C09594F6
:103F400087948A95E2F7E0FE02C081EEB8DDA0FE1C
:103F500002C086EEB4DD60E070E0872D59DEA0FE81
:103F600002C086EE1CDEE0FE02C081EE18DE80FE9E
:103F70004CCF60E070E08CE25DCF81E00E94750D77
:103F800043E062E081E00E94F20D86CF82E02115DD
:103F900009F46CC2F3CF80915405002482FF03948E
:103FA000802D0E94F91378CF81E0FBCF80E0F9CF1C
:103FB0006FEF7FEF80E090E00E944A358EDEF601E1
:103FC00000811181C801211509F446C00E94B41670
:103FD000F82E682FC8010E94890DB8018F2D0E940C
:103FE000A8160E94490F182FA92EF601E580F68029
:103FF000F2948FE0F82280915205877001F1BE2C77
:10400000E114F1F0892F807F803461F0812F805E90
:104010008830A8F0892F807E803221F4123078F029
:10402000F11469F08091540582FF09C082E00E947A
:10403000390E809152058770BB24B3948111B12C45
:10404000EA2DE295EF708A2D803C08F066C0F0E022
:10405000ED58FA4C0C9449320E94BF0DF82EBDCF9A
:104060000A2D0F70803110F00295007FE114B9F035
:10407000011569F0812F805E883010F0111109C0A0
:1040800080914D05802B80934D050E946D14812FEA
:104090003EC080915505802B80935505F6CF812F2A
:1040A0007EDD0115D1F1812F805E883010F0111175
:1040B00004C0802F0E944F0E06C0009580915505C8
:1040C0008023809355050E946D1427C00A2D0F7020
:1040D000807F803211F00295007F113040F009F4AA
:1040E00063C0E11409F46EC0F11499F1D0CF80914E
:1040F000540582FD2AC0E11461F0011539F0809168
:104100004D05802B80934D050E946D1480E0D7DC17
:1041100004C080E044DD0111CCCFB11409F4AFC07C
:104120008091520580FDABC0F6011582869586957B
:1041300086950E94750DC601E5DD80915205869534
:10414000869586950E947E0D9AC0E11499F0F11033
:1041500004C0802F0E94AB14E0CF8F2D8130E9F690
:1041600080914E05902F98230917B9F2802B8093E8
:104170004E05D3CFF110D1CF802F0E94B41490916F
:104180004E05802F892329F0802F809589238093E5
:104190004E0580914F05902F982309F4BECF0095CE
:1041A000082300934F05B9CF8F2DE11421F08630FD
:1041B00008F0B3CFCECF853008F0AFCF802F0E946C
:1041C000B414ABCFF114D1F3193349F48FEF97EE58
:1041D00023E0815090402040E1F700C00000812F93
:1041E000DEDC9BCF869586958370813060F009F088
:1041F00094CF812F9A2D9370E11002C080E090E05F
:104200000E94BD118ACF812F9A2D9370E11002C0B8
:1042100080E090E00E94961180CF6E2D812F90DB80
:104220007CCF8370E1F5E11028C0812F82958695BF
:104230008770880F880F412F4F70082E01C0440FE0
:104240000A94EAF7212F207114FF06C02FE001C065
:10425000220F8A95EAF720958A2D86958695837098
:10426000982F8230A1F08330B9F0809150059130C1
:1042700059F0242B82230E94680D0E94831160E074
:10428000C6010E94E11617CE842B822BF4CF242B7B
:10429000809150058227EFCF822F842BECCFE11441
:1042A00059F1A0FEEACF812F829586958770880FFD
:1042B000880F412F4F70082E01C0440F0A94EAF76F
:1042C000212F207114FF06C02FE001C0220F8A9514
:1042D000EAF720958A2D869586958370982F8230EF
:1042E00089F08330A1F080915105913041F0242B69
:1042F00082230E946B0DC1CF8230A8F6BECF842BE3
:10430000822BF7CF242B809151058227F2CF822F69
:10431000842BEFCF8F70082FE11431F00E94750DC0
:10432000812F0E94AB14A9CF812F0E94B414802F3B
:104330000E947E0DA2CF123F79F168F4103FC1F0C8
:10434000113F89F0E11409F455C0F11409F44FC08C
:10435000812FB5DB92CF133F29F1143F99F790914C
:10436000540592FD2CC08A2D8F71E11409F317C0FA
:104370008F2DE11479F0853008F07FCF8A2D8F7171
:10438000282F81E001C0880F2A95EAF79091510506
:104390008927AFCF8630F0CF8F71E110C9CF0E944F
:1043A000750D6BCF80E0E11409F4A3CF8A2D8F71D6
:1043B000982F81E001C0880F9A95EAF79ACFE1140F
:1043C00059F08F7192FFEBCF982F990F990F990F9A
:1043D000936090935205E3CF81E00E94390E8F2DB8
:1043E000823008F44ACF82E00E94390E46CF8A2DEF
:1043F0008F71D5CFF11471F0193349F48FEF97EE27
:1044000023E0815090402040E1F700C00000812F60
:10441000C6DB33CF8A2D8F718BCF87373CE793076D
:1044200009F4ABCD88373CE7930709F4AFCDAC0175
:10443000405E52454032510508F09BCC2111B0CC72
:104440008F7101E010E002C0000F111F8A95E2F7A2
:10445000602F83E090E00E943035802F0E94680D2D
:104460001BCD87373CE79307E9F681E00E947E0D7C
:1044700087CD80919605803170F4809195058115E6
:1044800051F0E091570520915605309191054091EA
:1044900090052E1301C00895BF0187E0E89FF00149
:1044A0001124DF01A85ABA4F14968C9114978115E4
:1044B00051F111968C911197831325C08C9184131F
:1044C00022C015968C91159781111DC012968D9161
:1044D0009D91A0919205B09193058A1B9B0B843608
:1044E000910588F4809196058F7080618093960580
:1044F000E25AFA4F80818F708061808380E995E075
:1045000001DC0C942F0E6F5F7F4FFB01E770C1CF72
:10451000ADE0B0E0EEE8F2E20C94BA318C0186E056
:10452000F801DE01189601900D928A95E1F7F801E5
:10453000F580848190E9892E95E0992E70909405FC
:10454000711017C0811591F0F11409F4F9C0C80178
:104550000E940817811509F4F3C087E0F801A0E96B
:10456000B5E001900D928A95E1F783DFFF24F39483
:1045700055C0D080A280B380C0909505209192054F
:1045800030919305A501421B530BC11409F4BBC024
:104590004436510508F076C0811541F380919105AC
:1045A0009180E09096059E2D903108F057C09812AA
:1045B00014C0809190058D1110C0F11049C08E2D4E
:1045C0008F7080618093960580E995E09BDB8091F8
:1045D0009605F8018683F12C21C0F11039C040E026
:1045E000692D8D2D0E94100E40E0692D8D2D0E94A9
:1045F000100EF82E8111EFCF888599850E94FE1646
:10460000292F22952F70903470F49F70223098F0EB
:104610009115A9F0F8019681903188F48F2D2D968F
:10462000EDE00C94D6312A5F2F70223060F0C80183
:1046300069DBFC2CF3CF911511F0811579F3805EC5
:10464000883060F3F4CF803F48F3815F8330F9CF47
:1046500080919605816080939605BDCF981237C0F2
:10466000809190058D1133C0F11031C0E682C801F0
:1046700049DB87E0F801A0E9B5E001900D928A9549
:10468000E1F774CFE09096059E2D903148F480E9D3
:1046900095E038DBF40187E011928A95E9F79BCF2A
:1046A000811509F463CF90919105818198130FC012
:1046B000809190058D110BC0F11009C0E682C801F0
:1046C00021DBF40187E011928A95E9F74FCFC80109
:1046D0000E9408178115A1F1F11491F18E2D8032FD
:1046E00008F43BCF809190059091910589839A833E
:1046F000AB82BC827D821E82809196058F83CE0123
:10470000019600DB2ACF4436510520F6811509F4C5
:104710002DCFF114A9F0909191058181981306C0D5
:10472000809190058D1102C087E0A5CFC8010E943D
:104730000817811112CF80919605816080939605AC
:10474000C801E0DA13CFABE1B0E0E9EAF3E20C94A0
:10475000C3314E8B5F8B688F798F8A8F192F9B8F18
:104760009111109255051D8A86E0FE017696DE01B4
:104770001F9601900D928A95E1F70A8D011561F05F
:104780000B8B1C8B61E0CE010F960E94E11661E05D
:10479000CE010F960E94E1160B8B1C8B87E0FE0169
:1047A0003F96DE01189601900D928A95E1F7CE01B1
:1047B0000896AEDE81112EC0209156053091570526
:1047C00087E0AE01485F5F4FFA0147505109DA01B7
:1047D00001900D928A95E1F78C858115D9F0822F91
:1047E00090E08395877090E0AC0134171506E1F0F6
:1047F00097E0929FD0011124A85ABA4F9E012F5FD3
:104800003F4FF90101900D929A95E1F740935605BB
:104810000E942F0E8091570590915605891310C064
:104820006B96E4E00C94DF3137DA10925605109263
:104830005705E0E9F5E087E011928A95E9F7EACFBC
:1048400027E0829FC0011124885A9A4F61DE8115AA
:1048500039F38091570590915805019687708093A0
:104860005705D8CFA6E0B0E0E8E3F4E20C94C331FA
:104870000E94EF188C018091ED049091EE04801756
:10488000910771F019821A820E94EF18BC014981C8
:104890005A8180E090E057DF0093ED041093EE041E
:1048A0002696E4E00C94DF31AAE2B0E0EAE5F4E217
:1048B0000C94C4318BE092E0FC0101962091F10050
:1048C000208322E083319207B9F780910C0289306E
:1048D00009F459C0C8F4823009F4B7C0833009F430
:1048E00086C0813089F18091E80083FFEBC0809120
:1048F0000B0290910C029A3008F0E4C0E92FF0E02E
:10490000E158FA4C0C9449328A3009F48DC08B304E
:1049100051F780910B02813231F780910F02909113
:104920001002892B01F78091E800877F8093E800CF
:104930000E94AA1281E090910D02911101C080E0C5
:1049400080930901A9D9CFCF80910B02813A59F602
:104950008091E800877F8093E80080910F0290911A
:104960001002892B61F060E080E090E070E00E942E
:1049700020128091E8008B778093E800B4CF68E044
:1049800083E192E0F3CF80910B02813209F0ABCF4B
:1049900080910F02909110028D7F892B09F0A3CF97
:1049A0008091E800877F8093E8008091E80082FF93
:1049B00019C02091F3008091F200922F029731F4F8
:1049C0008091F100813011F0863021F48091F10066
:1049D000809308018091E8008B778093E8000E9423
:1049E000AA1281CF80918C048111DFCF7CCF80917E
:1049F0000B02813A09F077CF80910F02909110025B
:104A0000892B09F070CF8091E800877F8093E800C0
:104A10008091E80080FFFCCF809109018093F10034
:104A20008091E8008E77D9CF80910B02813209F016
:104A30005ACF8091E800877F8093E8000E94AA12F5
:104A400080910E02809307014ECF80910B02813A34
:104A500009F049CF8091E800877F8093E80080913A
:104A6000E80080FFFCCF80910701D8CF803889F023
:104A7000823841F580910F028F70873018F580934E
:104A8000E9008091EB0085FB882780F91092E9000E
:104A900006C080916C04880F90910802892B909138
:104AA000E800977F9093E8008093F1001092F10066
:104AB0008091E8008E7723C0811116C080910D028D
:104AC000813011F18091E80083FF0AC08091E800F5
:104AD000877F8093E8008091EB0080628093EB00F9
:104AE000AA96E3E00C94E031823061F780910D02E8
:104AF000811581F01092E9008091E800877F809312
:104B0000E8000E94AA12DECF933009F080E0809383
:104B10006C04F0CF80910F028F70282F2150263027
:104B200088F68093E9002091EB0020FFE3CF9330DB
:104B300031F48091EB0080628093EB00DBCF9091A9
:104B4000EB0090619093EB0021E001C0220F8A9569
:104B5000EAF72093EA001092EA008091EB00886067
:104B6000EBCF8111AFCF80910D028F77182F8091FD
:104B7000E3008078812B8093E3008091E800877FB9
:104B80008093E8000E94AA128091E80080FFFCCF89
:104B90008091E30080688093E30083E0111101C0FD
:104BA00082E080938C048ECF8058823008F08ACFC8
:104BB00080910D0290910E028C3D23E0920791F5B9
:104BC00083E08A838AE289834FB7F894DE011396E3
:104BD00020E03EE051E2E32FF0E050935700849153
:104BE00020FF03C082958F703F5F8F708A30C0F0C6
:104BF000895C8D931D922F5F243169F74FBF80919F
:104C0000E800877F8093E8006AE270E0CE010196B9
:104C10000E9420128091E8008B778093E80052CFA9
:104C2000805DE7CF292F30E02330310509F44EC0F5
:104C300078F52130310509F47DC08BE590E0EDE891
:104C4000F1E02230310509F03DCF2091E800277FC7
:104C50002093E800209111023091120282179307ED
:104C600008F49C0140E02115310509F068C04111AC
:104C700066C08091E80082FDCDCF80918C048115C3
:104C800049F2853039F28091E80083FFF2CFC2CF3C
:104C900080910F02909110022132310509F43BC03E
:104CA0002232310509F00ECF8330910508F00ACF8A
:104CB000FC01EE0FFF1FEF59FE4F0190F081E02D38
:104CC000825A9E4FDC018C9190E011C0282F30E079
:104CD000813089F022303105B1F0232B09F0F2CE7A
:104CE000ECE1F2E0E4918E2F90E0ECE1F2E000974D
:104CF00009F4E8CEAACFEAE0F2E0E4918E2F90E04A
:104D0000EAE0F2E0F4CFEAEFF1E0E4918E2F90E0F8
:104D1000EAEFF1E0ECCF8330910508F0D3CE880FB5
:104D2000991FFC01E959FE4F0190F081E02D89E0C7
:104D300090E08BCF82E190E0E8EEF1E086CF8091C9
:104D40008C04811509F466CF853009F463CF809116
:104D5000E80083FD5FCF8091E80082FD8ACF8091DB
:104D6000E80080FF80CF4091F3008091F200942F03
:104D70002115310519F08830910550F041E0089770
:104D800009F040E08091E8008E778093E8006BCFD7
:104D900044914093F1003196215031090196E8CFBA
:104DA000803809F08FCE8091E800877F8093E800FB
:104DB000809109028093F1007BCE811183CE809196
:104DC0000D02182F823008F07DCE8091E800877F99
:104DD0008093E800109309020E94AA121115F9F0BD
:104DE00084E080938C0442E061EC81E00E947A12BE
:104DF00042E261EC84E00E947A1242E261EC82E0DD
:104E00000E947A1242E260EC83E00E947A12809162
:104E10008C04843051F482E080930A0153CE809157
:104E2000E30087FDDDCF81E0DCCF81E0F5CFCDB7BA
:104E3000DEB7A4970FB6F894DEBF0FBECDBF85B71F
:104E4000806885BF85B7806885BF84B7877F84BF4A
:104E50000FB6F894A89580916000886180936000F7
:104E6000109260000FBE80E890E00FB6F894809337
:104E70006100909361000FBE81E080930A0185E399
:104E800090E18093FE019093FF010E9449130E94DC
:104E9000FA128091E20084608093E200789480911D
:104EA0008C04811591F08091E9001091EC008F70D5
:104EB00010FB112717F9182B1092E9008091E800D8
:104EC00083FDF2DC1F701093E90082E084BD93E063
:104ED00095BD9AEF97BD80936E001092E9041092F1
:104EE000EA041092EB041092EC040E945E17811108
:104EF00002C00E94A31888EC90E02091E30027FDF7
:104F00000EC0EFE3FCE93197F1F700C00000019714
:104F1000A1F70E94491310928C0480E001C081E047
:104F20008093E7048093E80480930B0181110E9431
:104F30005230E2ECF4E088E011928A95E9F7809132
:104F40000B011092840480910B0191E089278093DA
:104F5000860490910B0190910B019111B5C08111C4
:104F6000A1C084E0809383048FE891E00197F1F77A
:104F700000C0000010E080918604181708F4AAC051
:104F800080910B0180910B0190E0811101C095E0AF
:104F90009093DC0485E0891B8093CE0407E811E040
:104FA000F80181918F018F3F11F00E94371081E04D
:104FB0000C381807A9F76CE8E62E61E0F62E02E936
:104FC00011E0F70181917F018F3F11F00E943710AE
:104FD0000E151F05B1F7E2EDF4E08AE011928A9513
:104FE000E9F7EDEDF4E08AE011928A95E9F780E0C7
:104FF00090E00E941C35833E9E4F21F40E945E1774
:10500000811129C063EE7EEF80E090E00E944A3576
:1050100060E082E090E00E94303581E080935005AE
:1050200061E083E090E00E94303560E074E184E06C
:1050300090E00E944A350E94A31860E070E0AB0146
:105040008FE090E00E94423560E070E0AB0183E1C8
:1050500090E00E94423582E090E00E9414358093F7
:105060006D0484E090E00E941C358093530590937A
:1050700054050E9404198FEF96E721E0815090407B
:105080002040E1F700C000000E9404198091D20482
:1050900080FF32C06FEF7FEF80E090E00E944A35E2
:1050A0000E940E1284EF80935E0284E980935D0279
:1050B00084E08093830460E080E00E94DB1061E084
:1050C00080E00E94DB1050CF94E090938304811124
:1050D000F2CF4ACF60E0812F0E94FB10082F61E0E1
:1050E000812F0E94FB10E12FF0E0EB57FB4F880F60
:1050F000802B80831F5F3FCF83E090E00E941435B8
:105100000E94680D8091E70491E08927880F8093C1
:105110006A0480E88093690438D66BE070E082EB23
:1051200099E00E9475178115E9F180916A0465E0A4
:1051300070E081FDA3C08DEA99E00E94751781158A
:1051400089F16DE070E08BE999E00E947517811597
:1051500049F10E94E711DC01CB0180549B42AE4F24
:10516000BF4F8093650490936604A0936704B09347
:105170006804E3E6F2E0DF0180E092E01D9201972F
:10518000E9F7E0936102F09362028FEF9FEF809363
:105190005F029093600281E08093640480938D04A9
:1051A000109263048091E704811101C07ED78CE0E6
:1051B00091E08093EF049093F00410E45E018FEF90
:1051C000A81AB80A80918C04853049F480918C0427
:1051D000853009F456C00E944C1E0E9483110E9423
:1051E00004194EE6E42E44E0F42E52EDC52E54E0B0
:1051F000D52EF601D7019D91808128E734E02A174A
:105200003B0709F474C031969817A9F34090E7045E
:1052100000E088248394F60191906F01F70151908A
:105220007F01591419F1592466246394712C852D3A
:105230008621A9F0411499F079820A830E94EF181F
:105240008B839C838D8291E0892D862109F490E0E7
:105250009E8349815A816B817C818D8174DA73943C
:10526000660C872D863019F7F70192920F5F0A308E
:1052700091F60E94F311992493943DC088EA99E035
:105280005CCF80918C04843029F10E94A417109285
:105290006B0488E190E00FB6F894A89580936000C5
:1052A0000FBE1093600083B7817F846083BF83B794
:1052B000816083BF7894889583B78E7F83BF0FB654
:1052C000F894A895809160008861809360001092A6
:1052D00060000FBE0E940419E2EDF4E080818111AC
:1052E00098C3319684E0EC3DF807C1F76FCF98136F
:1052F0008DCFB8DA912C0091E704011509F4C0C0F4
:1053000040901A0550901B05652C660C6608762C9B
:1053100000911801EAE1F5E081E090E00817190634
:105320000CF0BEC0C0907E04D0907F04E09080045A
:10533000F09081040E94E7116C197D098E099F0984
:1053400069A37AA38BA39CA39201A30177FE03C058
:1053500020E030E0A901A0E6BAEE0E9456326B01CF
:105360007C0128EC029FC001112429A13AA14BA184
:105370005CA1092E000C0008280F391F401D501D8C
:10538000A5E0B0E00E9456329B01AC01B601C70116
:105390000E940B3269017A0181EFC816D104E10441
:1053A000F10410F030EFC32E89A19AA1ABA1BCA1EA
:1053B000893C9105A105B1050CF180914C0590E067
:1053C000019669E170E00E94F83180934C05880FE6
:1053D000991F865E9A4FFC0110821182083108F0F5
:1053E00007E10F5F009318010E94E71160937E04AC
:1053F00070937F04809380049093810482E0481628
:105400005104610471040CF4C12C40907A04509052
:105410007B0460907C0470907D040E94E711641905
:105420007509860997092B013C0185E64816510448
:105430006104710484F00E94E71160937A04709310
:105440007B0480937C0490937D04809197058093E6
:105450007904C092780400917904A0917804A01B8B
:10546000BB0B9201A3010E94603224E630E040E0D1
:1054700050E0F3D7020F009397050E941E1E082FDD
:1054800080919A04811551F010929A048091C4047D
:105490008093C5048091C2048093C304712C55C0CD
:1054A000329620813181032E000C0008420E531EDB
:1054B000601C701C019632CF61E0872D0E94FB10AA
:1054C000F82E60E0872D0E94FB10FF0C8F29272DFE
:1054D00030E0D901AB57BB4FEC919E2F93708917E9
:1054E00099F1EE0FEE0FE82BEC9360908404670CBB
:1054F000EF70F0E0EB58FE4F2E573B4F2901E08054
:10550000F9018081E80EFE2CFF0CFF08E62DF0E08B
:10551000ED57FB4F8081C82ED12CE816F10424F002
:1055200060E0862D0E94BB10882799278C199D0961
:105530008E159F0524F061E0862D0E94BB10C701E7
:10554000B60156D7F2018083739480918604781651
:1055500008F4B2CF8091E704811519F00E941E1E55
:10556000082B011539F00E94F3110E948B1A0E943A
:10557000821704C00E948B1A9110F9CF86E0E4E1F3
:10558000F5E0D50101900D928A95E1F7709015052F
:10559000C09016050091170590901805D090190538
:1055A0001092160510921705109218051092190501
:1055B000802F8C2909F441C0E0908904F0908A047E
:1055C0000E94EF188E199F099C0190911205911568
:1055D00009F41AC22531310580F19F3F19F09F5F10
:1055E00090931205C11459F00E943E1191E01C14D1
:1055F0000CF09FEF899F802D1124809316050115D3
:1056000059F00E943E1191E010160CF09FEF899F17
:10561000802D11248093170580911605811569F05E
:10562000F0901705F11449F00E943011809316058F
:105630008F2D0E94301180931705892D8D2909F433
:1056400041C0E0908704F09088040E94EF188E1902
:105650009F099C0190911105911509F4D0C1213544
:10566000310580F19F3F19F09F5F909311059114D0
:1056700059F00E945E1191E019140CF09FEF899F80
:10568000802D112480931805D11459F00E945E11C9
:1056900091E01D140CF09FEF899F802D11248093C1
:1056A000190580911805811569F0F0901905F1141C
:1056B00049F00E943011809318058F2D0E943011FF
:1056C0008093190580911505781219C080911605EF
:1056D000811511F08C1113C020911705211511F0BF
:1056E00020130DC090911905911511F09D1107C05F
:1056F00030911805311103C0822B892B11F00E94C3
:10570000781C86E0F501A4E1B5E001900D928A9540
:10571000E1F70E94831190918B04891721F0809307
:105720008B040E94E71180918C04843009F04ACDEB
:1057300083E08093E9008091E80082FF43CD80916F
:10574000E80090E085FF05C00E94C912811589F02C
:1057500091E08091E8008B778093E800911509F43F
:1057600031CDE981E150E33170F5F0E0E757FA4CD3
:1057700090C680E2C82ED12C75018091E80085FD8D
:105780000AC08091E8008B778093E8000E94C912DC
:10579000811599F3DDCF8091F100F701808381E0DD
:1057A000C81AD108A9F28FEFE81AF80AE6CF1A82D0
:1057B0008CE08B831AC08A81833081F138F4813088
:1057C00029F1823051F08FEF89830FC08430D9F7EF
:1057D0001B821C821D821E8208C088E290E00E940B
:1057E00014351B821C821D828E83E091EF04F091A0
:1057F000F004309709F4E6CC0284F385E02D30976D
:1058000009F4E0CC60E2C5010995DCCC0E94E71107
:1058100046D66B837C838D839E83E7CF8B8190E01C
:10582000FE0134968A30910504F711920196FACF61
:105830008A81823019F08530C1F2C5CF6B817C81BD
:105840008D819E812CD688E290E00E943035CDCFAC
:105850004C816B818A810E947E169C013827232708
:1058600032272D833E83C1CF2D813E8132272327CE
:1058700032274C816B818A810E940F14B6CF0E941F
:105880003514B3CF80E18A83B0CF81E08A8387EF7C
:1058900090CF4A805B80542445245424612C712C81
:1058A00075018C816501C80ED11CEC14FD0409F44E
:1058B0009CCF87EF481681E058066104710480F49C
:1058C000C201875F9D4F0E941435F70184838FEFDB
:1058D000E81AF80A8FEF481A580A680A780AE5CFDA
:1058E00080E0F3CF0C814A805B805424452454240B
:1058F000612C712C450163017301C016D104E104D0
:10590000F10408F072CF87EF481681E05806610471
:10591000710438F4F4016481C201875F9D4F0E94D5
:1059200030358FEFC81AD80AE80AF80A8FEF481AFC
:10593000580A680A780A8FEF881A980ADECF0E9400
:10594000681853CF84E09FCF0C814A805B80542439
:1059500045245424612C712C630173014E0185E0B0
:10596000880E911CC016D104E104F10408F03DCF6B
:1059700080EE481681E058066104710490F4C2017B
:1059800089960E941435F40181934F018FEFC81A54
:10599000D80AE80AF80A8FEF481A580A680A780AFB
:1059A000E1CF80E0F0CF0C814A805B805424452415
:1059B0005424612C712C450163017301C016D1047C
:1059C000E104F10408F011CF80EE481681E058069A
:1059D0006104710430F4F4016481C20189960E946B
:1059E00030358FEFC81AD80AE80AF80A8FEF481A3C
:1059F000580A680A780A8FEF881A980ADFCF2B3086
:105A0000310508F031CE5ECE2B30310508F0E7CD00
:105A100014CE80916C04811509F4D8CB80E189BD46
:105A200082E189BD09B400FEFDCF8091D8008F7D51
:105A30008093D8008091E00082608093E0008091A4
:105A4000E00081FDFCCF0E944C1EC0CB78941F92D9
:105A50001FB61F9211248F939F93AF93BF93809192
:105A60001B0290911C02A0911D02B0911E02019692
:105A7000A11DB11D80931B0290931C02A0931D02D7
:105A8000B0931E02BF91AF919F918F911F901FBE47
:105A90001F9018951F920F920FB60F9211242F93FB
:105AA0003F934F935F936F937F938F939F93AF93A6
:105AB000BF93EF93FF938091E10082FF09C0809133
:105AC000E20082FF05C08091E1008B7F8093E100BE
:105AD0008091DA0080FF24C08091D80080FF20C030
