:100000000C943F0D0C945C0D0C945C0D0C9405301D
:100010000C945C0D0C945C0D0C945C0D0C945C0DBC
:100020000C945C0D0C945C0D0C94E02C0C94C82D7D
:100030000C94C9170C945C0D0C945C0D0C945C0D25
:100040000C945C0D0C945C0D0C945C0D0C945C0D8C
:100050000C945C0D0C94BC2C0C945C0D0C945C0DFD
:100060000C945C0D0C945C0D0C945C0D0C945C0D6C
:100070000C945C0D0C945C0D0C945C0D0C945C0D5C
:100080000C945C0D0C945C0D0C945C0D0C945C0D4C
:100090000C945C0D0C945C0D0C945C0D0C945C0D3C
:1000A0000C945C0D0C945C0D0C945C0D0501090224
:1000B000A10185020901A1000509190129081500FE
:1000C0002501950875018102050109300931158165
:1000D000257F95027508810609381581257F9501D0
:1000E00075088106050C0A38021581257F95017572
:1000F000088106C0C005010980A101850319012AF4
:10010000B700150126B700950175108100C0050CD8
:100110000901A101850419012AA002150126A002E6
:10012000950175108100C00660FF0961A101096297
:10013000150026FF00952075088102096315002629
:10014000FF00952075089102C005010906A101056F
:100150000719E029E7150025019508750181029529
:1001600001750881010507190029FF150026FF0008
:100170009506750881000508190129051500250156
:10018000950575019102950175039101C009025B06
:1001900000030100A0FA09040000010301010009A5
:1001A0002111010001224400070581030800010913
:1001B00004010002030000000921110100012222B4
:1001C0000007058203200001070503032000010941
:1001D0000402000103000000092111010001227B3B
:1001E000000705840320000112010002000000083E
:1001F000D8042DEB0001010200010E034C00690040
:100200006C00790035003800000010036C006900B4
:100210006C00690075006D007300000004030904A0
:1002200029001E001F002000210022002B001400C6
:100230001A00080015001700E0000400160007006F
:1002400009000A00E1001D001B000600190005005E
:100250000000E200E30021522C002F0035002700AF
:1002600026002500240023002D00130012000C009E
:1002700018001C00340033000F000E000D000B00AE
:10028000E500380037003600100011000000E700DC
:100290002A00225228003000010001000100010064
:1002A000010001003A003B003C003D003E003F00E1
:1002B00035001E021F02200221022202010001005D
:1002C0000100010001000100000001000100010027
:1002D0000100010001000100010001000100010016
:1002E000450044004300420041004000350227021F
:1002F0002602250224022302310230022F022E029E
:100300002D020000000001000100010001000100B9
:1003100001000100010001000100010035001E0084
:100320001F002000210022003A003B003C003D005D
:100330003E003F00400041004200430044004500B1
:1003400000000100010001000100010001000100A6
:100350000100010001000100010027002600250026
:100360002400230000004F00520051005000000004
:10037000310030002F002E002D002E020000010061
:100380000100010001000100000000000000000069
:10039000000000000000000000000000000000005D
:1003A000000000000000000000000000000000004D
:1003B000000000000000000000000100010001003A
:1003C000010000000000000000000000000000002C
:1003D000000000000000000000000000000000001D
:1003E000000000000000000000000000000000000D
:1003F00000000000000001000100010001000000F9
:1004000000AE00AF0000000000003E5B4F5B3E000E
:100410003E6B4F6B3E001C3E7C3E1C00183C7E3CFD
:1004200018001C577D571C001C5E7F5E1C000018C6
:100430003C180000FFE7C3E7FF0000182418000085
:10044000FFE7DBE7FF0030483A060E00262979294E
:100450002600407F05050700407F05253F005A3CE8
:10046000E73C5A007F3E1C1C0800081C1C3E7F0015
:1004700014227F2214005F5F005F5F0006097F0186
:100480007F00006689956A0060606060600094A2E9
:10049000FFA2940008047E04080010207E201000B3
:1004A00008082A1C0800081C2A0808001E10101042
:1004B00010000C1E0C1E0C0030383E383000060EAA
:1004C0003E0E060000000000000000005F0000007B
:1004D000000700070000147F147F1400242A7F2ADD
:1004E00012002313086462003649562050000008A9
:1004F00007030000001C224100000041221C0000F4
:100500002A1C7F1C2A0008083E0808000080703062
:1005100000000808080808000000606000002010C3
:10052000080402003E5149453E0000427F40000061
:100530007249494946002141494D33001814127F40
:1005400010002745454539003C4A494931004121C1
:1005500011090700364949493600464949291E0014
:1005600000001400000000403400000000081422C5
:100570004100141414141400004122140800020154
:10058000590906003E415D594E007C1211127C0053
:100590007F49494936003E41414122007F41414166
:1005A0003E007F49494941007F09090901003E4158
:1005B000415173007F0808087F0000417F4100001F
:1005C0002040413F01007F08142241007F4040400D
:1005D00040007F021C027F007F0408107F003E4124
:1005E00041413E007F09090906003E4151215E005C
:1005F0007F091929460026494949320003017F0134
:1006000003003F4040403F001F2040201F003F406C
:1006100038403F00631408146300030478040300A7
:100620006159494D4300007F4141410002040810D7
:100630002000004141417F000402010204004040CB
:100640004040400000030708000020545478400058
:100650007F2844443800384444442800384444281F
:100660007F0038545454180000087E0902001824F2
:10067000241C78007F080404780000447D400000BA
:100680002040403D00007F102844000000417F4092
:1006900000007C04780478007C0804047800384466
:1006A000444438007C1824241800182424187C00A2
:1006B0007C080404080048545454240004043F44B3
:1006C00024003C4040207C001C2040201C003C407A
:1006D00030403C004428102844004C9090907C000E
:1006E0004464544C44000008364100000000770088
:1006F00000000041360800000201020402003C260E
:1007000023263C0000000000008080808000000064
:10071000000080E070180C1830E080000010F890A5
:100720001030783010B8FC3810000000000000F8DD
:10073000FCF8000000000000000000000000001CA9
:100740009C1C00000000F8FCF80000000000001CE9
:10075000FCF8C000000000000080E0F87C1C0000F5
:1007600000F0FCFCFC1C1C1C1C1C1C1C1C000000C5
:10077000000000C0F0F8381C1C1C1C1C1C3CF8F0CD
:10078000E000E0F0F0F0E0ECEEF7F37020007C7CAD
:100790007C7E007E7E7E7F7F7F000080C0E07E5B6F
:1007A0004F5BFEC00000C000DCD7DEDEDED7DC0021
:1007B000C000000000000000000000000000000079
:1007C0000000000000000000000FBCE08181818378
:1007D0008382870C183060C000001FFE90B9FFBBF9
:1007E00091983C1811133F1100000000000000FF19
:1007F000FFFF00000000000000000000000000FFFC
:10080000FFFF00000000FFFFFF00000000000000ED
:1008100000030F7FF8E080F0FC3F0F0100000000B4
:10082000003F3F3F1C1C1C1C1C3C78F8F0E0800083
:10083000000000C3E7FF7E3C3878787070F8FFDF77
:1008400087000F1F3F7F7F7F7F7F3F1E0C001F1F92
:100850001F3F003F3F3F7F7F7F00307B7F7830200E
:100860002030787F3B0003000F7F0F0F0F7F0F00BA
:100870000300000000000000000000000000000075
:1008800000000000183C24666341C18180808080A4
:10089000808081C14162386C4CC6818180808080BB
:1008A0008081C14362361C1800000000000000FF78
:1008B000FFFFC0C0C0C0C0C0C0C0C0800000007F7B
:1008C000FF7F000000007FFFFFC080000000E0E02D
:1008D000C0C0C0E0F97F1F0700000000000000005A
:1008E0000070F0E0E0C0C0C0C0E0F0F87F3F0F0053
:1008F00000000F3F7FF9E0E0C0C0C0C0C0E0F97F5A
:100900003F1F000000000000000000000000000089
:1009100000000000000000000000000000000000D7
:1009200000000000000000000000000000000000C7
:1009300000000000000000000000000000000000B7
:100940000000000000DA0281FFD9F1DB20A4A62E0E
:10095000AF00A0C0D30000A1C8D30000AED580A8CE
:100960001F408D1420000000000000000000000067
:100970000000000000000000000000000000000077
:10098000000000000000000000007E0F00D4FFFF08
:10099000FFC70000007800000000000000002A2BC4
:1009A000280000000000000000000000000000001F
:1009B0000029000000002C1E342021222434262788
:1009C000252E362D3738271E1F20212223242526A9
:1009D0003333362E37381F0405060708090A0B0C77
:1009E0000D0E0F101112131415161718191A1B1CBF
:1009F0001D2F3130232D350405060708090A0B0C7D
:100A00000D0E0F101112131415161718191A1B1C9E
:100A10001D2F3130354C000000000000E0CE9CF866
:100A2000FCFE80E02000000000000000000000004C
:100A30000000000000000000000000000000008036
:100A400080C0C0E0E0F0F0F8FCFEFCF8F0E0E0C0B0
:100A5000C080808000000000000000000000000056
:100A60000000000000000000000000000000000086
:100A70000000000000000000000000000000000076
:100A80000000000000000000000000000000000066
:100A900000000000000001010101020238F7F7F731
:100AA000F7F7F731000810101010202020204040E8
:100AB00040408080F0F8DC363EEEFCE09CFEFFFF1C
:100AC000FFFFFFCFCFFFFFBF7F7FBFFFFF7FFFFF96
:100AD000FFFFFFFFFFFFFFFEFEFCFCFCFCFEFEFF36
:100AE000FFFF3F00000000808000000000000000C9
:100AF00000000000000000000000000000000000F6
:100B000000000000000000000000000000000000E5
:100B10000000000000000000000000000003070FBC
:100B20000F0F01000000000000000080C0E030381E
:100B30002C44C4C4687859899191D3F3A3232727FF
:100B4000C7C74F4F8F8F9F9F1F1F3F3E3E3F7F7FE7
:100B50007F7FFCFCFFFFFFFFFFFFFFFFFFFFFFFFAB
:100B6000FFFEF8E000003F1F0783C0E0E0C0000088
:100B70000000000000000000000000000000000075
:100B80000000000000000000000000000000000065
:100B90000000000000000000000080C0603010185D
:100BA0000808081810306040C0868785C449693E2F
:100BB0000E131113123C2C2627456878589D9793E5
:100BC000E362343C2C26C7C56939191D36A2E2629E
:100BD00024183C7E7F7F7FBF3F1F1F8FE76327273F
:100BE0004747CFCF0F081010111121232321404078
:100BF0004040808080800000000000000000000075
:100C000000000000000000000000000000000000E4
:100C100000000000000000000000000000000000D4
:100C2000000000000000000000E0CE9CF8FCFE8008
:100C3000E0200000000000000000000000000000B4
:100C40000000000000000000000000008080C0C024
:100C5000E0E0F0F0F8FCFEFCF8F0E0E0C0C08080DE
:100C60008000000000000000000000000000000004
:100C70000000000000000000000000000000000074
:100C80000000000000000000000000000000000064
:100C90000000000000000000000000000000000054
:100CA00000000001010101020238F7F7F7F7F7F73A
:100CB00031000810101010A0A0202040464F5F9F68
:100CC0009C9080C0E0F0F8F8FCFCFEFFFFFFFFFF07
:100CD000CFCFFFFFBF7F7FBFFFFF7FFFFFFFFFFF84
:100CE000FFFFFFFF7EBEBCBC7CFCFEFEFFFFFF3FA4
:100CF00000000000000000000000000000000000F4
:100D000000000000000000000000000000000000E3
:100D100000000000000000000000000000000000D3
:100D20000000000000000000000003070F0F0F018B
:100D3000000000000000070F8FC7E331382C046467
:100D4000F8FEFFFFFFFFFF7FBF8F272727C7C74F93
:100D50004F8F8F9F9F1F1F3F3E3E3F7F7F7F7FFCB8
:100D6000FCFF81FAFFE6E7FDFFFCF3FFFFFFFEF863
:100D7000E000000000000000000000000000000093
:100D80000000000000000000000000000000000063
:100D90000000000000000000000000000000000053
:100DA0000000000000000080C06030101808080833
:100DB0001810306040C0868785C449693E0E131103
:100DC00012123D2D2526446878589D9793E362348E
:100DD0003C2C26C7C56939191D36A2E262343C2C69
:100DE00044C8C8E9B911111393E36327274747CFD4
:100DF000CF0F0810101010202020204040404080CD
:100E00008080800000000000000000000000000062
:100E100000000000000000000000000000000000D2
:100E200000000000000000000000000000000000C2
:100E3000000000000000E0CE9CF8FCFE80E02000F6
:100E400000000000000000000000000000000000A2
:100E50000000000000000000008080C0C0E0E0F062
:100E6000F0F8FCFEFCF8F0E0E0C0C08080800000FC
:100E70000000000000000000000000000000000072
:100E80000000000000000000000000000000000062
:100E90000000000000000000000000000000000052
:100EA0000000000000000000000000000000000042
:100EB00001010101020238F7F7F7F7F7F7310008EF
:100EC0001010101020202020404040408080F0F87A
:100ED000DC363EEEFCE09CFEFFFFFFFFFFCFCFFFC6
:100EE000FFBF7F7FBFFFFF7FFFFFFFFFFFFFFFFF12
:100EF000FF7EBEBCBC7CFCFEFEFFFFFF3F0000008F
:100F000000000000000000000000000000000000E1
:100F100000000000000000000000000000000000D1
:100F200000000000000000000000000000000000C1
:100F30000000000000000003070F0F0F0100000079
:100F4000000000000080C0E030382C44C4C4687841
:100F500059899191D3F3A3232727C7C74F4F8F8F69
:100F60009F9F1F1F3F3E3E3F7F7F7F7FFCFCFF8197
:100F7000FAFFE6E7FDFFFCF3FFFFFFFEF8E00000ED
:100F80000000000000000000000000000000000061
:100F90000000000000000000000000000000000051
:100FA0000000000000000000000000000000000041
:100FB0000000000080C060301018080808181030C9
:100FC0006040C0868785C449693E0E131113123CE8
:100FD0002C2627456878589D9793E362343C2C264D
:100FE000C7C56939191D36A2E262343C2C44C8C811
:100FF000E9B911111393E36327274747CFCF0F08B0
:101000001010101020202020404040408080808020
:1010100000000000000000000000000000000000D0
:1010200000000000000000000000000000000000C0
:1010300000000000000000000000000000000000B0
:10104000000000E0CE9CF8FCFE80E02000000000E4
:101050000000000000000000000000000000000090
:101060000000000000008080C0C0E0E0F0F8FCFE5E
:10107000FFFEFCF8E0E0E0E0E0C0C0C080800000DF
:101080000000000000000000000000000000000060
:101090000000000000000000000000000000000050
:1010A0000000000000000000000000000000000040
:1010B000000000000000000000000000000101012D
:1010C00001020238F7F7F7F7F7F7310008101010B0
:1010D00010202020204040404080808080C0E0F0F0
:1010E000F8F8FCFCFEFFFFFFFFFFCFCFFFFFBF7F45
:1010F0007FBFFFFF7FFFFFFFFFFFFFFFFFFFFEFE42
:10110000FCFCFCFCFEFEFFFFFF3F000000000000B7
:1011100000000000000000000000000000000000CF
:1011200000000000000000000000000000000000BF
:1011300000000000000000000000000000000000AF
:101140000000000003070F0F0F0100000000000067
:10115000000080C0E030382C0464F8FEFFFFFFFF81
:10116000FF7FBF8F272727C7C74F4F8F8F9F9F1F97
:101170001F3F3E3E3F7F7F7F7FFCFCFFFFFFFFFF67
:10118000FFFFFFFFFFFFFFFFFEF8E0000000000091
:10119000000000000000000000000000000000004F
:1011A000000000000000000000000000000000003F
:1011B000000000000000000000000000000000002F
:1011C0000080C0603010180808081810306040C057
:1011D000868785C449693E0E131112123D2D2526BE
:1011E000446878589D9793E362343C2C26C7C569C0
:1011F00039191D36A2E26224183C7E7F7F7FBF3FF3
:101200001F1F8FE76327274747CFCF0F0810101006
:10121000102020202040404040808080800000003E
:1012200000000000000000000000000000000000BE
:1012300000000000000000000000000000000000AE
:10124000000000000000000000000000000000009E
:10125000E0CE9CF8FCFE80E02000000000000000D2
:10126000000000000000000000000000000000007E
:1012700000000000008080C0E0F0F8FCFEFFFEFCF3
:10128000F8F0E0C0C0C08080000000000000000056
:10129000000000000000000000000000000000004E
:1012A000000000000000000000000000000000003E
:1012B000000000000000000000000000000000002E
:1012C0000000000000000000000001010101020216
:1012D00038F7F7F7F7F7F731000810101010202053
:1012E00020204040404080808080C0E0E0F0F0F866
:1012F000F8FCFCFEFFFFFF9F9FFFFF7FFFFF7FFFCC
:10130000FFFFFFFFFFFFFFFFFFFFFFFEFEFCFCFCF8
:10131000FCFEFEFFFFFF3F00000000000000000099
:1013200000000000000000000000000000000000BD
:1013300000000000000000000000000000000000AD
:10134000000000000000000000000000000000009D
:101350000003070F0F0F01000000000000000080D5
:10136000C0E030382C0464F8FEFFFFFFFFFF7FBFB2
:101370008F272727C7C74F4F8F8F9F9F1E1E3F3D29
:101380003D3E7F7F7F7FF9F9FFFFFFFFFFFFFFFFFC
:10139000FFFFFFFFFFFCF0C00000000000000000A6
:1013A000000000000000000000000000000000003D
:1013B000000000000000000000000000000000002D
:1013C000000000000000000000000000000080C0DD
:1013D000603010180808081810306040C0868785F3
:1013E000C449693E0E131112123D2D25264468781A
:1013F000589D9793E362343C2C26C7C56939191D63
:1014000036A2E26224183C7E7F7F7FBF3F1F1F8F82
:10141000E76327274747CFCF0F0810101010202071
:10142000202040404040808080800000000000007C
:1014300000000000000000000000000000000000AC
:10144000000000000000000000000000000000009C
:1014500000000000000000000000000000E0CE9C42
:10146000F8FCFE80E020000000000000000000000A
:10147000000000000000000000000000000000006C
:101480000000008080C0E0F0F8FCFEFCF8F0E0C056
:10149000C08080808000000000000000000000008C
:1014A000000000000000000000000000000000003C
:1014B000000000000000000000000000000000002C
:1014C000000000000000000000000000000000001C
:1014D0000000000000000001010101020238F7F7DE
:1014E000F7F7F7F7310008101010102020202040E7
:1014F00040404080808080C0E0E0F0F0F8F8FCFCE4
:10150000FEFFFFFF9F9FFFFF7FFFFF7FFFFFFFFFAC
:10151000FFFFFFFFFFFFFFFEFCFCF8F8F8F8FCFC04
:10152000FEFEFE7E00000000000000000000000043
:1015300000000000000000000000000000000000AB
:10154000000000000000000000000000000000009B
:101550000000000000000000000000000000030781
:101560000F0F0F01000000000000000080C0E030FD
:10157000382C0464F8FEFFFFFFFFFF7FBF8F272793
:1015800027C7C74F4F8F8F9F9F1E1E3F3D3D3E7FFA
:101590007F7F7FF9F9FFFFFFFFFFFFFFFFFFFFFFE7
:1015A000FFFFFCF0C0000000000000000000000091
:1015B000000000000000000000000000000000002B
:1015C000000000000000000000000000000000001B
:1015D000000000000000000000000080C06030102B
:1015E000180808081810306040C0868785C449690B
:1015F0003E0E131112123D2D2526446878589D97F2
:1016000093E362343C2C26C7C56939191D36A2E222
:101610006224183C7E7F7F7FBF3F1F1F8FE76327B9
:10162000274747CFCF0F0810101010202020204050
:1016300040404080808080000000000000000000EA
:10164000000000000000000000000000000000009A
:10165000000000000000000000000000000000008A
:1016600000000000000000000000E0CE9CF8FCFE3E
:1016700080E02000000000000000000000000000EA
:10168000000000000000000000000000000000005A
:101690008080C0E0F0F8FCFEFCF8F0E0C0C0808084
:1016A000808000000000000000000000000000003A
:1016B000000000000000000000000000000000002A
:1016C000000000000000000000000000000000001A
:1016D000000000000000000000000000000000000A
:1016E0000000000001010101020238F7F7F7F7F7E7
:1016F000F7310008101010102020202040404040FA
:1017000080808080C0E0F0F8F8FCFCFCFEFEFFFF6B
:10171000FFCFCFFFFFBF7F7FBFFFFF7FFFFFFFFF39
:10172000FFFFFFFFFEFCFCF8F8F8F8F8FCFCFCFCFF
:101730003C1C000000000000000000000000000051
:101740000000000000000000000000000000000099
:101750000000000000000000000000000000000089
:10176000000000000000000000000003070F0F0F42
:1017700001000000000000000080C0E030382C04B0
:1017800064F8FEFFFFFFFFFF7FBF8F272727C7C734
:101790004F4F8F8F9F9F1F1F3F3E3E3F7F7F7F7F1B
:1017A000FCFCFFFFFFFFFFFFFFFFFFFFFFFFFFFE50
:1017B000F8E0000000000000000000000000000051
:1017C0000000000000000000000000000000000019
:1017D0000000000000000000000000000000000009
:1017E000000000000000000080C0603010180808F1
:1017F000081810306040C0868785C449693E0E13C2
:101800001112123D2D2526446878589D9793E36266
:10181000343C2C26C7C56939191D36A2E26224184A
:101820003C7E7F7F7FBF3F1F1F8FE7632727474790
:10183000CFCF0F0810101010202020204040404033
:101840008080808000000000000000000000000098
:101850000000000000000000000000000000000088
:101860000000000000000000000000000000000078
:1018700000000000000000E0CE9CF8FCFE80E020AC
:101880000000000000000000000000000000000058
:10189000000000000000000000008080C0C0E0E008
:1018A000F0F8FCFEFFFEFCF8E0E0E0E0E0C0C0C0C5
:1018B0008080000000000000000000000000000028
:1018C0000000000000000000000000000000000018
:1018D0000000000000000000000000000000000008
:1018E00000000000000000000000000000000000F8
:1018F0000001010101020238F7F7F7F7F7F73100AD
:10190000081010101020202020404040408080808F
:1019100080C0E0F0F8F8FCFCFEFFFFFFFFFFCFCF38
:10192000FFFFBF7F7FBFFFFF7FFFFFFFFFFFFFFFC7
:10193000FFFFFEFEFCFCFEFEFEFFFFFFFF3F0F066B
:101940000000000000000000000000000000000097
:101950000000000000000000000000000000000087
:101960000000000000000000000000000000000077
:10197000000000000000000003070F0F0F0100002F
:1019800000000000000080C0E030382C0464F8FE45
:10199000FFFFFFFFFF7FBF8F272727C7C74F4F8F4F
:1019A0008F9F9F1F1F3F3E3E3F7F7F7F7FFCFCFF3F
:1019B000FFFFFFFFFFFFFFFFFFFFFFFFFEF8E0005D
:1019C0000000000000000000000000000000000017
:1019D0000000000000000000000000000000000007
:1019E00000000000000000000000000000000000F7
:1019F000000000000080C0603010180808081810AF
:101A0000306040C0868785C449693E0E13111212AA
:101A10003D2D2526446878589D9793E362343C2CED
:101A200026C7C56939191D36A2E26224183C7E7F9B
:101A30007F7FBF3F1F1F8FE76327274747CFCF0F0A
:101A4000081010101020202020404040408080804E
:101A50008000000000000000000000000000000006
:101A60000000000000000000000000000000000076
:101A70000000000000000000000000000000112431
:101A80001FBECFEFDAE0DEBFCDBF12E0A0E0B1E0D5
:101A9000E8E4FEE602C005900D92A235B107D9F741
:101AA00026E0A2E5B2E001C01D92AB30B207E1F73B
:101AB0000E946F250C94BD360C9400008093C105E4
:101AC0000895982F9670963021F488608093C2050F
:101AD0000895877FFBCF21E001C0220F8A95EAF7A6
:101AE0008091C205822BEDCF21E001C0220F8A95A3
:101AF000EAF7822F80959091C2058923E2CF292FA2
:101B00009A3090F5863080F590E036E0239F800D86
:101B1000911D112451E081FD54E080FD550F82FD9F
:101B2000529523E0969587952A95E1F7FC01EE0FF3
:101B3000FF1FE80FF91FE75CFA4F20E030E070E08C
:101B40004191DF01CB01022E02C0969587950A9440
:101B5000E2F78695880B8427852384278E932F5F51
:101B60003F4F2330310561F70895292F9A3070F5E2
:101B7000863060F590E036E0239F800D911D1124A2
:101B8000682F677023E0969587952A95E1F7FC0109
:101B9000EE0FFF1FE80FF91FE75CFA4F40E050E03F
:101BA00080E0219130E0062E02C0369527950A94F8
:101BB000E2F72170042E01C0220F0A94EAF7822B6B
:101BC0004F5F5F4F4330510561F7089580E00895FE
:101BD0009091C20521E030E0F90101C0EE0F8A9535
:101BE000EAF7D90101C0AA0F6A95EAF7EA2B01C00A
:101BF000220F4A95EAF7892F8E23E81303C0892F15
:101C0000822B5FCF2095822F8923FBCFE091C805DF
:101C10009091C705E91302C080E008959F0157E045
:101C2000E59FF0011124E753FA4F5181561306C086
:101C30005081581303C05581541305C02F5F3F4F87
:101C4000F901E770E7CF81E008958091C805209100
:101C5000C705281301C0089501968770FACF9091A7
:101C6000C305809589238093C305282F277061F4CD
:101C7000891751F09091C50592FF06C0869586950B
:101C8000869532DF1092C30508958095982F809134
:101C9000BE0589238093BE050895803E9105D1F14C
:101CA000C8F48133910509F481C048F48932910563
:101CB00009F471C08A32910509F47FC0089589330F
:101CC0009105E1F082389105C9F08533910509F459
:101CD0005DC00895843E9105D1F148F4823E91059E
:101CE00031F1833E910541F181EE90E00895863E09
:101CF0009105C1F1873E9105F1F108952091C40548
:101D0000237009F064C02091C50523FF14C089E247
:101D100090E008952091C40520FD45C03091C5058F
:101D200030FF09C024FD24C083EE90E00895209187
:101D3000C40522FDF7CF08952091C40522FD44C0BB
:101D40003091C50530FD43C024FFF5CF11C020916F
:101D5000C50521FFF0CF8091C40584FD09C087EE41
:101D600090E008952091C40523FFE5CF24FFF7CF2D
:101D700080E090E008952091C40523FD2BC03091B0
:101D8000C50531FFE1CF84EE90E008952091C405B0
:101D900025FFD1CFBCCF2091C40525FD1EC02091C9
:101DA000C50523FFC8CF89E390E008952091C405BD
:101DB00026FFC1CF8AE290E008952091C40526FF56
:101DC000BACF81E390E0089582EE90E0089580EE2E
:101DD00090E0089586EE90E0089585E390E0089500
:101DE0009091C40592FF10C041E0282F2471243047
:101DF00009F040E031E0282F2871283009F030E068
:101E0000431711F02CE0822793FF10C041E0282FE8
:101E10002471243109F040E031E0282F2871283165
:101E200009F030E0431711F02CE082273091C5050E
:101E300030FF10C051E0282F2171213009F050E00F
:101E400041E0282F2871283009F040E0541711F0A4
:101E500029E0822731FF10C041E0282F2171213174
:101E600009F040E031E0282F2871283109F030E0F6
:101E7000431711F029E0822794FD877E08950F9380
:101E80001F93CF93DF9309DFEC01D23508F04DC0EB
:101E9000D03508F0C3C0C03ED10530F5CD3CD105EA
:101EA00008F09AC0C83AD10578F4C53AD10508F0CF
:101EB00090C0C130D10599F1CE010497813A9105C6
:101EC00070F1C0E0D0E02BC0CE01885A91094B9749
:101ED000C0F7C85AD0E0CC0FDD1FC655DE4F0990C1
:101EE000D881C02DD4641BC0D03490F4D03208F017
:101EF000A8C0C83ED10598F0CE0191509F3108F797
:101F00008D2F6EDF082F8C2F90E0C7DE902B54C0F2
:101F10008C2F90E0C2DEDF70C82FD92BD06ACE01A3
:101F2000DF91CF911F910F910895C03882E5D807B6
:101F3000B8F5C03682E5D80708F056C0C03482E54F
:101F4000D807C8F4C03282E5D80708F047C08C2F04
:101F50008695869520E2829FC0011124C37021E0FE
:101F600030E002C0220F331FCA95E2F7E901C82B07
:101F7000D92BDD68D4CF8C2F86958695877020E28B
:101F8000829FC0011124C37021E030E002C0220F03
:101F9000331FCA95E2F7E901C82BD92BDC68BFCF04
:101FA000C03C82E5D80750F48C2F8F71C03AD245DF
:101FB00080F5982F84EF906AEC01B1CFCE01805C60
:101FC0009245809708F07DCFDC2FDF71C0EFD06A9B
:101FD000A6CFA497D064A3CFD065A1CF8C2F8F714B
:101FE000D82FC1EFD06A9BCF8C2F869586958770AE
:101FF00020E2829FC0011124C37021E030E002C0C2
:10200000220F331FCA95E2F7E901C82BD92BDA68F2
:1020100086CFE6DEC0E0D82FD06281CF8C2F8F71C3
:10202000DFDE93E0CC0FDD1F9A95E1F7DF70282FFC
:1020300084FF04C090E1899F90011124C22FD069D0
:102040006ECF8D2F8F71CCDE082F8C2F90E025DE88
:10205000902BEC01E1CF80E00895F894E82FE29511
:10206000EF70F0E041A18F7021E001C0220F8A954E
:10207000EAF7922F9095942391A392A1822F892B16
:1020800082A3789408950F931F93CF93DF93A09129
:102090009602B09197029D012D5D3240BD01605DB9
:1020A0007040613042E0740710F060E072E04091EF
:1020B000DF045091E004FC0101E010E0261737072F
:1020C00048F04093DF045093E004DF91CF911F91DB
:1020D0000F91089584919D91891789F0ED018A935C
:1020E000C901C5E096958795CA95E1F7E80102C058
:1020F000CC0FDD1F8A95E2F7CE014C2B592B2F5FB9
:102100003F4F3196DBCF809108068B3028F0843129
:10211000E8F480E39EE019C080910A0690E0019601
:1021200065E070E00E94673180930A0624E030E0A9
:10213000281B390B4DE052E0249FC001259F900DD4
:10214000349F900D1124835C9F4E9DCF8091090692
:1021500090E08395817090E08093090601978D70DF
:1021600092708A5E954FF1CFFC01AC014B5F5F4FDF
:102170008FEF61E39191892728E030E0982F990F44
:1021800087FF09C0892F862721503040B9F7E4170F
:10219000F50781F70895892FF7CF382F25EB320304
:1021A000C001112497FF04C080589109892F089518
:1021B00080589F4FFBCF8091530580FD14C081FD57
:1021C00014C082FD16C080915205811581F08E31B8
:1021D00080F420E5829FC00111246EE170E00E942E
:1021E0006731862F089584E1089588E2089588E094
:1021F000089580E508958091530580FD17C081FD05
:1022000017C082FD19C080915105811599F088325F
:1022100098F428E0829FC001112468E270E00E94D7
:1022200067316115710551F0862F089562E0FCCF8A
:1022300064E0FACF61E0F8CF68E0F6CF81E008957E
:1022400080912705811571F0E0912F05F0913005FF
:10225000309739F00190F081E02D309711F0099519
:10226000089580E00895A3E0B0E0E9E3F1E10C9483
:102270003431209175023091760228173907B1F078
:102280008093750290937602E0912F05F0913005CE
:10229000309761F00084F185E02D309739F023E02C
:1022A00029838A839B83CE01019609952396E2E0D8
:1022B0000C945031A3E0B0E0E0E6F1E10C9434314D
:1022C000209173023091740228173907B1F080937E
:1022D000730290937402E0912F05F09130053097CE
:1022E00061F00084F185E02D309739F024E02983F6
:1022F0008A839B83CE01019609952396E2E00C9494
:1023000050319C01FC01329680E09FEF40814617DE
:1023100059F031969F3F19F4411101C0982F8F5FFA
:102320008630A1F79F3F09F40895290F311D97FDCD
:102330003A95F90162830895FC013296089621913D
:10234000261302C0DF011E92E817F907C1F70895AE
:102350008091010108952FB7F89460916F027091F8
:10236000700280917102909172022FBF0895809146
:102370002705811539F0EFDF462F572FBC01CB0120
:10238000BA010895E8DFDC01CB01409129055091A5
:102390002A0560912B0570912C05480F591F6A1F63
:1023A0007B1FEDCF87E797E78093000890930108A4
:1023B00088E19AE00FB6F894A895809360000FBE6C
:1023C00090936000FFCF0895FC0120916502309149
:1023D00066022617370748F06115710529F49091B8
:1023E000E8009E779093E8009B0190E0211531056D
:1023F00041F4911106C08091E80082FF32C080E074
:1024000008958091EE048115C1F18530C1F180916C
:10241000E80083FD30C08091E80082FDECCF809120
:10242000E80080FFE3CF8091F3004091F200582F45
:102430002115310519F04830510558F091E0483028
:10244000510509F090E04091E8004E774093E80094
:10245000CDCF81918093F100215031094F5F5F4FC3
:10246000E7CF8091EE04811541F0853041F08091F5
:10247000E80083FFC0CF81E0089582E0089583E003
:102480000895982F9093E900891771F07091EC00EE
:102490002091ED005091F00021FD09C09F5F973021
:1024A00089F78093E9000895762F242F50E030912A
:1024B000EB003E7F3093EB003091ED003D7F309399
:1024C000ED003091EB0031603093EB007093EC0045
:1024D0002093ED005093F0002091EE0027FDDECF19
:1024E000089580915F0287FF13C08091E80082FF0A
:1024F00006C08091E8008B778093E8000895809172
:10250000EE048111F2CF08958091EE048115D9F384
:102510008091E80080FFF8CF8091E8008E77ECCFC3
:102520002091E4003091E50095E6A9012091EC00AE
:10253000822F817020FF06C08091E80080FF06C0D6
:1025400080E008952091E80022FD1AC08091EE04F9
:10255000811589F0853089F08091EB0085FD0FC0F1
:102560002091E4003091E50042175307F9F29150B1
:10257000E1F684E0089582E0089583E0089581E023
:102580000895CF93DF93C8EDD0E088818F7E888354
:10259000E7EDF0E080818160808384E082BF81E0AC
:1025A00080935E0288818E7F8883E2EE1082109293
:1025B000DA00A1EEB0E01C9288818F778883888151
:1025C0008068888388818F7D888319BC1092EE048F
:1025D00010925D021092800210925C02A0EE8C912B
:1025E0008B7F8C9388818160888342E060E080E00B
:1025F00048DFA1EEB0E08C918E7F8C93E2EEF0E0AC
:10260000808181608083808188608083E0EE80812A
:102610008E7F8083888180618883DF91CF91089548
:10262000E8EDF0E080818E7F80831092E2001092CE
:10263000DA001092E100A0EEB0E08C9181608C9302
:1026400080818F77808319BCA7ED8C918E7F8C93CE
:1026500080818F7E808310925E020895A0E0B0E0BA
:10266000E4E3F3E10C942C317C016B015A0180917D
:102670000A050AE010E08A3010F001E010E0C1E045
:10268000D0E0B601C701F5010995811115C0219669
:102690000C171D078CF0CC9F9001CD9F300D300D95
:1026A000112480E090E045E34A95F1F7000001969F
:1026B00082179307C1F7E5CFCDB7DEB7EAE00C94F8
:1026C00048310F931F93CF93DF93EB018A019091D1
:1026D000EE04943059F58093E9008FEF9091E80073
:1026E00095FD06C095ED9A95F1F700008150B1F780
:1026F0008091E80085FF1AC013DF811112C080911C
:10270000E80085FD06C08091E8008E778093E800A0
:10271000F3CF88818093F1000150104011F0219691
:10272000EECF8091E8008E778093E800DF91CF9123
:102730001F910F910895603229F440E250E0BC01EE
:1027400082E0BFCF0895CF93DF93EC0148E050E0E3
:10275000BC0181E0B6DF88E0FE01A7E6B2E00190AF
:102760000D928A95E1F7DF91CF91089546E050E010
:10277000BC0184E0A6CF43E050E0BC0184E0A1CFDF
:102780009091C50592FB222720F9281771F080FB54
:1027900092F99093C5056091C4057091C50584E0D8
:1027A00090E00E94FF3482E05ACA08951F93CF93AD
:1027B000DF93122F8430E0F46A30D0F44630C0F456
:1027C000C42FD0E0CC0FDD1F2CE0629FC00DD11DC7
:1027D000112498E7899FC00DD11D1124632FCE01CC
:1027E00089960E94E534612FCE018A960E94E534D5
:1027F000DF91CF911F910895AF92BF92CF92DF9258
:10280000FF920F931F93CF93DF93A12CB12C00E085
:10281000650110E012C0FE01259135914F2D612F09
:10282000802FC4DF2296F3948F2D8630A1F786E0A7
:10283000C80ED11C1F5F1A3039F0E601CC0FDD1F26
:10284000C05EDD4FF12CE7CF0F5F8CE3A80EB11C0B
:102850000430F1F6DF91CF911F910F91FF90DF903F
:10286000CF90BF90AF9008958091BE059091C6051E
:10287000892B9091BF05911589F0892B90E026E571
:1028800032E0F90140812F5F3F4F41119F5F42E0ED
:102890002C353407B1F791111092BF058093540283
:1028A00048E050E061E375E084E592E00E94ED319C
:1028B000892BB9F088E0E4E5F2E0A1E3B5E001900E
:1028C0000D928A95E1F7E0912F05F0913005309750
:1028D00041F00280F381E02D309719F084E592E019
:1028E00009950895811531F09091BE05982B90932C
:1028F000BE05BACF0895811511F0C7D9B5CF089597
:10290000CF92DF92EF92FF921F93CF93DF9300D08D
:1029100000D0CDB7DEB7C090EF04D090F004E090C7
:10292000F104F090F20417DDDC01CB018C199D0954
:10293000AE09BF0911E084369105A105B10568F122
:1029400016DDDC01CB010296A11DB11D89839A839E
:10295000AB83BC8380912A0190912B018D509B4FBA
:1029600020912901422F50E0253008F044E09E01DB
:102970002F5F3F4FB9010E94FA3182E090E00E9440
:10298000A230182F811549F0E6DC6093EF047093B4
:10299000F0048093F1049093F204812F0F900F9034
:1029A0000F900F90DF91CF911F91FF90EF90DF90EC
:1029B000CF900895AF92BF92CF92DF92EF92FF92A5
:1029C0001F93CF93DF9300D000D000D0CDB7DEB7F8
:1029D0005B0180E090E00E94A230182F811509F47D
:1029E0005BC080911C01482F50E0811141E0609153
:1029F0001D0170911E016D507B4FCE0106960E9405
:102A0000FA31C0900205D0900305E0900405F090E3
:102A10000505A1DCDC01CB018C199D09AE09BF09BC
:102A200084369105A105B10530F484EF94E09CDB78
:102A30009E81891789F181E090E00E94A230811582
:102A4000B1F180912401482F50E0863008F045E034
:102A500060912501709126016D507B4FCE0101964A
:102A60000E94FA3184EF94E07FDB9E8189131FC0BE
:102A700072DC6093020570930305809304059093C4
:102A8000050585E0FE013196ADEFB4E001900D92B1
:102A90008A95E1F781E00CC085E0E4EFF4E0DE0127
:102AA000119601900D928A95E1F71111EACF80E01D
:102AB00095E0EDEFF4E0D50101900D929A95E1F7E4
:102AC0000F900F900F900F900F900F90DF91CF917C
:102AD0001F91FF90EF90DF90CF90BF90AF9008953F
:102AE0000F931F93CF93DF93843008F56A30F8F487
:102AF0004630E8F4C42FD0E0CC0FDD1F9CE0699F86
:102B0000C00DD11D112498E7899FC00DD11D11243E
:102B1000CE0189960E94C934082FCE018A960E9460
:102B2000C934902FDF91CF911F910F91089580E0CC
:102B300090E0F8CF462F7A3030F4663020F48430BD
:102B400010F4672FCDCF80E090E00895CF92DF9210
:102B5000FF920F931F93CF93DF936C010091C205F7
:102B60008091C105082BC3E0D0E010E0C8010C2E15
:102B700002C0959587950A94E2F780FD0CC02197D5
:102B8000A8F7F12C8F2DDF91CF911F910F91FF901E
:102B9000DF90CF900895FC2EB6018C2FCBDF6FD93C
:102BA000019769F3EFCF1F93CF93DF93FC0125814A
:102BB000C081D181CE01211579F0611569F0C6DFA0
:102BC000182F682FCE010E947F0DBE01812FB2DF2A
:102BD000DF91CF911F9108950E94B50D182FF5CF69
:102BE000CF93DF93EC01B2DFBE01A4DF48D9DF91C0
:102BF000CF910895FC012481211599F08081918164
:102C0000EFDF282F92959F70963099F060F4925FD5
:102C10009F70923030F4203FB1F038F481E0283ECC
:102C200038F080E008959A5FF3CF81E0243FC9F740
:102C3000089591E0213F09F090E081E0283E08F0FE
:102C400080E0892B089581E00895673F21E07207B5
:102C50008105910528F4CB01875F9D4F0C94C93401
:102C600080E00895CF92DF92EF92FF92CF93DF93AF
:102C7000EC01C880D980EA80FB80B601C701E5DF9E
:102C80009FEFC91AD90AE90AF90AC882D982EA82E9
:102C9000FB82DF91CF91FF90EF90DF90CF9008956E
:102CA00085E290E00E94C934853269F486E290E0C2
:102CB0000E94C934813139F487E290E00E94C9341E
:102CC00091E0893209F090E0892F81700895AB017D
:102CD00024E630E0BC0188E70E94D92E9C0181E007
:102CE000232B09F080E008958091E8048115E9F034
:102CF00032DBDC01CB0180549B42AE4FBF4F80934F
:102D0000E1049093E204A093E304B093E40480917F
:102D1000E50481110AC062E070E082E094E0D7DF50
:102D2000811519F081E08093E50408958091E8040D
:102D3000811561F08091E504811541F062E070E059
:102D400080E094E0C4DF81111092E5040895CF93F0
:102D5000DF93682F81E06A3019F06D3029F480E04C
:102D600072D0DF91CF910895809196029091970251
:102D700026E0FC01A9E7B2E001900D922A95E1F767
:102D800026E0603E08F455C0FC0111922A95E9F74F
:102D9000C0919602D091970246E050E0BE0189E7CB
:102DA00092E00E94ED319E012D5D3240892B41F170
:102DB000C90145E0969587954A95E1F741E050E0D5
:102DC000BA0102C0660F771F8A95E2F7CB016091C6
:102DD000DF047091E004862B972BB9016B5F7F4F66
:102DE000E5E076956795EA95E1F702C0440F551F37
:102DF0006A95E2F7842B952B8093DF049093E0048F
:102E00002A5F3F4F40919802642F70E0C9010E94F1
:102E10001031481B463010F4240F311D323010F0B1
:102E200020E030E023523D4F2093960230939702EA
:102E300098CF629FB00111246C5F7B4F46E050E059
:102E40000E94E431A5CFCF93382FE0919602F09104
:102E50009702ED5DF24020919802622F70E0CF0161
:102E60000E941031281B822F311561F066E00E940C
:102E70005B31C82FC11102C0CF910895C15080E2CB
:102E800066DFF8CF8E0F9F2F911D923010F080E0FB
:102E900090E083529D4F8093960290939702ECCFDF
:102EA0000F931F93CF93DF93EC01FC01019000205F
:102EB000E9F78F0101501109C017D10738F081E0FF
:102EC000C2DFDF91CF911F910F91089589913FDF6C
:102ED000F3CFA0E1B0E0EFE6F7E10C942631FE017C
:102EE0003196DF0180E11D928A95E9F700E210E05A
:102EF00099E0A92E92E0B92E612C712C23015394F4
:102F00004A189E2E8F2E6201730181E148165104EA
:102F1000610471041CF080E1C82ED12CA601B5011A
:102F2000892D982D0E94D634AC0CBD1C0D2C000CA4
:102F300000084C185D08600870080150104019F72F
:102F40006096E0E10C9442316FEF85E290E00E94E0
:102F5000E5346FEF86E290E00E94E5346FEF87E2A0
:102F600090E00E94E53460E088E290E00E94E53461
:102F700043DCAFDF65E285E290E00E94E53461E189
:102F800086E290E00E94E53469E287E290E00C94EA
:102F9000E5341F921FB61F9211248F939F93AF9316
:102FA000BF9380917F02811113C080916F02909135
:102FB0007002A0917102B09172024196A11DB11DE3
:102FC00080936F0290937002A0937102B09372028B
:102FD000BF91AF919F918F911F901FBE1F90189529
:102FE0002FB7F89480916F0290917002A0917102B6
:102FF000B09172022FBF0895CF93DF93EC01F0DF01
:103000008C1B9D0BDF91CF910895AFE0B0E0EBE01A
:10301000F8E10C942B31FE013196DF018AE01D921C
:103020008A95E9F78FE9C82E81E0D82E7F01AE2E70
:103030009F2C0AEA11E0F60181916F018F3F09F49C
:103040003DC0F894E82FE295EF70F0E021A18F7079
:1030500041E001C0440F8A95EAF7922F942B91A387
:1030600092A1842F8095892382A3789400C0E4EAFA
:10307000F1E031E0B12C21912F3F79F0A22FA29500
:10308000AF70A05EB0E08C9190E02F7002C095957B
:1030900087952A95E2F780FF76C080E0B82A330F43
:1030A0000E171F0741F7F60182918F3F11F00E9422
:1030B0002D1080EA8A95F1F7F701B0828FEFE81AB8
:1030C000F80A84EA91E08C159D0509F0B4CF4AE036
:1030D00050E06A2D792D8DE195E00E94ED31009749
:1030E00049F02AE0EA2DF92DADE1B5E001900D920D
:1030F0002A95E1F700911C0510E00E5E1A4F892B0E
:1031000009F443C081E0809311056ADF80930F05C5
:103110009093100580912705811509F48DC07E01DB
:103120008BE0E80EF11CF70185E011928A95E9F732
:1031300080910A058A3008F04BC04AED54E1B7018E
:10314000C8018CDA811509F466C040E854E1B70182
:10315000C80184DA811509F45EC010920A058091D5
:103160000E0590E045E050E0B7018E5E9A4F0E9458
:10317000ED3121E020930D05892B09F03FC02F96FA
:10318000EBE00C944731832F89CF80911105811595
:1031900009F4C0CFE0900F05F090100521DF8E19E3
:1031A0009F09059708F4B6CF45E050E06DE175E062
:1031B000C8010E94ED31892B41F085E0EDE1F5E099
:1031C000D80101900D928A95E1F710921105A2CFD6
:1031D000C0900B05D0900C0503DF8C199D09843F2E
:1031E000914008F0AACF80910D05811541F2F701B9
:1031F00085E011928A95E9F710920D05A0910E05D0
:10320000B0E0AE5EBA4F85E0FE013B9601900D92B4
:103210008A95E1F7B4CF80910A058F3F31F4E0DE63
:1032200080930B0590930C05DECF8F5F80930A058A
:103230008A3008F494CFF3CF85E0F801A4EFB4E02E
:1032400001900D928A95E1F784EF94E00E94B4100A
:103250008093F304C090F904D090FA04E090FB044A
:10326000F090FC048091060590910705A091080557
:10327000B0910905C816D906EA06FB0609F47FCF06
:10328000C0920605D0920705E0920805F092090564
:1032900062D8C61AD70AE80AF90AC0922905D0925C
:1032A0002A05E0922B05F0922C0569CF99DE9C014E
:1032B0009091560580915705982B21F02093EB04AF
:1032C0003093EC049091580580915905982B21F08A
:1032D0002093E9043093EA04E0912F05F091300542
:1032E000309759F00680F781E02D309731F082E079
:1032F0008093540584E595E009950895611509F4D6
:1033000048C0E82FED5CE33150F4F0E0E154F94CB3
:103310000C94B8310E94DB10819580935705C6CF7D
:103320000E94DB10FACF0E94DB1081958093560536
:10333000F6CF0E94DB10FACF0E94FB108093580555
:10334000EECF0E94FB108195F9CF0E94FB10819572
:1033500080935905E4CF0E94FB10FACF815D990B51
:1033600021E001C0220F8A95EAF780915505822B52
:1033700080935505D4CF8091530581608093530588
:10338000CECF809153058260F9CF80915305846040
:10339000F5CF409156058D3C59F48091570587FF34
:1033A0000DC010925705411559F41092520508C0EE
:1033B0008E3C81F48091570518169CF3411581F0DD
:1033C0008091580590915905892B09F0A8CF10924A
:1033D0005105A5CF8F3C41F447FFF0CF1092560521
:1033E000809157058115E0CF803D19F41416B4F390
:1033F000E5CF90915805893D29F41916FCF61092F5
:103400005805DCCF8A3D19F497FFD8CFF8CF9091BB
:1034100059058B3D29F497FFD1CF10925905CECF96
:103420008C3D19F41916CCF3C9CF982F915D9830C3
:1034300078F4815D990B21E001C0220F8A95EAF7AB
:10344000822F809590915505892380935505B6CF9D
:103450008D3D31F4809153058E7F80935305AECF1F
:103460008E3D21F4809153058D7FF7CF8F3D09F07C
:10347000A5CF809153058B7FF0CFCF93C82F8115B7
:10348000A1F08450813A98F4E6E5F2E08CE592E010
:103490002081C217E1F131968E179F07C9F76C2F73
:1034A00084E592E00E948111DFD9CF9108958C2F9D
:1034B000805E883060F4C77021E001C0220FCA9599
:1034C000EAF78091BE05822B8093BE05EDCF8C2F4D
:1034D000855A833030F48C2F8452990B0E9433111B
:1034E000E4CFEC2FE85AEB3150F4F0E0EE0FFF1F81
:1034F000E052FE4F808191810E945A11D6CF8C2FCD
:103500008D5C833190F661E08C2FF8DECECF6C2F8E
:1035100084E592E00E949C11A7D9C1CF811579F171
:10352000982F9450913A30F4682F84E592E00E94ED
:103530009C119AC9982F905E983058F4982F81E08A
:1035400091FD84E090FD880F92FD82950E94450ECA
:10355000F0CF982F955A933020F480E090E00C94AF
:103560003311982F985A9B3120F480E090E00C940E
:103570005A11982F9D5C933110F460E0BFCE0895EE
:103580001F93CF93DF93182FEB0177DF209731F450
:10359000812FC4DFDF91CF911F9108958FE99FE0C4
:1035A0000197F1F700C000002197F0CF1092BE05FF
:1035B000E6E5F2E086E011928A95E9F780E090E096
:1035C0000E94331180E090E00E945A111092C605CB
:1035D0004BD9E4E5F5E086E011928A95E9F710927F
:1035E0005205109251051092530560CEDFDF8FEF28
:1035F00094E32CE0815090402040E1F700C00000AF
:1036000088E19AE00FB6F894A895809360000FBE09
:1036100090936000FFCFAAE2B0E0E1E1FBE10C94FF
:1036200033318FE592E0FC0101962091F100208377
:1036300022E087369207B9F780916002893009F459
:1036400059C0C8F4823009F4B7C0833009F486C089
:10365000813089F18091E80083FFEBC080915F02A7
:10366000909160029A3008F0E4C0E92FF0E0EE5249
:10367000F94C0C94B8318A3009F48DC08B3051F775
:1036800080915F02813231F78091630290916402F0
:10369000892B01F78091E800877F8093E8000E94E2
:1036A000711281E090916102911101C080E08093DC
:1036B00002017CDFCFCF80915F02813A59F6809181
:1036C000E800877F8093E800809163029091640214
:1036D000892B61F060E080E090E070E00E94E411EE
:1036E0008091E8008B778093E800B4CF68E087E6AC
:1036F00092E0F3CF80915F02813209F0ABCF8091ED
:103700006302909164028D7F892B09F0A3CF809191
:10371000E800877F8093E8008091E80082FF19C06D
:103720002091F3008091F200922F029731F4809162
:10373000F100813011F0863021F48091F100809306
:1037400001018091E8008B778093E8000E9471125C
:1037500081CF8091EE048111DFCF7CCF80915F0219
:10376000813A09F077CF8091630290916402892BAE
:1037700009F070CF8091E800877F8093E800809106
:10378000E80080FFFCCF809102018093F1008091DE
:10379000E8008E77D9CF80915F02813209F05ACF4D
:1037A0008091E800877F8093E8000E9471128091E9
:1037B0006202809300014ECF80915F02813A09F04E
:1037C00049CF8091E800877F8093E8008091E800EE
:1037D00080FFFCCF80910001D8CF803889F08238FB
:1037E00041F5809163028F70873018F58093E9006E
:1037F0008091EB0085FB882780F91092E90006C0D4
:1038000080918002880F90915C02892B9091E80052
:10381000977F9093E8008093F1001092F1008091DF
:10382000E8008E7723C0811116C08091610281303B
:1038300011F18091E80083FF0AC08091E800877F42
:103840008093E8008091EB0080628093EB00AA9661
:10385000E3E00C944F31823061F780916102811571
:1038600081F01092E9008091E800877F8093E80062
:103870000E947112DECF933009F080E080938002C5
:10388000F0CF809163028F70282F2150263088F668
:103890008093E9002091EB0020FFE3CF933031F4D7
:1038A0008091EB0080628093EB00DBCF9091EB0086
:1038B00090619093EB0021E001C0220F8A95EAF716
:1038C0002093EA001092EA008091EB008860EBCF31
:1038D0008111AFCF809161028F77182F8091E30023
:1038E0008078812B8093E3008091E800877F80932C
:1038F000E8000E9471128091E80080FFFCCF809167
:10390000E30080688093E30083E0111101C082E04E
:103910008093EE048ECF8058823008F08ACF809159
:103920006102909162028C3D23E0920791F583E061
:103930008A838AE289834FB7F894DE01139620E0E8
:103940003EE051E2E32FF0E050935700849120FFD6
:1039500003C082958F703F5F8F708A30C0F0895CA2
:103960008D931D922F5F243169F74FBF8091E8003E
:10397000877F8093E8006AE270E0CE0101960E94A2
:10398000E4118091E8008B778093E80052CF805D4E
:10399000E7CF292F30E02330310509F44DC078F509
:1039A0002130310509F47CC08BE590E0EDE8F1E0D1
:1039B0002230310509F03DCF2091E800277F209388
:1039C000E80020916502309166028217930708F49F
:1039D0009C0140E02115310509F067C0411165C027
:1039E0008091E80082FDCDCF8091EE04811549F2EF
:1039F000853039F28091E80083FFF2CFC2CF809109
:103A000063029091640221323105D9F122323105ED
:103A100009F00FCF8330910508F00BCFFC01EE0FBA
:103A2000FF1FE757FE4F0190F081E02D8A579E4F10
:103A3000DC018C9190E011C0282F30E0813089F0BA
:103A400022303105B1F0232B09F0F3CEECE1F2E0A6
:103A5000E4918E2F90E0ECE1F2E0009709F4E9CEDA
:103A6000ABCFEAE0F2E0E4918E2F90E0EAE0F2E002
:103A7000F4CFEAEFF1E0E4918E2F90E0EAEFF1E08D
:103A8000ECCF8330910508F0D4CE880F991FFC014C
:103A9000E157FE4F0190F081E02D89E090E08CCF5E
:103AA00082E190E0E8EEF1E087CF8091EE048115AD
:103AB00009F467CF853009F464CF8091E80083FD75
:103AC00060CF8091E80082FD8BCF8091E80080FF7D
:103AD00081CF4091F3008091F200942F21153105A0
:103AE00019F08830910550F041E0089709F040E066
:103AF0008091E8008E778093E8006CCF44914093EA
:103B0000F1003196215031090196E8CF803809F053
:103B100090CE8091E800877F8093E80080915D02DD
:103B20008093F1007CCE811184CE80916102182FA8
:103B3000823008F07ECE8091E800877F8093E80095
:103B400010935D020E9471121115F9F084E08093C8
:103B5000EE0442E061EC81E00E94411242E261EC3D
:103B600084E00E94411242E261EC82E00E94411234
:103B700042E260EC83E00E9441128091EE048430C6
:103B800051F482E08093030154CE8091E30087FDDD
:103B9000DDCF81E0DCCF81E0F5CFFF920F931F9363
:103BA000CF93DF93C62FD42FF22E8115A9F0609307
:103BB000BC0516DA809377029093780281E0C1FD0C
:103BC00084E0C0FD880FC2FD82950E947214CDB7BB
:103BD000DEB7E5E00C944D318091BC05681332C02E
:103BE0000091770210917802FBD9801B910B8436EB
:103BF000910540F51D2F105ECD17A1F0C77001E0B3
:103C0000802F01C0880FCA95EAF70E947B141830F4
:103C100048F48D2F877001C0000F8A95EAF7802F36
:103C20000E94721460E070E08F2DAADC81E0D1FD6B
:103C300084E0D0FD880FD2FD8295183040F60E94B6
:103C40007B14C5CF81E0C1FD84E0C0FD880FC2FDBB
:103C50008295F5CFA4E0B0E0E0E3FEE10C942931D9
:103C60006C01FC018481811509F4F1C061E0C60199
:103C70000E94D3158C01F6018581811509F464C079
:103C8000C80191509F3408F09BC0802F90E09C01A8
:103C9000245031092432310518F08B970E9780F4A7
:103CA000E0918C05F0E0EE0FFF1FE65AFA4F80819D
:103CB00091818F3F2FE7920719F0019680839183BE
:103CC000F6012081818190E2F92E0C33110520F458
:103CD000F801EA5EFD4FF0801F92FF921F930F9351
:103CE0001F922F931F928F9381E391E09F938F9365
:103CF0001F9288E18F9384EA95E09F938F930E94AF
:103D000011328091A2059091A3052DB73EB7225F95
:103D10003F4F0FB6F8943EBF0FBE2DBF84319105C3
:103D200051F444E150E060E270E08DE895E00E94DB
:103D3000033280E090E0FC01E357FA4FF0820196F5
:103D40008093A2059093A305F6018581811509F45E
:103D5000E0C0980137572038310508F083C400319E
:103D600008F066C066EF71E080E090E00E942516E2
:103D700081115EC0A12CB12C4501011125C08982A1
:103D80009A82AB82BC828E010F5F1F4FC8010E94D6
:103D90003216B02EA12E813008F44AC009F073C04B
:103DA000C8010E943216813019F5C8010E943216EE
:103DB00060E570E0893311F060E070E0E1DBE6CFB0
:103DC00011117ECFC80163CF87EF881681E0980676
:103DD000A104B10469F1B401C5010E9425169FEF49
:103DE000891A990AA90AB90A8111EECF0150C5CFE3
:103DF000823029F4C8010E9432163FDBC7CF8330DE
:103E000029F4C8010E94321689DBC0CF843071F4D6
:103E1000C8010E943216E12CF12C282F2053330BBD
:103E20002A303105C0F0E114F10419F58111AECF4B
:103E30008091C305877059F0F6018581811539F0AD
:103E40008091C50582FF03C082E00E942F0E249658
:103E5000EDE00C9445314AE04E9DC0014F9D900D20
:103E60001124280F391F79018B2D9A2D0E943216AB
:103E7000D4CFEFE9FFE03197F1F700C0000091E007
:103E8000E91AF108D0CFE82FF0E0EA56F64F949106
:103E9000792E282F26952695269530E0F901EA57A8
:103EA000F64FE4908770F12C082E02C0F594E79449
:103EB0000A94E2F7F901EA58F64FA490B12C082EC3
:103EC00002C0B594A7940A94E2F72A59364FF90133
:103ED0008490912C02C0959487948A95E2F7E0FE35
:103EE00002C081EECADAA0FE02C086EEC6DA60E049
:103EF00070E0872D45DBA0FE02C086EE0FDBE0FE02
:103F000002C081EE0BDB80FE41CF60E070E08CE20E
:103F100055CFF801E851FC47E730F10508F092C3AE
:103F2000E452F94C0C94B83126E241EE61EE35DEF4
:103F30007FCF27E245EE65EEFACF26E241EE60EE56
:103F4000F6CF27E245EE64EEF2CF26E241EE62EED6
:103F5000EECF27E245EE66EEEACF28E241E0EBCF76
:103F60008091C40581608093C4056091C4057091FF
:103F7000C50584E090E00E94FF3418DB59CF8091A2
:103F8000C50588608093C505F0CF8091C405826027
:103F9000EACF8091C4058460E6CF8091C405886033
:103FA000E2CF8091C5058160EDCF8091C50582602B
:103FB000E9CF8091C4058061D6CF8091C40580622D
:103FC000D2CF8091C4058064CECFF0DA8091C40551
:103FD0008068C9CF8091C4058C60C5CF8091C5052C
:103FE0008360D0CF8091C4058E7FBDCF8091C50501
:103FF000877FC8CF8091C4058D7FB5CF8091C405E0
:104000008B7FB1CF8091C405877FADCF8091C505EF
:104010008E7FB8CF8091C5058D7FB4CF8091C405C8
:104020008F7EA1CF8091C4058F7D9DCF8091C405E7
:104030008F7B99CFBBDA8091C4058F7794CF809125
:10404000C405837F90CF8091C5058C7F9BCF9091D5
:10405000C405892F8B7F92FF8460877F92FF8860E1
:1040600082CF8091C505982F909590FB80F990FBA9
:1040700081F988CF9091C405892F8F7B96FF80644A
:1040800072CF94DA9091C405892F97FB87F98058F5
:104090006ACF61E08EE090E00E94E53466CF60E098
:1040A000F9CF9091C405892F8F7E94FF80615BCFFB
:1040B0009091C405892F8E7F90FF816054CF90919D
:1040C000C505892F877F93FF88605CCF07379CE702
:1040D0001907F1F008379CE7190749F19801205EAC
:1040E00032452032310548F5811139C00F7181E028
:1040F00090E002C0880F991F0A95E2F78C01682FA3
:1041000083E090E00E94E534802F0E945E0D90CE07
:10411000811549F081E00E946B0D43E062E081E08F
:104120000E94E80D85CE81E00E94740DF6CF8115C6
:1041300011F082E0F0CF82E0F7CF8115B9F10B35B5
:104140009CE7190751F10C359CE71907D9F00A359E
:104150009CE7190701F101309CE7190731F10330A1
:104160009CE71907E1F001151C4701F51FDA8FEFF5
:1041700094E32CE0815090402040E1F700C0000023
:104180000E94D2118091C505002482FF0394802DE6
:104190000E94C0134DCE81E0FBCF80E0F9CF6FEFDE
:1041A0007FEF80E090E00E94FF3420DAF60100818A
:1041B0001181811509F447C0C8010E94A615F82E87
:1041C000682FC8010E947F0DB8018F2D0E949A159B
:1041D0000E943F0F182FA92EF601E580F680F29479
:1041E0008FE0F8228091C305877001F1BE2CE114A5
:1041F000F1F0892F807F803461F0812F805E8830DC
:10420000A8F0892F807E803221F4123078F0F114EA
:1042100069F08091C50582FF09C082E00E942F0EDF
:104220008091C3058770BB24B3948111B12CEA2D12
:10423000E295EF708A2D803C08F067C0F0E0ED5108
:10424000F94C0C94B831C8010E94B50DF82EBCCFC2
:104250000A2D0F70803110F00295007FE114B9F043
:10426000011569F0812F805E883010F0111109C0AE
:104270008091BE05802B8093BE050E943414812F4F
:104280003EC08091C605802B8093C605F6CF812F56
:1042900045D90115D1F1812F805E883010F01111C0
:1042A00004C0802F0E94450E06C000958091C6056F
:1042B00080238093C6050E94341427C00A2D0F70F6
:1042C000807F803211F00295007F113040F009F4B8
:1042D00063C0E11409F46EC0F11499F1D0CF80915C
:1042E000C50582FD2AC0E11461F0011539F0809105
:1042F000BE05802B8093BE050E94341480E0BDD89B
:1043000004C080E00BD90111CCCFB11409F4B0C0C6
:104310008091C30580FDACC0F60115828695869517
:1043200086950E946B0DC60195DC8091C30586952C
:10433000869586950E94740D9BC0E11499F0F1104A
:1043400004C0802F0E947214E0CF8F2D8130E9F6D7
:104350008091BF05902F98230917B9F2802B809385
:10436000BF05D3CFF110D1CF802F0E947B14909145
:10437000BF05802F892329F0802F80958923809382
:10438000BF058091C005902F982309F4BECF0095FA
:1043900008230093C005B9CF8F2DE11421F086309A
:1043A00008F0B3CFCECF853008F0AFCF802F0E947A
:1043B0007B14ABCFF114D1F3193349F48FEF97EE9F
:1043C00023E0815090402040E1F700C00000812FA1
:1043D000A5D89BCF869586958370813060F009F0D3
:1043E00094CF812F9A2D9370E11002C080E090E06D
:1043F0000E945A118ACF812F9A2D9370E11002C02A
:1044000080E090E00E94331180CF6E2D812F0E94BA
:104410007E197BCF8370E1F5E11028C0812F829552
:1044200086958770880F880F412F4F70082E01C026
:10443000440F0A94EAF7212F207114FF06C02FE0E1
:1044400001C0220F8A95EAF720958A2D86958695D8
:104450008370982F8230A1F08330B9F08091C1052C
:10446000913059F0242B82230E945E0D0E9420116E
:1044700060E0C6010E94D315EACC842B822BF4CFD6
:10448000242B8091C1058227EFCF822F842BECCF84
:10449000E11459F1A0FEEACF812F829586958770AD
:1044A000880F880F412F4F70082E01C0440F0A94C7
:1044B000EAF7212F207114FF06C02FE001C0220F60
:1044C0008A95EAF720958A2D869586958370982F90
:1044D000823091F08330A9F08091C205913049F08B
:1044E000242B82230E94610DC1CF823008F4BECFFD
:1044F000D3CF842B822BF6CF242B8091C205822729
:10450000F1CF822F842BEECF8F70082FE11431F082
:104510000E946B0D812F0E947214A8CF812F0E94E0
:104520007B14802F0E94740DA1CF123F81F170F493
:10453000103FC9F0113F91F0E11409F456C0F11495
:1045400009F450C0812F0E943D1A90CF133F29F1EA
:10455000143F91F79091C50592FD2CC08A2D8F7163
:10456000E11401F317C08F2DE11479F0853008F0C4
:104570007DCF8A2D8F71282F81E001C0880F2A9569
:10458000EAF79091C2058927ADCF8630F0CF8F71C1
:10459000E110C8CF0E946B0D69CF80E0E11409F4EF
:1045A000A1CF8A2D8F71982F81E001C0880F9A9535
:1045B000EAF798CFE11459F08F7192FFEBCF982F63
:1045C000990F990F990F93609093C305E3CF81E002
:1045D0000E942F0E8F2D823008F448CF82E00E9477
:1045E0002F0E44CF8A2D8F71D5CFF11479F0193366
:1045F00049F48FEF97EE23E0815090402040E1F79F
:1046000000C00000812F0E948E1A30CF8A2D8F713A
:1046100089CF06319CE7190709F058CD8091BE0576
:104620008A7A91E0811101C090E09093BD0565E325
:10463000811101C069E284E592E00E9481110E942B
:104640003414F6CB06319CE7190709F03FCD809171
:10465000BD0565E3811101C069E284E592E00E9435
:104660009C11EDCFF801E851FC47E730F10508F463
:1046700057CC1092BC05980130572332310548F6CB
:1046800084E090E00E94D1348093C4059093C505E6
:10469000F801E150F047E232F10508F061CCE15158
:1046A000F94C0C94B83180910706803170F48091F8
:1046B0000606811551F0E091C8052091C70530919B
:1046C0000206409101062E1301C00895BF0187E044
:1046D000E89FF0011124DF01A753BA4F14968C9183
:1046E0001497811551F111968C911197831325C060
:1046F0008C91841322C015968C91159781111DC041
:1047000012968D919D91A0910306B09104068A1B8B
:104710009B0B8436910588F4809107068F70806129
:1047200080930706E153FA4F80818F708061808308
:1047300081E096E08FDA0C94250E6F5F7F4FFB01CE
:10474000E770C1CFADE0B0E0E8EAF3E20C942931C4
:104750008C0186E0F801DE01189601900D928A9591
:10476000E1F7F801F580848191E0892E96E0992E99
:1047700070900506711017C0811591F0F11409F4BD
:10478000F9C0C8010E94FA15811509F4F3C087E049
:10479000F801A1E0B6E001900D928A95E1F783DF80
:1047A000FF24F39455C0D080A280B380C090060649
:1047B0002091030630910406A501421B530BC1143E
:1047C00009F4BBC04436510508F076C0811541F3A9
:1047D000809102069180E09007069E2D903108F0AE
:1047E00057C0981214C0809101068D1110C0F110AD
:1047F00049C08E2D8F7080618093070681E096E01E
:1048000029DA80910706F8018683F12C21C0F11086
:1048100039C040E0692D8D2D0E94060E40E0692DC3
:104820008D2D0E94060EF82E8111EFCF8885998577
:104830000E94F015292F22952F70903470F49F70EC
:10484000223098F09115A9F0F8019681903188F402
:104850008F2D2D96EDE00C9445312A5F2F7022307C
:1048600060F0C801F7D9FC2CF3CF911511F0811538
:1048700079F3805E883060F3F4CF803F48F3815F46
:104880008330F9CF80910706816080930706BDCF02
:10489000981237C0809101068D1133C0F11031C0DC
:1048A000E682C801D7D987E0F801A1E0B6E001901F
:1048B0000D928A95E1F774CFE09007069E2D903116
:1048C00048F481E096E0C6D9F40187E011928A9518
:1048D000E9F79BCF811509F463CF9091020681819E
:1048E00098130FC0809101068D110BC0F11009C003
:1048F000E682C801AFD9F40187E011928A95E9F701
:104900004FCFC8010E94FA158115A1F1F11491F160
:104910008E2D803208F43BCF8091010690910206E3
:1049200089839A83AB82BC827D821E828091070636
:104930008F83CE0101968ED92ACF4436510520F6B9
:10494000811509F42DCFF114A9F09091020681810F
:10495000981306C0809101068D1102C087E0A5CF93
:10496000C8010E94FA15811112CF8091070681605B
:1049700080930706C8016ED913CFABE1B0E0E3EC3A
:10498000F4E20C9432314E8B5F8B688F798F8A8F73
:10499000192F9B8F91111092C6051D8A86E0FE018A
:1049A0007696DE011F9601900D928A95E1F70A8DA9
:1049B000011561F00B8B1C8B61E0CE010F960E94FC
:1049C000D31561E0CE010F960E94D3150B8B1C8B83
:1049D00087E0FE013F96DE01189601900D928A95C0
:1049E000E1F7CE010896AEDE81112EC02091C705F9
:1049F0003091C80587E0AE01485F5F4FFA0147502C
:104A00005109DA0101900D928A95E1F78C858115A3
:104A1000D9F0822F90E08395877090E0AC01341735
:104A20001506E1F097E0929FD0011124A753BA4FE9
:104A30009E012F5F3F4FF90101900D929A95E1F78A
:104A40004093C7050E94250E8091C8059091C70527
:104A5000891311C06B96E4E00C944E310E94D61A73
:104A60001092C7051092C805E1E0F6E087E01192C8
:104A70008A95E9F7E9CF27E0829FC0011124875387
:104A80009A4F60DE811531F38091C8059091C90578
:104A9000019687708093C805D7CFA6E0B0E0E3E524
:104AA000F5E20C9432310E94F0178C0180912D05B3
:104AB00090912E058017910771F019821A820E9439
:104AC000F017BC0149815A8180E090E056DF0093E5
:104AD0002D0510932E052696E4E00C944E31CDB7AB
:104AE000DEB7A6970FB6F894DEBF0FBECDBF85B771
:104AF000806885BF85B7806885BF84B7877F84BF9E
:104B00000FB6F894A895809160008861809360004A
:104B1000109260000FBE80E890E00FB6F89480938A
:104B20006100909361000FBE81E0809303018BE2EE
:104B300090E180935202909353020E9410130E94BE
:104B4000C1128091E20084608093E20078948091A9
:104B5000EE04811599F08091E9001091EC008F70BE
:104B600010FB112717F9182B1092E9008091E8002B
:104B700083FD0E940B1B1F701093E90082E084BD2F
:104B800093E095BD9AEF97BD80936E001092290532
:104B900010922A0510922B0510922C050E94501697
:104BA000811102C00E94A4178091D8008061809377
:104BB000D8008AE18A95F1F700C08091D900182FBA
:104BC000117080FD04C00E9410131092EE04109327
:104BD0002705109328051093040111110E94C12F7D
:104BE000809104018091040190E0811101C095E061
:104BF00090931C0585E0891B80930E05EFE9EE2E4E
:104C0000E1E0FE2E04EA11E0F70181917F018F3F80
:104C100011F00E942D100E151F05B1F774EAE72E52
:104C200071E0F72E0AEA11E0F70181917F018F3FD1
:104C300011F00E942D100E151F05B1F7E2E1F5E00D
:104C40008AE011928A95E9F7EDE1F5E08AE01192A8
:104C50008A95E9F780E090E00E94D134833E9E4F30
:104C600021F40E945016811129C063EE7EEF80E08E
:104C700090E00E94FF3460E082E090E00E94E53422
:104C800081E08093C10561E083E090E00E94E5341B
:104C900060E074E184E090E00E94FF340E94A41779
:104CA00060E070E0AB018FE090E00E94F73460E0DC
:104CB00070E0AB0183E190E00E94F73482E090E085
:104CC0000E94C9348093810284E090E00E94D13434
:104CD0008093C4059093C5050E9405188FEF96E751
:104CE00021E0815090402040E1F700C000000E9488
:104CF00005188091120580FF08C06FEF7FEF80E0FC
:104D000090E00E94FF340E94D21183E090E00E9464
:104D1000C9340E945E0D8091270591E08927880F94
:104D20008093DD0480E880939802C6D76BE070E042
:104D30008BE599E00E9467168115E9F18091DD0409
:104D400065E070E081FD9CC086E599E00E946716F1
:104D5000811589F16DE070E084E499E00E946716A6
:104D6000811549F10E94AB11DC01CB0180549B42BB
:104D7000AE4FBF4F8093E1049093E204A093E3040D
:104D8000B093E404EDEDF2E0DF0180E092E01D92EB
:104D90000197E9F7E0939602F09397028FEF9FEF68
:104DA0008093DF049093E00481E08093E804809393
:104DB000E5041092DE0480912705811102C00E9453
:104DC000C42F85E091E080932F05909330055E011C
:104DD0008FEFA81AB80A8091EE0410E4853009F428
:104DE00088C00E94051852E8E52E52E0F52E62E1D7
:104DF000C62E65E0D62EF601D7019D9180812CE864
:104E000032E02A173B0709F47EC031969817A9F3C0
:104E10005090270510E044244394F60101916F015E
:104E2000F70161907F01601619F16026912C7724BB
:104E30007394862D8721A9F0511499F099821A83D1
:104E40000E94F0178B839C834D8291E0802F8721F5
:104E500009F490E09E8349815A816B817C818D8128
:104E60008CDD9394770C892D863019F7F701029326
:104E70001F5F1A3091F60E94B7119924939447C08E
:104E800081E599E063CF8091EE04843029F10E949E
:104E9000961610927F0288E190E00FB6F894A895DC
:104EA000809360000FBE1093600083B7817F8460A1
:104EB00083BF83B7816083BF7894889583B78E7FE3
:104EC00083BF0FB6F894A8958091600088618093A5
:104ED0006000109260000FBE0E940518E2E1F5E04C
:104EE000808181112CC531968CE195E08E179F074A
:104EF000B9F78091EE04853009F4C5CF0E94D61A27
:104F00000E9420116ECF981383CFC7DD912C0091A2
:104F10002705011509F4BEC040905A0550905B0565
:104F2000652C660C6608762C10911101EAE5F5E017
:104F300081E090E0181719060CF0EFC0C0909202C3
:104F4000D0909302E0909402F09095020E94AB11F1
:104F50006C197D098E099F0969A37AA38BA39CA371
:104F60009201A30177FE03C020E030E0A901A0E692
:104F7000BAEE0E94C5316B017C0128EC129FC00182
:104F8000112429A13AA14BA15CA1092E000C000813
:104F9000280F391F401D501DA5E0B0E00E94C5310B
:104FA0009B01AC01B601C7010E947A3169017A0107
:104FB00081EFC816D104E104F10410F040EFC42ED3
:104FC00089A19AA1ABA1BCA1893C9105A105B1051C
:104FD0000CF180918C0590E0019669E170E00E94EF
:104FE000673180938C05880F991F865A9A4FFC0170
:104FF00010821182183108F017E11F5F1093110120
:105000000E94AB116093920270939302809394027A
:105010009093950282E048165104610471040CF4E7
:10502000C12C40908E0250908F0260909002709040
:1050300091020E94AB1164197509860997092B0129
:105040003C0185E6481651046104710484F00E9415
:10505000AB1160938E0270938F02809390029093B5
:1050600091028091080680938D02C0928C0210916B
:105070008D02A0918C02A11BBB0B9201A3010E9487
:10508000CF3124E630E040E050E00E949C31120F26
:10509000109308068091E804811509F444C1E0905A
:1050A000E604F090E7040E94F0178E199F09C2975A
:1050B00008F458C00E94F0178093E6049093E70428
:1050C0008DED92E08093960290939702011509F47A
:1050D0002DC28091C205843009F425C250F5811596
:1050E00079F16BE571E0823069F11F928F9386E769
:1050F00091E09F938F931F9288E18F9385EA92E0CE
:105100009F938F930E9411328DB79EB708960FB66A
:10511000F8949EBF0FBE8DBF19C032962081318199
:10512000032E000C0008420E531E601C701C0196DA
:1051300001CF883011F08E30C1F668E671E002C010
:1051400062E471E085EA92E00E940A3285EA92E028
:105150000E94501784EA95E00E9450178DE895E070
:105160000E9450178091DF049091E004892B09F48C
:10517000BFC08091E804811509F4BAC08091DE04B3
:105180008111B6C00E9474168091DF049091E004F2
:10519000009709F4ADC080FBEE24E0F8F12C212C3F
:1051A00080FD0FC041E050E023947A01022C02C040
:1051B000EE0CFF1C0A94E2F7970128233923232BD6
:1051C00099F38091DD0480FF55C2922D990F990FBC
:1051D000990F392F395F80E023E090931401809379
:1051E0001701309315012093180124E630E047E0C1
:1051F00050E062E171E088E792D5892B09F078C030
:1052000080E2289E100111248091DD0480FF44C2B9
:10521000EDEBF2E080E211928A95E9F789E991E0FD
:1052200089A39AA305E911E06DE971E0A9A1BAA1EA
:10523000ED91A9A3BAA3D8018D918D012101480E4A
:10524000511CF0E0E354FD4F20E030E097E0C92E20
:10525000C21ADD24D394022E01C0DD0C0A94EAF7B1
:10526000C20183529D4F8DA39EA390E0ADA1BEA12C
:105270008D91ADA3BEA38D214C2D491B477050E0ED
:10528000A82F042E01C0AA0F0A94EAF75195419560
:105290005109477001C086954A95EAF78A2B4081EB
:1052A000482B40839F5F983009F72F5F3F4F31961F
:1052B0002830310559F689A19AA16817790709F0B4
:1052C000B5CF04E610E020E230E04DEB52E060E4C0
:1052D00088E7B5D5892B61F4E094F0948091DF04E0
:1052E0009091E004E822F922E092DF04F092E004D9
:1052F0008091E5048115B9F00E94AB110091E104A1
:105300001091E2042091E3043091E404DC01CB012C
:10531000801B910BA20BB30B8F3F9F4FAF4FBF472B
:1053200010F40E94961691100E94741686E0E4E52F
:10533000F5E0D50101900D928A95E1F79090550521
:10534000D090560500915705C09058051091590509
:105350001092560510925705109258051092590553
:10536000802F8D2909F441C0E090EB04F090EC040B
:105370000E94F0178E199F099C019091520591157A
:1053800009F4D8C22531310580F19F3F19F09F5FA4
:1053900090935205D11459F00E94DB1091E01D1436
:1053A0000CF09FEF899F802D1124809356050115E5
:1053B00059F00E94DB1091E010160CF09FEF899FCE
:1053C000802D11248093570580915605811569F031
:1053D000F0905705F11449F00E94CD1080935605C6
:1053E0008F2D0E94CD1080935705812F8C2909F4B1
:1053F00041C0E090E904F090EA040E94F0178E1991
:105400009F099C0190915105911509F48EC2213597
:10541000310580F19F3F19F09F5F90935105C114B2
:1054200059F00E94FB1091E01C140CF09FEF899F33
:10543000802D112480935805111559F00E94FB10FE
:1054400091E011160CF09FEF899F802D112480931D
:10545000590580915805811569F0F0905905F114AE
:1054600049F00E94CD10809358058F2D0E94CD10D9
:105470008093590580915505981219C08091560561
:10548000811511F08D1113C020915705211511F0D0
:1054900020130DC090915905911511F0191307C0F3
:1054A00030915805311103C0822B892B11F00E94D5
:1054B000561986E0F501A4E5B5E001900D928A95B4
:1054C000E1F70E9420119091ED04891721F080935B
:1054D000ED040E94AB118091EE04843009F07BCC86
:1054E00083E08093E9008091E80082FF74CC809192
:1054F000E80090E085FF06C00E949012811509F433
:10550000D3C091E08091E8008B778093E8009115FB
:1055100009F461CCE981E150E33108F0EFC0F0E03B
:10552000EF5EF84C25C76EE471E00CCE10910806D2
:10553000612F70E080E090E00E94AA3520E030E02A
:1055400040E250E40E945A369B01AC0160E070E0FA
:1055500081EE93E40E9413356B017C0120E030E082
:1055600048EC52E40E94783587FD44C0B601C7017B
:105570000E947C356093A1027093A2028093A302E3
:105580009093A4021531D8F10E947416C0909D0228
:10559000D0909E02E0909F02F090A0020E94AB117A
:1055A000DC01CB018C199D09AE09BF094091A10214
:1055B0005091A2026091A3027091A402481759076A
:1055C0006A077B0760F40E94AB1160939D027093A1
:1055D0009E0280939F029093A0020E9483100E94DB
:1055E000AB116093990270939A0280939B029093FF
:1055F0009C02B8CD64E670E080E090E0BBCFC09044
:105600009902D0909A02E0909B02F0909C020E9436
:10561000AB11DC01CB018C199D09AE09BF09813C9E
:10562000944DA140B10518F00E9496169BCDC090F4
:105630009D02D0909E02E0909F02F090A0020E94F6
:10564000AB11DC01CB018C199D09AE09BF098D326C
:105650009140A105B10508F485CD0E94AB1160937E
:105660009D0270939E0280939F029093A0020E94DD
:10567000831078CD20E2229EC0011124880F492F8B
:10568000441F550B5195242F922D9295990F90768A
:10569000392F315E842FA1CDA10143525D4F04E625
:1056A00010E020E230E013CE80E2E82EF12C8501FC
:1056B0008091E80085FD0AC08091E8008B77809397
:1056C000E8000E949012811599F31BCF8091F100A0
:1056D000F801808381E0E81AF10809F412CF0F5F26
:1056E0001F4FE6CF1A828CE08B831AC08A818330E9
:1056F00081F138F4813029F1823051F08FEF8983C4
:105700000FC08430D9F71B821C821D821E8208C004
:1057100088E290E00E94C9341B821C821D828E8325
:10572000E0912F05F0913005309709F454CB0284B5
:10573000F385E02D309709F44ECB60E2C501099561
:105740004ACB0E94AB111AD66B837C838D839E83D8
:10575000E7CF8B8190E0FE0134968A30910504F703
:1057600011920196FACF8A81823019F08530C1F208
:10577000C5CF6B817C818D819E8100D688E290E0CF
:105780000E94E534CDCF4C816B818A810E947015D7
:105790009827892798278D839E83C2CF2D813E81AC
:1057A0003227232732274C816B818A810E94D613AE
:1057B000B7CF0E94FC13B4CF80E18A83B1CF81E0E0
:1057C0008A8387EF91CF4A805B80542445245424F8
:1057D000612C712C85018C817501E80EF11CE0169D
:1057E000F10609F49DCF87EF481681E05806610461
:1057F000710478F4C201875F9D4F0E94C934F8019B
:1058000084830F5F1F4F8FEF481A580A680A780A7F
:10581000E6CF80E0F4CF9C80CA80DB80DC24CD24FE
:10582000DC24E12CF12C85012701320149145104BB
:105830006104710408F074CF87EFC81681E0D806C0
:10584000E104F10438F4F8016481C601875F9D4FDB
:105850000E94E5348FEF481A580A680A780A8FEFD9
:10586000C81AD80AE80AF80A0F5F1F4FDFCF0E9454
:10587000691756CF84E0A1CF9C80CA80DB80DC24EE
:10588000CD24DC24E12CF12C270132018E010B5FA9
:105890001F4F491451046104710408F041CF80EE98
:1058A000C81681E0D806E104F10490F4C601899697
:1058B0000E94C934F80181938F018FEF481A580A6A
:1058C000680A780A8FEFC81AD80AE80AF80AE1CFFE
:1058D00080E0F0CF9C80CA80DB80DC24CD24DC24F7
:1058E000E12CF12C85012701320149145104610496
:1058F000710408F015CF80EEC81681E0D806E104E7
:10590000F10430F4F8016481C60189960E94E534FF
:105910008FEF481A580A680A780A8FEFC81AD80A0F
:10592000E80AF80A0F5F1F4FE0CF2B30310508F06F
:1059300073CDA0CD2B30310508F029CD56CD809107
:105940008002811509F4D5CA80E189BD82E189BD53
:1059500009B400FEFDCF8091D8008F7D8093D800E0
:105960008091E00082608093E0008091E00081FD02
:10597000FCCF0E94D61ABDCA78941F921FB61F9200
:1059800011248F939F93AF93BF9380916F02909157
:105990007002A0917102B09172020196A11DB11D19
:1059A00080936F0290937002A0937102B093720281
:1059B000BF91AF919F918F911F901FBE1F9018951F
:1059C0001F920F920FB60F9211242F933F934F9374
:1059D0005F936F937F938F939F93AF93BF93EF9357
:1059E000FF938091E10082FF09C08091E20082FF75
:1059F00005C08091E1008B7F8093E1008091DA0007
:105A000080FF24C08091D80080FF20C08091DA0000
:105A10008E7F8093DA008091D90080FFA9C080E159
:105A200089BD82E189BD09B400FEFDCF81E080938C
:105A3000EE0480915E02811109C00E9410130E9441
:105A4000C1128091E20084608093E2008091E100C5
:105A500080FF1AC08091E20080FF16C08091E200B2
:105A60008E7F8093E2008091E20080618093E2006B
:105A70008091D80080628093D80019BC85E0809323
:105A8000EE0483E0809303018091E10084FF2FC046
:105A90008091E20084FF2BC080E189BD82E189BD55
:105AA00009B400FEFDCF8091D8008F7D8093D8008F
:105AB0008091E1008F7E8093E1008091E2008F7EF3
:105AC0008093E2008091E20081608093E200809107
:105AD0005D02811509F452C084E08093EE04809148
